:100000000C9463060C948B060C948B060C948B0654
:100010000C948B060C948B060C948B060C948B061C
:100020000C948B060C948B060C948B060C946E1817
:100030000C948B060C948B060C948B060C948B06FC
:100040000C94AD160C948B060C941D170C94F7169B
:100050000C948B060C948B060C948B060C948B06DC
:100060000C944F170C948B0612000404040504062C
:1000700006102000FF1CF91B0000000000018E206C
:1000800006001094012A16CB789E69E02021431EB9
:10009000243974C445922182060E022B0FBBB89CF2
:1000A000871C8D1E3C70438E22002C0953F653C1D1
:1000B0008490082D084B389DE103072E0A343654EE
:1000C00061040911002F1ECE15949524512A8952DE
:1000D0004994E8504A87523A944AA25412A5922869
:1000E0009544013017CE1594C91C2A352C0A25C316
:1000F000FF7F96A8041B55E80C01310FC81B94899B
:100100009A2A1EAC2044FFFF073222CE1594AB1C66
:100110002A352C0A912086B37324C291244A926412
:10012000492A4B524A9252920F3E58331ECE159492
:10013000E1072B8992A49424A525CFA12C4B943EB2
:1001400009878A449345E94A01341DCE15946B28EA
:100150004D87D274284D8752428808A131F4E6C1F8
:1001600007EB88D20D00351DCE1594E14FE9E91A51
:10017000262D0A9120868C289D224396A8041B5583
:10018000E80C01361FCE1594C91C2A352C0A25C34C
:1001900094A66B98B428448218FE2C510936AAD034
:1001A0001902371BCE1594E1CF50912045944AA2F5
:1001B000B4244A4BA25496244A25519A013823CE9E
:1001C0001594C91C2A352C0A912086CF121161A3DF
:1001D000480D13422488E1B34425D8A8426708009B
:1001E0003920CE1594C91C2A352C0A25C39F91208D
:1001F00054A2099BA53445862C510936AAD0190270
:100200003A0BF3B654C18478C0260400000004FF02
:10021000FF00006000040405060406061B2900F91F
:100220001CF91B00036A06D60A3920060040500656
:10023000210D845B50857FD078C41011002211A855
:10024000E85B8E4021861819214448181100233B91
:100250008E53502622848810224288082122A388A7
:100260008C1A4288082122241E7CB0660821228430
:10027000881079F0C10A228488102242880821223D
:10028000A386901A428808210024286E544E2EA27C
:10029000B43CA586092112C430A59668A5262DADCB
:1002A000942CD173C890912044848DB28344690505
:1002B0000025358E53509651240A8D383362121220
:1002C00047C614213486E850A26387121D4AE950BC
:1002D000A26387121D4A66109132434E101931CD28
:1002E000894125480D0126298E5350AE72A8142D40
:1002F000214484D410A2D412255AD01C32642486FE
:10030000912081640412363B5A6382CD22550A271C
:100310000BA3D85B8D1026448400281C676B5026E5
:1003200041648890214286CCA031F41F0D2243887D
:100330000C2132848200291E68EB508E41A4488D26
:1003400022446A142152734568D48C281A440D2122
:1003500042C304012A178BE179A68183840C79902A
:10036000E4D011174986081A3808002B0F6BE17288
:100370001E72347AF0C00D398A002C09A3D84F05BB
:100380001342222D088BE074860F1C2E0A64D8506D
:1003900085112444002F1E8E5350569244A9244A9E
:1003A0002551A243291D4AE9502A895249944AA25B
:1003B00054120530188E53502673A8D4B028940CCC
:1003C000FFFF59A2126C54A1330400310F886B5007
:1003D000266AAA78B08210FDFF1F32238E5350AEDA
:1003E00072A8D4B028448218CECE910847922849EA
:1003F0009225A92C4929494A493EF86001331F8EAC
:100400005350861FAC244A92529294963C87B22C49
:1004100051FA241C2A124D16A52B0500341D8E53AB
:1004200050AEA1341D4AD3A1341D4A09212284C6ED
:10043000D09B071FAC234A3700351E8E5350863F92
:10044000A5A76B98B42844821832A2748A0C59A2CA
:10045000126C54A133040036208E53502673A8D456
:10046000B028940C539AAE61D2A2100962F8B3443A
:1004700025D8A842670800371C8E5350863F434555
:100480008214512A89D292282D8952599228954452
:1004900069060038238E53502673A8D4B0284482AE
:1004A000183E4B44848D22354C08912086CF1295FE
:1004B00060A30A9D210039218E53502673A8D4B021
:1004C00028940C7F46825089266C96D21419B24427
:1004D00025D8A8426708003A0BE3D9520513E20178
:1004E0009B103B0D43DA500D14E1419B1012013C6F
:1004F0001609EA523E61A3C8942144D5B06194958F
:100500002A466C9C003D0D4D5972861F9C07FBE0EE
:1005100083033E1509EA528680C3282B55D94465CA
:10052000CA10A26A5840003F1C8E53502673A8D4AC
:10053000B028940C19512A0B564953FA7B08C70E60
:10054000160600405139D4ACCFF36D5F3E1057B260
:1005500054D932A58B90424264549A1184D4A05944
:1005600083861A34D4A0A1060D3568A841430D1A1C
:100570006AD05083861A34D4A0A106CD83430F825B
:100580008C72438A4CA1F2C0CA032B0FEC81C807BE
:10059000415F330241288E53502EA2B4346877C88D
:1005A000301B326CC8B021A3881022428808A18970
:1005B000D430E164D890612388614600422D8E5387
:1005C0005086546B983021458214096223888D200F
:1005D00036821409522498AC59C384500952248895
:1005E000E15724983051840C00431A8E53502673DF
:1005F000A8D4B028940C53FAFF0C592A126C54A1B9
:1006000033040044178E535006456B98B420950C64
:10061000FFFFAB072398AC51040045138E5350865F
:100620003FA59F2A5AB30D51FAE9830F1646118E42
:100630005350863FA59F2A5AB30D51FA9F02471B7C
:100640008E53502673A8D4B028940C53FA66CFF07A
:1006500059A2124DD82C32310048108E53500662E8
:10066000F83F7BF00362F83F234909845B5085FF24
:10067000C1014A138E535056FAFF3F45862C51094B
:1006800036AAD019024B318E53500662A848102A60
:10069000418808193A214482140952C8909D336850
:1006A000C373C8909120458214114244CAD088086F
:1006B000A112A44810234C0E8E535006A2F4FFFF43
:1006C000D3071F2C4D218E535006629825D26809FE
:1006D000270FFEA004091424500C41220489102481
:1006E0006190E1CF084E1F8E5350066298A54AA52F
:1006F00048A3356B98708282040A124878B391AE91
:1007000032C38C004F188E53502673A8D4B028944F
:100710000CFFFF59A2126C54A1330400501E8E53DB
:100720005086548A9830215482140962F88A04A1B0
:10073000124C9828424694FE530051168E53502670
:1007400073A8D4B028940CFFFF59A2126C162D5236
:10075000522E8E535006648A983021458254327C42
:1007600036821409264C14292233880C1D8D21440D
:1007700084101152434891204582D8086204531CCA
:100780008E53502673A8D4B028940C53A2F59F1210
:1007900045862C510936AAD01902540E8E53508624
:1007A0001FAC224AFFFFBF0255138E53500662F85A
:1007B000FFFF59A2126C54A133040056348E5350DB
:1007C0000662C8480C23316CC8B021A486102242AE
:1007D00088CC203283069119448410115243480D6D
:1007E000194662188961E8AE3368652D899202570F
:1007F0002B8E53500662F83312C3480C1B3226C8A6
:10080000244226113205892123480C19416208FF30
:100810000D11424408112134090058368E535006F8
:1008200062C8480C1B428808213283061121448487
:10083000D4906123886167D076C89091183664148B
:10084000114244084D4388082122C3461043460004
:10085000592C8E53500662C8868C22428808A131DA
:10086000148D21448214096223889D3B67B24AA2F9
:100870005412A59228D1A1940E250A005A228E5313
:1008800050861F2C2549942451924449122549949D
:1008900024519244491225499424D1071F2C5B0FFF
:1008A000886B50860F0CD1FFFFE8C103015C228DDD
:1008B0005B5086A124890E2549742849A224292544
:1008C0004929494A49121D4A92E850924487125DCB
:1008D0000F886B50860F04D1FFFFE8C103035E0E43
:1008E000AAE05E1E52665010193168005F0852403F
:1008F0004F860F0C600CC7685D064284464D34007D
:100900006127B05290AE92C9562D224586141952D5
:10091000842953C4A60D0A22C4881023428C0831AE
:10092000322F9E38322400621A8E535006A2F4A948
:10093000A2354C5A144A86FF59A2072398AC510499
:10094000006319AE52502673A8D4B028940C53FA01
:1009500019B24425D8A84267080064178E53505630
:10096000FA919A252C1E0C4A86FF59A2124DD82CBA
:1009700052651CAE52502673A8D4B028940CB3070D
:100980003F204AB330854AB05185CE100066168E9E
:100990005350B682C752291A4329DD31E11551FA65
:1009A0007F070067248ED34C26354B583C18940C97
:1009B00067894AB0518519514ACFA961F16018661B
:1009C0000F46B05185060068138E535006A2F4A955
:1009D000A2354C5A144A86FF3F236913865B700D7B
:1009E000311385074784FEFFC4441132036A176B35
:1009F000E44C4681538687981CFDFFBF4333424930
:100A00009A5384006B2C8E535006A2F4335424481E
:100A1000912044840C9D1022428804A954C852A5F8
:100A200052A4A8089922640811214582140962047D
:100A30006C0F8753700532F4FFFF9B1346CA106D8D
:100A400035B8529007558596247980E2812353C8A2
:100A5000C81D23778CDC3172C7C81D23778CDC312D
:100A600072C7C81D23778CDC3172C7C81D23778CF1
:100A7000DC3172036E11AE525006456B98B4289467
:100A80000CFF7F46006F17AE52502673A8D4B028D3
:100A9000940CFFB34425D8A842670800701A8ED37F
:100AA0004C06456B98B428940CFFB3440F4630595C
:100AB000A388287D0A0071178ED34C26354B583CED
:100AC00018940CFFB344259AB059A4947E720DABD0
:100AD00052D0851F104147FFBF037323AD5210A6AC
:100AE0006288D4AC204482D40852480BA64A86922D
:100AF000E80852A8461022B24411BA420074148980
:100B00004B701552F4CD83074648D1FFD51943A544
:100B1000087511AE52500662F8FFB344259AB059D9
:100B2000A4007627AE525006629891183664D81009
:100B300042440811214466D08C881022428808A9BA
:100B400021C3860CC39D418B00774DB9529007623B
:100B5000E490911B41ACD89061A5880C2B45849002
:100B60002922844C8D217468A23384069D214484FB
:100B7000C4184244488C19458404916143869020EE
:100B80003664080962684610433362DCA183860E2E
:100B90001A3A68CA10007829AE5250066224860DAF
:100BA000214466D02022A4860C4367D024512A0D0C
:100BB0009A433664141142D31022326C0431027904
:100BC000318ED34C0E52444611194584D0184263DD
:100BD000281A43680C2122A3888C22416C04B1118D
:100BE000C4CE5D6861C94A290B330C552A840401BF
:100BF0007A17AE5250861FAC245992CA8225A92C6E
:100C0000496549920F3E587B1E0A644EBE51850CC1
:100C10001522463F1B46A8143162E5C88D2346BF06
:100C20002B65AADC007C09647C4E86FF07057D1FCE
:100C30000A644E8671C44A1923378E187D37CE1840
:100C400045A586D1CF861132548AD838007E0EAFA2
:100C500050548641659A78334A08007F0600405018
:100C60000600000004FFFF00000000000023002633
:100C700000290000000000240027002A00000000D6
:100C800000250028002B00040404040404040402CA
:100C90000202020202030303030303010204081019
:100CA00020408001020408102001020408102000E6
:100CB000000008000201000003040700000000001B
:100CC00000000000451911241FBECFEFD8E0DEBFA1
:100CD000CDBF11E0A0E0B1E0ECE9FBE302C005907C
:100CE0000D92A43AB107D9F728E0A4EAB1E001C017
:100CF0001D92A932B207E1F716E0C3E6D6E004C0C0
:100D00002197FE010E94BF1DC236D107C9F70E947C
:100D1000511A0C94CC1D0C940000662329F06A3003
:100D200019F0862F90E008958FEF9FEF0895AF920E
:100D3000BF92CF92DF92EF92FF920F93CF93DF9308
:100D4000EC01DA017901942F9770E1E0F0E09F0166
:100D5000092E01C0220F0A94EAF7522F6E018AE889
:100D6000C80ED11CF601808140E0823018F4422F79
:100D7000813049F15D01F8EFAF22E8ADF9AD28818E
:100D80003981D90150968C918A9D90018B9D300DAF
:100D90001124620F731FDF01A60FB71F01111AC0C4
:100DA000EA0EFB1E8C91842B85278D93AE15BF0513
:100DB000C9F7DF91CF910F91FF90EF90DF90CF9027
:100DC000BF90AF90089550E0D5CF440F550FE11478
:100DD000F10479F33C91342B35273C939F5F977056
:100DE000E1E0EE1AF1089111F0CF2CAD3DADA20F6C
:100DF000B31FF6018081823028F4813009F051E080
:100E000041E0E5CF51E0E3CF80E0089590E080E05D
:100E10000895CF93DF93C3E9D7E08FAFEAADFBAD81
:100E20000190F081E02D87E997E00995EAADFBADEF
:100E30000280F381E02D87E997E0DF91CF9109945B
:100E40009B01DC011896ED91FC9141E067E109946A
:100E5000833081F028F4813099F08230A9F0089530
:100E60008730A9F08830C9F08430B1F480918000D7
:100E70008F7D03C0809180008F77809380000895DC
:100E800084B58F7784BD089584B58F7DFBCF809125
:100E9000B0008F778093B00008958091B0008F7D6F
:100EA000F9CF1F93CF93DF93282F30E0F901E1555D
:100EB000F34F8491F901E556F34FD491F901E957C5
:100EC000F34FC491CC23A9F0162F81110E9428075B
:100ED000EC2FF0E0EE0FFF1FE358F34FA591B49114
:100EE0008FB7F894EC91111108C0D095DE23DC93F4
:100EF0008FBFDF91CF911F910895DE2BF8CFCF9355
:100F0000DF9390E0FC01E556F34F24918957934F0E
:100F1000FC0184918823D1F090E0880F991FFC0197
:100F2000ED58F34FA591B491FC01E358F34FC591EF
:100F3000D491623071F49FB7F8943C91822F8095E0
:100F400083238C93E8812E2B28839FBFDF91CF9141
:100F500008958FB7F894EC912E2B2C938FBFF6CF7A
:100F60003FB7F8948091DD029091DE02A091DF02FC
:100F7000B091E00226B5A89B05C02F3F19F001965D
:100F8000A11DB11D3FBFBA2FA92F982F8827BC01E3
:100F9000CD01620F711D811D911D42E0660F771F0B
:100FA000881F991F4A95D1F708952FB7F89460913B
:100FB000D9027091DA028091DB029091DC022FBF9E
:100FC000089508950895AF92BF92CF92DF92EF9265
:100FD000FF920F931F93CF93DF936C017B018B01E3
:100FE000040F151FEB015E01AE18BF08C017D10733
:100FF00059F06991D601ED91FC910190F081E02DBD
:10100000C6010995892B79F7C501DF91CF911F9111
:101010000F91FF90EF90DF90CF90BF90AF90089529
:10102000FC01538D448D252F30E0842F90E0821BEE
:10103000930B541710F0CF96089501970895FC0173
:10104000918D828D981761F0A28DAE0FBF2FB11DCB
:101050005D968C91928D9F5F9F73928F90E0089523
:101060008FEF9FEF0895FC01918D828D981731F0DD
:10107000828DE80FF11D858D90E008958FEF9FEF31
:101080000895FC01918D228D892F90E0805C9F4F07
:10109000821B91098F739927089581EE92E00E9437
:1010A000410821E0892B09F420E0822F089580E097
:1010B00090E0892B29F00E944D0881110C940000CA
:1010C0000895FC01A48DA80FB92FB11DA35ABF4FDD
:1010D0002C91848D90E001968F739927848FA68937
:1010E000B7892C93A089B1898C91837080648C938B
:1010F000938D848D981306C00288F389E02D80813A
:101100008F7D80830895EF92FF920F931F93CF936B
:10111000DF93EC0181E0888F9B8D8C8D98131AC032
:10112000E889F989808185FF15C09FB7F894EE8919
:10113000FF896083E889F989808183708064808376
:101140009FBF81E090E0DF91CF911F910F91FF90C1
:10115000EF900895F62E0B8D10E00F5F1F4F0F7369
:101160001127E02E8C8D8E110CC00FB607FCFACF24
:10117000E889F989808185FFF5CFCE010E94610859
:10118000F1CFEB8DEC0FFD2FF11DE35AFF4FF082F5
:101190009FB7F8940B8FEA89FB8980818062CFCF5B
:1011A000CF93DF93EC01888D8823B9F0AA89BB899E
:1011B000E889F9898C9185FD03C0808186FD0DC089
:1011C0000FB607FCF7CF8C9185FFF2CF808185FFAA
:1011D000EDCFCE010E946108E9CFDF91CF91089554
:1011E000DC011A96ED91FC9130E020E00994DC01DD
:1011F0001496ED91FC9130E020E040E060E109942C
:10120000DC011696ED91FC9130E020E040E069E1D0
:101210000994DC011696ED91FC9130E020E040E06D
:1012200068E109949A01DC011696ED91FC91462F34
:1012300067E10994EF92FF920F931F93CF93DF938F
:101240001F92CDB7DEB77C018B01D8016C9167315D
:1012500029F150F46531A0F40F90DF91CF911F91E7
:101260000F91FF90EF9008956A3118F16E3FA1F74A
:10127000F8014181498369E2C7010E94F0080BC06F
:10128000F80141814983D7011696ED91FC9130E038
:1012900020E0C70109950E5F1F4FD7CFF80181816C
:1012A0008983AE014F5F5F4F61E0C7010E94120961
:1012B000F2CF0F5F1F4FD7011696ED91FC9130E0F2
:1012C00020E040E0C7010995C0CF462FDC0116960B
:1012D000ED91FC9130E020E066E10994462FDC01BD
:1012E0001696ED91FC9130E020E065E10994EF92D3
:1012F000FF920F931F93CF93DF93EC01042F79019B
:101300006D3009F446C050F46B30C9F1693009F40E
:101310009FC06A3009F465C080E05CC06E3009F49B
:101320004BC06F3099F70E940909F7011381110F23
:10133000110F110F6C89160F60E4CE010E946E0927
:10134000612F62956F706061CE010E946E09612FFE
:101350006F70CE010E946509F7016481606BCE0158
:101360000E946509F701408151816281660F660F15
:10137000660FCE010E9412090150A1F727C064E157
:1013800071E0442311F06FE071E0CE010E941A0970
:1013900020C0411109C068E071E00E941A09E8818B
:1013A000F98182898C8B15C061E071E00E941A0975
:1013B000E881F9818389F6CF0E94090961E8CE01AD
:1013C0000E946E09602FCE010E946509CE010E9425
:1013D000000981E0DF91CF911F910F91FF90EF9075
:1013E0000895EA85FB8530E020E040E068E2CE0128
:1013F0000995EE81FF8130E020E040E064E1CE011C
:10140000099541E06BE4CE010E94F008E881F98182
:10141000448169E2CE010E94F00840E06BE4CE0115
:101420000E94F008E881F981448169E2CE010E94BE
:10143000F00841E06BE4CE010E94F008E881F981F8
:10144000458169E2CE010E94F00869E171E09DCF1B
:101450008EE491E09983888382E0A4CFDC01189622
:10146000ED91FC9130E020E040E069E10994DC017D
:101470001896ED91FC9130E020E040E068E109949D
:10148000CF93DF931F92CDB7DEB76983BE016F5F45
:101490007F4F0E9420070F90DF91CF910895EF9228
:1014A000FF921F93CF93DF93EC01162F7A010E94D6
:1014B000370A60E4CE010E94400AE885F985970169
:1014C000412F67E1CE010995CE01DF91CF911F91A8
:1014D000FF90EF900C942E0AEF92FF921F93CF9300
:1014E000DF93EC01142F7901663181F138F4643116
:1014F00009F44BC0653179F080E022C06831C9F150
:1015000050F16931C9F78091A002882391F1CE0191
:101510000E942E0A2EC08091A002882319F0CE01CD
:101520000E942E0ACE010E94370A60E0CE010E947E
:10153000400A612FCE010E94400A81E08093A00200
:10154000DF91CF911F91FF90EF900895642F0E943B
:10155000400A81E0F5CF8091A002882319F0CE01E6
:101560000E942E0AA701193138F4612FCE010E9482
:101570004F0A1092A002EDCF68E1CE010E944F0AFF
:10158000185188E1E80EF11CEDCF8E898F3F11F4E0
:1015900088E78E8BE885F9859701412F64E1CE01BC
:1015A000DF91CF911F91FF90EF9009940F93FC0171
:1015B000E85BFF4F0190F081E02DDF01A41BB50B2C
:1015C000AD01FC01EA5BFF4F0190F081E02DDF01EE
:1015D000A61BB70BBD01011113C041505109621B7D
:1015E000730BFC01E05CFF4F0190F081E02D4E1B7E
:1015F0005F0BDC01D496ED91FC9109950F91089554
:10160000013079F761507109421B530BEACFCF9338
:10161000DF93FC01A081B18182AD90E09C0143E0A9
:10162000220F331F4A95E1F737AF26AF50962C9122
:10163000509748E0249F9001112435AF24AF23AD8B
:1016400030E0B90153E0660F771F5A95E1F7EF01DB
:10165000C05CDF4F7983688351964C915197E901C3
:10166000C80FD91F50E04C175D0718F4CA01821B40
:10167000930BEF01CE5BDF4F79836883229623E0E3
:10168000880F991F2A95E1F7860F971F9983888302
:10169000229654968D919C91559799838883E85B07
:1016A000FF4F56968D919C9191838083DF91CF91CE
:1016B00008950F931F93FC01E25BFF4F0190F081AF
:1016C000E02DDC01A05BBF4F0D90BC91A02D4A170F
:1016D0005B0740F4E017F10748F00417150730F0F6
:1016E00080E019C0E017F107C0F3FACFFC01E65B18
:1016F000FF4F40815181845B9F4FFC01808191812C
:101700006817790758F481E04217530720F081E009
:101710002617370728F71F910F910895421753078F
:10172000B0F3DECF2F923F924F925F926F927F92F3
:101730008F929F92AF92BF92CF92DF92EF92FF92E1
:101740000F931F93CF93DF93CDB7DEB728970FB6D4
:10175000F894DEBF0FBECDBF98878F83865B9F4F07
:101760009A838983FC0111821082EF81F885EA5BFC
:10177000FF4F208031802F813885245B3F4F3C8391
:101780002B83F90131822082EF80F884FEE4EF0E92
:10179000F11CF70111821082EF81F885E85BFF4FA1
:1017A00040805180EF81F885EC5BFF4F20813181D3
:1017B0004216530630F0C201821B930BF70191834E
:1017C0008083EF81F885EE5BFF4F20813181421AE3
:1017D000530A2F813885205B3F4F3E832D83F901CB
:1017E00051824082EF81F885E85AFF4F6080718016
:1017F000EF81F885EC5AFF4FA080B180EF81F8852A
:10180000EA5AFF4FC080D180EF81F885EE5AFF4F32
:101810008080918083019501A601B4018F81988514
:101820000E94590B2F8138852C573F4F38872F83C3
:1018300081111BC0F901108228960FB6F894DEBF03
:101840000FBECDBFDF91CF911F910F91FF90EF9011
:10185000DF90CF90BF90AF909F908F907F906F90D0
:101860005F904F903F902F90089581E0EF81F88531
:1018700080838114910421F0E981FA819182808230
:10188000A214B30420F4EB81FC81B182A082F701A1
:10189000808191818C159D0510F4D182C0826414E1
:1018A000750450F6ED81FE8171826082C5CF0F9381
:1018B000CF93DF93E02FDC01AC57BF4FFC91FF23A8
:1018C00009F460C02115310509F45CC022303105EE
:1018D00038F0023009F04AC06F5F7F4F621B730B14
:1018E0000E2F0170E0FD52C0FC01E25BFF4F019042
:1018F000F081E02D4E175F0708F444C0FC01E05B67
:10190000FF4F0190F081E02D4E175F07D8F5FC01E5
:10191000E45BFF4F0190F081E02DDC01A65BBF4F3F
:101920000D90BC91A02D260F371F2617370738F5CD
:101930006E177F0718F59F0121503109A217B307D1
:1019400008F56A177B0708F4BD012E173F0708F456
:10195000F901E61BF70BEC01AEA9BFA914960D9097
:10196000BC91A02D9F01FD0109950CC0033009F029
:10197000B7CF4F5F5F4F421B530BB2CFBD016E1706
:101980007F07E0F2DF91CF910F910895FC01E65BB4
:10199000FF4F0190F081E02D6E177F0798F3FC0157
:1019A000E45BFF4F0190F081E02D6E177F0750F749
:1019B000FC01E05BFF4F0190F081E02DDC01A25BB8
:1019C000BF4F0D90BC91A02D240F351F2417350754
:1019D000A8F44E175F0788F49F0121503109A21720
:1019E000B30780F64A175B0708F4AD012E173F07CF
:1019F00008F4F901E41BF50BAECFAD014E175F07FC
:101A000008F6EDCF213069F038F0223079F0840FFC
:101A1000911D47FD9A950895860F911D67FD9A9532
:101A20000895841B910947FD93950895861B91099C
:101A300067FD93950895213069F038F0223079F0F0
:101A4000861B910967FD93950895840F911D47FDAD
:101A50009A950895860F911D67FD9A950895841BA8
:101A6000910947FD939508953F924F925F926F922F
:101A70007F928F929F92AF92BF92CF92DF92EF921E
:101A8000FF920F931F93CF93DF937C01162F442E69
:101A9000EC01C25ADF4F5E806F806C018AE8C80E8D
:101AA000D11C78847518312E711608F4372C8C806F
:101AB0009D800E85202F462D652D8A819B810E9459
:101AC000020D5C01202F462D652DC4010E941B0DC7
:101AD000AC01442079F08C85F6018083232D30E021
:101AE000B501C7010E94570C171548F017196394E8
:101AF000512CD7CF8B858111F7CF8D85EDCF150D6B
:101B00001E836F82DF91CF911F910F91FF90EF9015
:101B1000DF90CF90BF90AF909F908F907F906F900D
:101B20005F904F903F900895DC011A964C911A9760
:101B3000ED91FC911197249130E0042E02C035956F
:101B400027950A94E2F7842F860F883068F0319643
:101B50001196FC93EE93E49198E0941B01C0EE0F74
:101B60009A95EAF72E2B88501A968C938FEF9FEF59
:101B700001C0880F6A95EAF78095822308950F9334
:101B80001F93CF93DF938C01EC01C25ADF4F79830F
:101B900068831A86FC01EF58FF4F6081CE010E94D6
:101BA000940D8887F801EE58FF4F6081CE010E94A6
:101BB000940D8987F801E657FF4F90819C8781E05B
:101BC000911180E08D87DF91CF911F910F91089542
:101BD000CF93C62F0E94940DC15021E030E001C088
:101BE000220FCA95EAF7821BCF910895FC01E60FF8
:101BF000F11D849190E0982F88273196E4918E0F03
:101C0000911D0895CF93DF932091F1073091F20752
:101C10002817390709F490C0EC019093F2078093DC
:101C2000F107FC018491809304083196E491E093DC
:101C30000508FE013296E491E0930608FE01339612
:101C4000E491E0930708FE013496E491E0930808DC
:101C5000FE013596E491E0930908FE013696E49181
:101C6000E0930A08FE013796E491E0930B08FE0129
:101C70003896E491E0930C08FE013996E491E093E4
:101C80000D08FE013A96E491E0930E08FE013B96A2
:101C9000E491E0930F08FE013C96E491E093100874
:101CA000FE013D96E491E0931108FE013E96E49119
:101CB000E0931208FE013F96E491E0931308FE01C1
:101CC0007096E491E093140861E1CE010E94F60D54
:101CD000909316088093150863E1CE010E94F60DDB
:101CE000909318088093170865E1CE010E94F60DC5
:101CF00090931A08809319088091F1079091F20748
:101D0000892BD1F08091110880931D084091120811
:101D100040931E0890911C08992371F0913079F43A
:101D200090911308891714F490931D08809114085A
:101D3000841714F480931E08DF91CF910895309199
:101D40000E0820911008082E000C990B622F022E0D
:101D5000000C770B630F711D37FD7A958617970777
:101D60001CF4320F30931D08241734F720931E08FB
:101D7000E3CFEF92FF920F931F93CF93DF93FC017A
:101D8000E65AFF4F20813181295E3F4F6F3F710539
:101D900009F048F561367105D8F080589F4FFC0175
:101DA00080819181280F391FC9010196FC0144915E
:101DB000442309F447C0F90144914617170671F40A
:101DC0000196DF91CF911F910F91FF90EF900895B1
:101DD0006134710548F382589F4FE1CFFC01849133
:101DE000280F311DE1CF8B01FC01EE57FF4FC08161
:101DF000D181C20FD31F7E0160E0C7010E94F60DA2
:101E0000C80FD91F62E0C7010E94F60DF4E0EF0E83
:101E1000F11C8017910780F3FE01849190E0982FC8
:101E200088273196E4918E2B009761F008171907E7
:101E300019F4CE010396C5CFFE013296E491CE0F80
:101E4000D11DEACF90E080E0BCCFCF92DF92FF922D
:101E50000F931F93CF93DF931092FD071092AF075C
:101E60006C0180ECF82E10E000E0D0E0C0E0F6015C
:101E700061916F01E0919907F0919A0787E997E0E6
:101E800009958F3F980789F18E3F2FEF920779F3DD
:101E9000BC0187E997E00E94B90E009721F1BC01CF
:101EA00087E997E00E94BF0D60910A0885EF97E0EF
:101EB0000E94E80D80931F0860910B0885EF97E062
:101EC0000E94E80D60910C0885EF97E00E94E80DF4
:101ED000082F880F110B80ECF81202C0F0901F0839
:101EE000C00FD11FC4CF80E0F3CF2091FD07222384
:101EF00099F080911F08022E000C330B280F311D22
:101F000087FD3A95C20FD31FC01BD10B1F1424F4B9
:101F1000CF0DD11DF7FCDA95CE01DF91CF911F9146
:101F20000F91FF90DF90CF9008958F929F92AF9284
:101F3000BF92CF92DF92EF92FF920F931F93CF93B6
:101F4000DF93EC017B018A016901FC01E459FF4F39
:101F50008081813009F46FC008F462C0823009F4D6
:101F600075C0833009F47DC0FE01E05AFF4FF18255
:101F7000E082329611830083B601CE010E94B90E31
:101F8000009709F4FFC07E012EE5E20EF11CBC01B2
:101F9000CE010E94BF0DFE01E959FF4FB0803C9673
:101FA0006081C7010E94E80D882EFE01EC58FF4FAA
:101FB0006081C7010E94E80D082FFE01EB58FF4F1A
:101FC0006081C7010E94E80DA82EF70190841914C2
:101FD0000CF090C016850B0D0195212F402F682D18
:101FE000828193810E94020D6C01F70193838283A9
:101FF000212F402F682D848195810E941B0DAC01FB
:10200000F70195838483113009F484C0A8F112305C
:1020100009F491C0133009F4A4C08C01960136C0B4
:10202000FE01E45AFF4F0190F081E02DCE010995A9
:10203000080F191F99CFFE01E45AFF4F0190F0815C
:10204000E02DCE010995E81AF90A8ECFFE01E45A77
:10205000FF4F0190F081E02DCE010995081B190B6F
:1020600083CFFE01E45AFF4F0190F081E02DCE01B5
:102070000995E80EF91E78CF9601290D311D97FCC0
:102080003A958C010B0D111DB7FC1A95B601CE01C6
:102090000E94590B882371F1F701168217828E0175
:1020A00001591F4F6E01F0E7CF0ED11CF80160817E
:1020B000C7010E94940D882EF6016081C7010E941D
:1020C000940D982E40E0682DCE010E94340D41E021
:1020D000692DCE010E94340D61E0C7010E94940D6C
:1020E0008111F0CFF70187818B1504F3C657DF4FBD
:1020F000848588838A2DAA0C990BDF91CF911F913B
:102100000F91FF90EF90DF90CF90BF90AF909F9096
:102110008F90089581E090E08B199109B7FC939519
:1021200096012F5F3F4F8A01090D111D97FC1A95EB
:10213000C80ED91EABCF81E090E0BC0169197109CE
:1021400097FC739596012F5F3F4F8B199109B7FC50
:1021500093958A010F5F1F4F480F591FC60ED71E58
:1021600095CF96012B0D311DB7FC3A9581E090E09B
:102170008919910997FC93958A010F5F1F4F480FAA
:10218000591F84CF90E080E0B8CFCF92DF92EF92DA
:10219000FF920F931F93CF93DF93EC018B0110926B
:1021A000AF077A01D12CC12CF70161917F01E09139
:1021B0009907F0919A0787E997E009958F3F98076B
:1021C00019F18E3F2FEF920779F39C01A801BE0110
:1021D00087E997E00E94950F20910308213059F07C
:1021E00038F0223059F0233061F0C80ED91EDCCF10
:1021F000C80FD91FFACF080F191FF7CFC81BD90B6B
:10220000F4CF081B190BF1CFC601DF91CF911F91BD
:102210000F91FF90EF90DF90CF900895AF92BF9213
:10222000CF92DF92EF92FF920F931F93CF93DF93A2
:1022300000D000D01F92CDB7DEB78C01DC01DA965A
:10224000AC90DA97DB96EC90DB97ED91FC91B1883E
:10225000FE2CD12CC12CD801ED91FC9111978089D5
:10226000D8962D913C911C82FD828B83B8E08B9F88
:10227000C00111248C9DA0018D9D500D9C9D500D81
:102280001124240F351F3A832983D8011496ED9128
:10229000FC919E012F5F3F4F41E06FE0C80109951F
:1022A000F3948F2D8E198A1528F4BFEFCB1ADB0A11
:1022B000FB1488F20F900F900F900F900F90DF910A
:1022C000CF911F910F91FF90EF90DF90CF90BF9033
:1022D000AF9008958F929F92AF92BF92CF92DF926C
:1022E000EF92FF921F93CF93DF93EC016C32C8F40F
:1022F0006A3208F040C0683259F1693209F448C0C6
:1023000080E06034C8F16F73FE01E60FF11D868D29
:102310008F3F89F1603108F06DC0642F0E94510732
:102320002AC06D3209F458C058F384EB860F82300E
:1023300038F76F73C60FD11D8E8D62E0411105C055
:1023400060E00E94510761E08E8D0E947F0713C0FC
:102350007C012EE1E20EF11CD0E0F70181917F01BA
:102360008F3F31F061E0D03108F062E00E947F07DA
:10237000DF5FD63191F781E0DF91CF911F91FF9020
:10238000EF90DF90CF90BF90AF909F908F90089587
:10239000C42ED12CF12CE12C0E94B0074B015C0122
:1023A000C114D104E104F10431F30E94B0076819AB
:1023B00079098A099B09683E73408105910580F37C
:1023C000F1E0CF1AD108E108F10828EE820E23E0EF
:1023D000921EA11CB11CE4CF85E090E0433010F0C8
:1023E00082E090E0880F991F880F991F0597019749
:1023F000F1F7C1CF282F30E0F901E155F34F849177
:10240000F901E556F34FF490F901E957F34F1491B0
:10241000112379F081110E942807E12FF0E0EE0FDF
:10242000FF1FE759F34FA591B491EC91FE2281E093
:1024300009F480E0898F9FCF20912F02260F332748
:10244000331F21323105ECF420917802FC0190E039
:1024500080E0243069F082E00895A0912F0221915C
:10246000AC01415F5D4FA40FB52FB11D2C930196B8
:10247000861798F380912F02680F60932F0280E0F7
:10248000089581E008951092780281E080937702A8
:102490001092520261E082E10E94510761E083E103
:1024A0000E945107E9EBF0E080818E7F808380817C
:1024B0008D7F808388E48093B80085E48093BC009E
:1024C0000895CF93DF9391E090930E028823B9F0A3
:1024D000C091B800D091BA008091BC008A7B8093F3
:1024E000BC0060E082E10E94510760E083E10E944D
:1024F00051070E944312D093BA00C093B800DF91F5
:10250000CF9108950895E091A8028091A702E8175D
:1025100030F4F0E0E251FE4F808190E008958FEFBB
:102520009FEF08959091A8028091A7022FEF3FEFAF
:10253000981748F4E92FF0E0E251FE4F208130E097
:102540009F5F9093A802C90108958091A70290917E
:10255000A802891B990B0895CF92DF92EF92FF9208
:102560000F931F93CF93DF937C01CB018A012091BE
:102570007E02222389F0EB016B01C40ED51ECC151F
:10258000DD0569F06991D701ED91FC910190F08131
:10259000E02DC7010995F3CF642F0E941C12C801DA
:1025A000DF91CF911F910F91FF90EF90DF90CF902F
:1025B0000895CF92DF92EF92FF920F931F93CF93E4
:1025C000DF93EC01962F683109F44BC0B9019931C2
:1025D00030F49431C9F0973189F080E006C0993128
:1025E00009F461C09032C9F781E0DF91CF911F916A
:1025F0000F91FF90EF90DF90CF90089550E08EE71D
:1026000093E00E94AC12F0CF8C859D85AE85BF858E
:10261000892B8A2B8B2B71F4E881F981A585B0E099
:1026200020EA36E841E050E00E946F1D6C877D870C
:102630008E879F871092A8021092A7021092A6027E
:102640001092A5020E94431281EE97E09093A2029D
:102650008093A10282EE97E09093A4028093A3025C
:10266000C3CF2C853D854E855F8560E074E284EFA5
:1026700090E00E94821D205131094109510956956F
:102680004795379527952093B8008E8990E09595CA
:10269000879591E090937E0280939F021092A6020C
:1026A0001092A502A1CFD091A502D13208F093C01B
:1026B000C0919F020E94B0076B017C01809178025B
:1026C000811164C082E08093780281E08093770278
:1026D0008FEF8093760210927502D0937402AFE769
:1026E000B2E0E4E5F2E080E0D8137CC0109253023F
:1026F00080915302CC0FC82BC09353028091520299
:10270000813009F073C0109252020E94B0076B0131
:102710007C01809153028093BB0080917A0290915A
:102720007B02A0917C02B0917D02892B8A2B8B2B9E
:1027300099F00E94B00700917A0210917B022091DB
:102740007C0230917D026C197D098E099F09061764
:10275000170728073907D8F18091BC0083FDD9CF2E
:1027600085EC8093BC000E94B0076B017C018091D6
:1027700078028230E9F1809176028F3F61F1809199
:102780007602803241F18091760225C080917A02F2
:1027900090917B02A0917C02B0917D02892B8A2BC3
:1027A0008B2B09F48BCF0E94B00700917A02109115
:1027B0007B0220917C0230917D026C197D098E098B
:1027C0009F09061717072807390708F077CF809168
:1027D00079020E9461121092A6021092A502109234
:1027E0007E0202CF9D9191938F5F7ECF85EEB9CF10
:1027F00080917A0290917B02A0917C02B0917D023F
:10280000892B8A2B8B2B09F4B2CF0E94B007009141
:102810007A0210917B0220917C0230917D026C192A
:102820007D098E099F09061717072807390708F041
:102830009ECFCDCFCF93DF931F92CDB7DEB7698305
:1028400020917E022223F9F02091A502203258F037
:1028500021E030E0FC013383228390E080E00F90A0
:10286000DF91CF9108958091A602E82FF0E0E15822
:10287000FD4F998190838F5F8093A6028093A5027C
:1028800081E090E0ECCF61E0CE0101960E941C1245
:10289000F7CFCF92DF92EF92FF92CF93DF93EC01CD
:1028A000603282E07807CCF5653B710514F064EB8B
:1028B00070E0898128E830E0281B310987FD3395D5
:1028C000220F331F220F331F6901330FEE08FF0859
:1028D0008A8128E532E0281B310987FD3395220FD4
:1028E000331F220F331F032E000C440B550B2C19E2
:1028F0003D094E095F09DB0177FF02C0B0E0A0E0AF
:102900000E947A1D24EB30E040E050E00E94501D10
:10291000C20ED31EE41EF51EB601E881EC3070F540
:10292000298188E890E0821B910927FD9395880F03
:10293000991F880F991F681779077CF02A8188E50D
:1029400092E0821B910927FD9395880F991F880FAC
:10295000991F681779070CF4CB010297880F991F0C
:102960004FB7F8942E2F30E0F901EE0FFF1FE20F62
:10297000F31FE653FE4F928381834FBFDF91CF91C8
:10298000FF90EF90DF90CF9008951F93CF93DF9348
:10299000EC01162F88818C3008F04EC061E0812F49
:1029A0000E947F078881282F30E0F901EE0FFF1F7A
:1029B000E20FF31FE653FE4F1F736081607C612BB3
:1029C000608319821A822CE0622F0E94B31D829FBD
:1029D000B001112430E020E0AB01420F531FFA0197
:1029E000EE0FFF1FE40FF51FE653FE4F908196FD9B
:1029F00016C02F5F3F4F2C30310571F781110FC08A
:102A00001092800082E080938100109285001092E5
:102A10008400B19A80916F00826080936F00E8819A
:102A20008E2F90E0FC01EE0FFF1FE80FF91FE65319
:102A3000FE4F8081806480838881DF91CF911F91D8
:102A40000895CF92DF92EF92FF920F931F93CF934F
:102A5000DF936C01EB017B01E40EF51E10E000E05A
:102A6000CE15DF0561F06991D601ED91FC910190E1
:102A7000F081E02DC6010995080F191FF1CFC8019B
:102A8000DF91CF911F910F91FF90EF90DF90CF904A
:102A90000895CF92DF92EF92FF920F931F93CF93FF
:102AA000DF93EC016C0124E0C20ED11CFC01E05765
:102AB000FF4F0190F081E02DC60109958E3FEFEFA9
:102AC0009E07D8F48E010C561F4FF80140815181AA
:102AD0007E01F2E9EF0EF11CF701608171819C012A
:102AE000C6010E94950FC059DF4F28812130C1F0E7
:102AF00078F02230B9F02330E9F081E090E0DF9106
:102B0000CF911F910F91FF90EF90DF90CF9008959C
:102B1000F70120813181820F931F91838083EDCF54
:102B2000F801F7CFF70120813181281B390B318360
:102B30002083E3CFF801F7CF089590E080E0089577
:102B4000EF92FF920F931F93CF93DF931F92CDB716
:102B5000DEB787E997E00E9409098CE9E82E81E059
:102B6000F82E8E01025F1F4FF70181917F018111C5
:102B70000CC087E997E00E9400090F90DF91CF9188
:102B80001F910F91FF90EF900895F80160810E5F03
:102B90001F4F6983833649F0843661F0813621F70F
:102BA00087E997E00E946509DFCF87E997E00E94F7
:102BB0006E09DACFAE014F5F5F4F61E087E997E0C2
:102BC0000E941209D1CFFC01A081B18150962C91B5
:102BD00082AD38E0839FC0011124289FA001299F66
:102BE000500D112470E060E080AD91AD0C94C51DD6
:102BF0000F931F93CF93DF9387E997E00E94E3152C
:102C000080910001813071F583E192E00E94020E13
:102C1000CDE8D6E0D0939A07C09399078FE991E069
:102C20000E94250FD0939A07C093990720E830E0BF
:102C3000A901481B590BCA0157FD01964FE951E004
:102C40006EE270E0959587950E94C51087E997E040
:102C50000E940E1187E997E0DF91CF911F910F91AC
:102C60000C94F708823091F788E690E00E94020EFB
:102C70000DE816E010939A07009399074FEA52E087
:102C80006CE170E090E080E00E94C51010939A071C
:102C9000009399078CEA92E00E94250F10939A07FF
:102CA00000939907C0E8D0E04CEA52E06CE170E094
:102CB0009E01281B390BC9010E94C51010939A0769
:102CC0000093990789EA92E00E94250F10939A07D2
:102CD00000939907AE01481B590BCA0157FD019695
:102CE00049EA52E06FE370E0ADCF85ED8093BC0020
:102CF00080917A0290917B02A0917C02B0917D023A
:102D00000796A11DB11D23E0B695A79597958795C8
:102D10002A95D1F72091BC0024FD03C010927802BF
:102D2000089540917A0250917B0260917C027091EB
:102D30007D02452B462B472B69F30097A105B10572
:102D400041F02AE22A95F1F700C00197A109B109E3
:102D5000E1CF809179020C9461121F920F920FB60D
:102D60000F9211242F933F938F939F93AF93BF9311
:102D70008091D9029091DA02A091DB02B091DC023D
:102D80003091D80223E0230F2D3758F50196A11D6D
:102D9000B11D2093D8028093D9029093DA02A093B8
:102DA000DB02B093DC028091DD029091DE02A09103
:102DB000DF02B091E0020196A11DB11D8093DD02FA
:102DC0009093DE02A093DF02B093E002BF91AF9137
:102DD0009F918F913F912F910F900FBE0F901F9059
:102DE000189526E8230F0296A11DB11DD2CF1F9280
:102DF0000F920FB60F9211242F933F934F935F932F
:102E00006F937F938F939F93AF93BF93EF93FF93B2
:102E100081EE92E00E946108FF91EF91BF91AF9126
:102E20009F918F917F916F915F914F913F912F91E2
:102E30000F900FBE0F901F9018951F920F920FB614
:102E40000F9211242F938F939F93EF93FF93E09111
:102E5000F102F091F2028081E091F702F091F80224
:102E600082FD1BC090818091FA028F5F8F73209149
:102E7000FB02821741F0E091FA02F0E0EF51FD4FC2
:102E8000958F8093FA02FF91EF919F918F912F91EF
:102E90000F900FBE0F901F9018958081F4CF1F9256
:102EA0000F920FB60F9211242F933F934F935F937E
:102EB0006F937F938F939F93AF93BF93EF93FF9302
:102EC0008091B900887F803609F44AC0F0F58832D5
:102ED00009F4A7C018F5803109F49BC0B8F4882321
:102EE00009F4F9C0883009F494C0FF91EF91BF91C3
:102EF000AF919F918F917F916F915F914F913F9192
:102F00002F910F900FBE0F901F901895883109F4E4
:102F100088C0803251F78093760214C0803409F45F
:102F20009DC040F48033B9F38833F9F6809376027C
:102F300085ECB0C0803509F485C0883509F496C0A9
:102F4000883499F60E947516D0CF883909F48CC060
:102F500038F5883729F050F4883611F0803729F693
:102F600083E0809378021092510257C0883809F4A8
:102F70007BC0803919F0803809F0B7CF80915102B9
:102F8000803208F071C0E091510281E08E0F809391
:102F900051028091BB00F0E0EF5CFD4F80833DC0AB
:102FA000803B39F0E0F4803A09F479C0883A09F0BE
:102FB0009CCF84E0809378021092300210922F020E
:102FC000E091A102F091A202099580912F02811156
:102FD0000FC081E080932F0210920F0209C0803C45
:102FE00009F4A6CF883C09F4A3CF883B09F07DCF34
:102FF000E091300281E08E0F80933002F0E0E15FDB
:10300000FD4F80818093BB009091300280912F0210
:1030100029C0809153028093BB0085EC8093BC0053
:1030200064CF9091750280917402981758F5E091E1
:10303000750281E08E0F80937502F0E0EC5AFD4F2F
:103040008081E9CFE091750281E08E0F8093750257
:103050008091BB00F0E0EC5AFD4F808390917502A7
:10306000809174029817C8F285E8D8CFE091750274
:1030700081E08E0F809375028091BB00F0E0EC5AE6
:10308000FD4F80838091770281115CCF81E0809336
:10309000520284EA8093BC001092780226CF85EC1D
:1030A0008093BC001092780280915102803230F4FB
:1030B000E0915102F0E0EF5CFD4F1082609151020F
:1030C00070E0E091A302F091A40281E392E00995FF
:1030D000109251020ACF1092760234CF1F920F92B3
:1030E0000FB60F9211242F933F934F935F936F93DB
:1030F0007F938F939F93AF93BF93CF93DF93EF9380
:10310000FF938091C801C091C901D0E087FF24C01E
:1031100010928500109284008091C8018F5F809387
:10312000C8018091C801082E000C990B8C179D07CF
:1031300024F48091C8018C30C4F180918400909176
:103140008500049680349C4908F47AC080918400FC
:1031500090918500049676C08091C801082E000CDD
:10316000990B8C179D07C4F6E091C8018E2FEE0FC6
:10317000990BFC01EE0FFF1FE80FF91FE653FE4FFE
:10318000808186FFC9CFE091C8018E2FEE0F990B89
:10319000FC01EE0FFF1FE80FF91FE653FE4F808181
:1031A00060E08F730E945107B7CF20918400309167
:1031B0008500E091C8018E2FEE0F990BFC01EE0FF8
:1031C000FF1FE80FF91FE653FE4F81819281820FA6
:1031D000931F9093890080938800E091C8018E2FFF
:1031E000EE0F990BFC01EE0FFF1FE80FF91FE653DE
:1031F000FE4F808186FF11C0E091C8018E2FEE0F37
:10320000990BFC01EE0FFF1FE80FF91FE653FE4F6D
:10321000808161E08F730E945107FF91EF91DF91F0
:10322000CF91BF91AF919F918F917F916F915F915E
:103230004F913F912F910F900FBE0F901F901895B7
:1032400080E49CE990938900809388008FEF8093BD
:10325000C801E3CFFC019091C9019C3098F481E052
:10326000890F8093C9019083892F90E0FC01EE0FB4
:10327000FF1FE80FF91FE653FE4F88EB9BE0928398
:10328000818308958FEF80830895CF931092E40295
:103290001092E30288EE93E0A0E0B0E08093E502B4
:1032A0009093E602A093E702B093E8022AE631E0A9
:1032B0003093E2022093E10225EC30E03093EE02FD
:1032C0002093ED0224EC30E03093F0022093EF02E3
:1032D00020EC30E03093F2022093F10221EC30E058
:1032E0003093F4022093F30222EC30E03093F602A4
:1032F0002093F50226EC30E03093F8022093F70299
:103300001092FA021092FB021092FC021092FD023F
:103310001092810310928003809382039093830321
:10332000A0938403B09385038CE791E090937F038F
:1033300080937E0310929607109295078DE896E091
:103340009093240880932308109226081092250851
:1033500010922808109227081092AF078EE891E08B
:103360009093940780939307109298071092970771
:103370001092AC071092A3071092A4071092A50711
:103380001092A6078FEF8093AD078093B107E5EB0E
:10339000F7E08BEC97E0CFEFC1938E179F07E1F733
:1033A00087E799E090939C0780939B078CE69AE0CF
:1033B00090939E0780939D0789ED92E19093A007DB
:1033C00080939F078AE691E19093A2078093A107DB
:1033D00030E020E040E069E087E997E00E9477096B
:1033E0001092F2071092F10787E996E09093CC07CC
:1033F0008093CB078AE893E09093D0078093CF0720
:1034000088E08093D1071092D207109200081092A2
:10341000200810921C0881E08093210880932208E4
:1034200086E991E09093CE078093CD0787E997E0F6
:103430000E94070B1092EA071092E9071092EE071C
:103440001092ED078FEF9FEF9093EC078093EB07BF
:103450009093F0078093EF07E091CD07F091CE07AE
:103460000280F381E02D87E997E0099586E097E0F7
:103470009093F4078093F30710920308C093C0075A
:10348000C093C107C093C20780E997E00E942A1940
:103490008DE897E00E942A198AE897E0CF910C9472
:1034A0002A19789484B5826084BD84B5816084BD16
:1034B00085B5826085BD85B5816085BD80916E00D2
:1034C000816080936E001092810080918100826003
:1034D0008093810080918100816080938100809140
:1034E00080008160809380008091B100846080932F
:1034F000B1008091B00081608093B00080917A002B
:10350000846080937A0080917A00826080937A0050
:1035100080917A00816080937A0080917A0080683F
:1035200080937A001092C100E091F102F091F202D2
:10353000C2E0C083E091ED02F091EE021082E091D2
:10354000EF02F091F0028FEC80831092F902E0918B
:10355000F502F091F60286E08083E091F302F091AB
:10356000F402808180618083E091F302F091F402A3
:10357000808188608083E091F302F091F402808181
:1035800080688083E091F302F091F40280818F7D66
:10359000808361E087E00E947F0760E087E00E940F
:1035A000510765E070E080E997E00E94C51463E090
:1035B00070E08DE897E00E94C51462E070E08AE850
:1035C00097E00E94C51470E060E08DE897E00E94EB
:1035D000491470E060E08AE897E00E94491470E0C6
:1035E00060E080E997E00E9449140E94D50760934B
:1035F000CC027093CD028093CE029093CF021092B2
:10360000A8021092A7021092A6021092A5020E9490
:10361000431281EE97E09093A2028093A10282EE82
:1036200097E09093A4028093A302C093B80080E037
:1036300095E3ACE0B0E08093A3079093A407A09338
:10364000A507B093A607E0919B07F0919C0730E097
:1036500020E040E06AE087E997E009958091220840
:10366000882321F087E997E00E94E31580E00E941B
:10367000090703E917E087E997E00E940E11C0915E
:10368000D2078091D107C80FE0919707F091980772
:103690008189C81708F463C087E997E00E94F7089A
:1036A00080E00E940907E0919B07F0919C0730E0C1
:1036B00020E040E06BE087E997E009951F9280EFFA
:1036C0008F931F9285ED8F938CE991E09F938F9359
:1036D0001F930F930E94A01581E0809300010E9428
:1036E000F8152DB73EB7285F3F4F0FB6F8943EBF91
:1036F0000FBE2DBF86EBC82E82E0D82E90E0E92EBB
:1037000090E0F92ED2E001E010E023E0A22EB12CEF
:1037100032E0832E912C81EE92E00E944108C0910C
:10372000C1021816190654F581EE92E00E941F0896
:10373000782E0E94D5076093C2027093C3028093D3
:10374000C4029093C502CF30B0F481E08C0F809317
:10375000C102EC2FF0E0EF54FD4F7082DCCF80917E
:103760002208882321F087E997E00E94E3158C2F37
:103770000E94090780CF1092C102CDCFCC2359F10E
:103780000E94D5074090C2025090C3026090C402CC
:103790007090C5026419750986099709623371052D
:1037A00081059105C0F0EC2FF0E0EF54FD4F108241
:1037B000C13009F09DC08091B102833309F45FC02C
:1037C0000CF04EC0813309F455C060E0823309F437
:1037D00052C01092C1020E94D5072091D0023091B0
:1037E000D1022230310509F408C12330310509F432
:1037F00029C12130310509F0D0C04090CC02509051
:10380000CD026090CE027090CF029B01AC012419D2
:1038100035094609570929013A0130E24316510496
:103820006104710408F4B9C06093CC027093CD02B6
:103830008093CE029093CF022091CA023091CB02A6
:103840002D3531050CF09DC0B9016F5F7F4F70932E
:10385000CB026093CA0280E997E00E9449149DC0A0
:103860008733A1F0883341F1843309F0B2CF6DE2A0
:1038700070E007C061E087E00E945107AACF70E0C6
:1038800060E08AE897E00E944914A3CF8091D002BB
:103890009091D102892B09F09CCF1093D102009313
:1038A000D0020E94D5076093CC027093CD02809322
:1038B000CE029093CF028DCF8091D6029091D70205
:1038C000892B09F086CF6AE570E08DE897E00E94C9
:1038D00049140E94D5076093D2027093D30280935B
:1038E000D4029093D5021093D7020093D60271CFE1
:1038F000C23079F48091B102843309F06ACF8091AB
:10390000B202843309F065CF109200010E94F815CD
:1039100060CFC53009F05DCFE1EBF2E081918053DB
:103920008A3008F056CFCE16DF06C1F78091B1027B
:103930008093AF021092B0029091B2028091B302D4
:10394000903389F48093AC021092AD029091B4024E
:103950008091B502903371F48093A9021092AA026B
:10396000D0930001D3CF9093AC028093AD0210921C
:10397000AE02ECCF9093A9028093AA021092AB0200
:10398000EFCF6093C6027093C7028093C8029093F2
:10399000C9029092D1028092D0020E94D507209154
:1039A000D6023091D70221303105D9F44090D202AD
:1039B0005090D3026090D4027090D50264197509BA
:1039C00086099709643F71408105910550F070E0C8
:1039D00060E08DE897E00E9449141092D70210929F
:1039E000D602E114F10409F496CE0E944D08882312
:1039F00009F491CE0E9400008ECE4090C6025090F5
:103A0000C7026090C8027090C9029B01AC012419E2
:103A100035094609570929013A0138EE431633E0C2
:103A200053066104710408F4B8CF6093CC0270931C
:103A3000CD028093CE029093CF02B092D102A09299
:103A4000D002ABCF4090CC025090CD026090CE021D
:103A50007090CF029B01AC01241935094609570922
:103A600029013A0130E2431651046104710408F45B
:103A700094CF6093CC027093CD028093CE0290934A
:103A8000CF026091CA027091CB02161617061CF481
:103A900061507109DCCE1092D1021092D0027DCF1C
:103AA000052E97FB1EF400940E94671D57FD07D05A
:103AB0000E94821D07FC03D04EF40C94671D5095A4
:103AC0004095309521953F4F4F4F5F4F089590950A
:103AD0008095709561957F4F8F4F9F4F08950E94FD
:103AE000A41DA59F900DB49F900DA49F800D911DC6
:103AF00011240895B7FF0C946F1D0E946F1D821B47
:103B0000930B0895A1E21A2EAA1BBB1BFD010DC049
:103B1000AA1FBB1FEE1FFF1FA217B307E407F5077D
:103B200020F0A21BB30BE40BF50B661F771F881F59
:103B3000991F1A9469F760957095809590959B01EF
:103B4000AC01BD01CF010895A29FB001B39FC00198
:103B5000A39F700D811D1124911DB29F700D811DB9
:103B60001124911D0895991B79E004C0991F96179F
:103B700008F0961B881F7A95C9F780950895EE0F77
:103B8000FF1F0590F491E02D0994DC0101C06D93B5
:0C3B900041505040E0F70895F894FFCF3A
:103B9C00011815A015C019FF1815A115C819FF1883
:103BAC0015AE19FF1815AF19FF1815AE15D51680DF
:103BBC0015A8163F15D316001540158D1614152093
:103BCC00160015A115C815DA1612158116CF15D9C0
:103BDC0016F115DB1640152E15A415A619FF0001BC
:103BEC00140A6464323200093D000004289610085F
:103BFC00020280004000000000008308E307100868
:103C0C00D00841081F083308000000001A14AC1239
:103C1C009D158212A5129212831200000000491504
:103C2C0021159D159C15070B920BD60A6361005943
:043C3C00555241009C
:00000001FF
