:100000000C9463060C948B060C948B060C948B0654
:100010000C948B060C948B060C948B060C948B061C
:100020000C948B060C948B060C948B060C94741811
:100030000C948B060C948B060C948B060C948B06FC
:100040000C94D2170C948B060C9442180C941C1828
:100050000C948B060C948B060C948B060C948B06DC
:100060000C94B3160C948B061200040404050406C9
:1000700006102000FF1CF91B0000000000018E206C
:1000800006001094012A16CB789E69E02021431EB9
:10009000243974C445922182060E022B0FBBB89CF2
:1000A000871C8D1E3C70438E22002C0953F653C1D1
:1000B0008490082D084B389DE103072E0A343654EE
:1000C00061040911002F1ECE15949524512A8952DE
:1000D0004994E8504A87523A944AA25412A5922869
:1000E0009544013017CE1594C91C2A352C0A25C316
:1000F000FF7F96A8041B55E80C01310FC81B94899B
:100100009A2A1EAC2044FFFF073222CE1594AB1C66
:100110002A352C0A912086B37324C291244A926412
:10012000492A4B524A9252920F3E58331ECE159492
:10013000E1072B8992A49424A525CFA12C4B943EB2
:1001400009878A449345E94A01341DCE15946B28EA
:100150004D87D274284D8752428808A131F4E6C1F8
:1001600007EB88D20D00351DCE1594E14FE9E91A51
:10017000262D0A9120868C289D224396A8041B5583
:10018000E80C01361FCE1594C91C2A352C0A25C34C
:1001900094A66B98B428448218FE2C510936AAD034
:1001A0001902371BCE1594E1CF50912045944AA2F5
:1001B000B4244A4BA25496244A25519A013823CE9E
:1001C0001594C91C2A352C0A912086CF121161A3DF
:1001D000480D13422488E1B34425D8A8426708009B
:1001E0003920CE1594C91C2A352C0A25C39F91208D
:1001F00054A2099BA53445862C510936AAD0190270
:100200003A0BF3B654C18478C0260400000004FF02
:10021000FF00006000040405060406061B2900F91F
:100220001CF91B00036A06D60A3920060040500656
:10023000210D845B50857FD078C41011002211A855
:10024000E85B8E4021861819214448181100233B91
:100250008E53502622848810224288082122A388A7
:100260008C1A4288082122241E7CB0660821228430
:10027000881079F0C10A228488102242880821223D
:10028000A386901A428808210024286E544E2EA27C
:10029000B43CA586092112C430A59668A5262DADCB
:1002A000942CD173C890912044848DB28344690505
:1002B0000025358E53509651240A8D383362121220
:1002C00047C614213486E850A26387121D4AE950BC
:1002D000A26387121D4A66109132434E101931CD28
:1002E000894125480D0126298E5350AE72A8142D40
:1002F000214484D410A2D412255AD01C32642486FE
:10030000912081640412363B5A6382CD22550A271C
:100310000BA3D85B8D1026448400281C676B5026E5
:1003200041648890214286CCA031F41F0D2243887D
:100330000C2132848200291E68EB508E41A4488D26
:1003400022446A142152734568D48C281A440D2122
:1003500042C304012A178BE179A68183840C79902A
:10036000E4D011174986081A3808002B0F6BE17288
:100370001E72347AF0C00D398A002C09A3D84F05BB
:100380001342222D088BE074860F1C2E0A64D8506D
:1003900085112444002F1E8E5350569244A9244A9E
:1003A0002551A243291D4AE9502A895249944AA25B
:1003B00054120530188E53502673A8D4B028940CCC
:1003C000FFFF59A2126C54A1330400310F886B5007
:1003D000266AAA78B08210FDFF1F32238E5350AEDA
:1003E00072A8D4B028448218CECE910847922849EA
:1003F0009225A92C4929494A493EF86001331F8EAC
:100400005350861FAC244A92529294963C87B22C49
:1004100051FA241C2A124D16A52B0500341D8E53AB
:1004200050AEA1341D4AD3A1341D4A09212284C6ED
:10043000D09B071FAC234A3700351E8E5350863F92
:10044000A5A76B98B42844821832A2748A0C59A2CA
:10045000126C54A133040036208E53502673A8D456
:10046000B028940C539AAE61D2A2100962F8B3443A
:1004700025D8A842670800371C8E5350863F434555
:100480008214512A89D292282D8952599228954452
:1004900069060038238E53502673A8D4B0284482AE
:1004A000183E4B44848D22354C08912086CF1295FE
:1004B00060A30A9D210039218E53502673A8D4B021
:1004C00028940C7F46825089266C96D21419B24427
:1004D00025D8A8426708003A0BE3D9520513E20178
:1004E0009B103B0D43DA500D14E1419B1012013C6F
:1004F0001609EA523E61A3C8942144D5B06194958F
:100500002A466C9C003D0D4D5972861F9C07FBE0EE
:1005100083033E1509EA528680C3282B55D94465CA
:10052000CA10A26A5840003F1C8E53502673A8D4AC
:10053000B028940C19512A0B564953FA7B08C70E60
:10054000160600405139D4ACCFF36D5F3E1057B260
:1005500054D932A58B90424264549A1184D4A05944
:1005600083861A34D4A0A1060D3568A841430D1A1C
:100570006AD05083861A34D4A0A106CD83430F825B
:100580008C72438A4CA1F2C0CA032B0FEC81C807BE
:10059000415F330241288E53502EA2B4346877C88D
:1005A000301B326CC8B021A3881022428808A18970
:1005B000D430E164D890612388614600422D8E5387
:1005C0005086546B983021458214096223888D200F
:1005D00036821409522498AC59C384500952248895
:1005E000E15724983051840C00431A8E53502673DF
:1005F000A8D4B028940C53FAFF0C592A126C54A1B9
:1006000033040044178E535006456B98B420950C64
:10061000FFFFAB072398AC51040045138E5350865F
:100620003FA59F2A5AB30D51FAE9830F1646118E42
:100630005350863FA59F2A5AB30D51FA9F02471B7C
:100640008E53502673A8D4B028940C53FA66CFF07A
:1006500059A2124DD82C32310048108E53500662E8
:10066000F83F7BF00362F83F234909845B5085FF24
:10067000C1014A138E535056FAFF3F45862C51094B
:1006800036AAD019024B318E53500662A848102A60
:10069000418808193A214482140952C8909D336850
:1006A000C373C8909120458214114244CAD088086F
:1006B000A112A44810234C0E8E535006A2F4FFFF43
:1006C000D3071F2C4D218E535006629825D26809FE
:1006D000270FFEA004091424500C41220489102481
:1006E0006190E1CF084E1F8E5350066298A54AA52F
:1006F00048A3356B98708282040A124878B391AE91
:1007000032C38C004F188E53502673A8D4B028944F
:100710000CFFFF59A2126C54A1330400501E8E53DB
:100720005086548A9830215482140962F88A04A1B0
:10073000124C9828424694FE530051168E53502670
:1007400073A8D4B028940CFFFF59A2126C162D5236
:10075000522E8E535006648A983021458254327C42
:1007600036821409264C14292233880C1D8D21440D
:1007700084101152434891204582D8086204531CCA
:100780008E53502673A8D4B028940C53A2F59F1210
:1007900045862C510936AAD01902540E8E53508624
:1007A0001FAC224AFFFFBF0255138E53500662F85A
:1007B000FFFF59A2126C54A133040056348E5350DB
:1007C0000662C8480C23316CC8B021A486102242AE
:1007D00088CC203283069119448410115243480D6D
:1007E000194662188961E8AE3368652D899202570F
:1007F0002B8E53500662F83312C3480C1B3226C8A6
:10080000244226113205892123480C19416208FF30
:100810000D11424408112134090058368E535006F8
:1008200062C8480C1B428808213283061121448487
:10083000D4906123886167D076C89091183664148B
:10084000114244084D4388082122C3461043460004
:10085000592C8E53500662C8868C22428808A131DA
:10086000148D21448214096223889D3B67B24AA2F9
:100870005412A59228D1A1940E250A005A228E5313
:1008800050861F2C2549942451924449122549949D
:1008900024519244491225499424D1071F2C5B0FFF
:1008A000886B50860F0CD1FFFFE8C103015C228DDD
:1008B0005B5086A124890E2549742849A224292544
:1008C0004929494A49121D4A92E850924487125DCB
:1008D0000F886B50860F04D1FFFFE8C103035E0E43
:1008E000AAE05E1E52665010193168005F0852403F
:1008F0004F860F0C600CC7685D064284464D34007D
:100900006127B05290AE92C9562D224586141952D5
:10091000842953C4A60D0A22C4881023428C0831AE
:10092000322F9E38322400621A8E535006A2F4A948
:10093000A2354C5A144A86FF59A2072398AC510499
:10094000006319AE52502673A8D4B028940C53FA01
:1009500019B24425D8A84267080064178E53505630
:10096000FA919A252C1E0C4A86FF59A2124DD82CBA
:1009700052651CAE52502673A8D4B028940CB3070D
:100980003F204AB330854AB05185CE100066168E9E
:100990005350B682C752291A4329DD31E11551FA65
:1009A0007F070067248ED34C26354B583C18940C97
:1009B00067894AB0518519514ACFA961F16018661B
:1009C0000F46B05185060068138E535006A2F4A955
:1009D000A2354C5A144A86FF3F236913865B700D7B
:1009E000311385074784FEFFC4441132036A176B35
:1009F000E44C4681538687981CFDFFBF4333424930
:100A00009A5384006B2C8E535006A2F4335424481E
:100A1000912044840C9D1022428804A954C852A5F8
:100A200052A4A8089922640811214582140962047D
:100A30006C0F8753700532F4FFFF9B1346CA106D8D
:100A400035B8529007558596247980E2812353C8A2
:100A5000C81D23778CDC3172C7C81D23778CDC312D
:100A600072C7C81D23778CDC3172C7C81D23778CF1
:100A7000DC3172036E11AE525006456B98B4289467
:100A80000CFF7F46006F17AE52502673A8D4B028D3
:100A9000940CFFB34425D8A842670800701A8ED37F
:100AA0004C06456B98B428940CFFB3440F4630595C
:100AB000A388287D0A0071178ED34C26354B583CED
:100AC00018940CFFB344259AB059A4947E720DABD0
:100AD00052D0851F104147FFBF037323AD5210A6AC
:100AE0006288D4AC204482D40852480BA64A86922D
:100AF000E80852A8461022B24411BA420074148980
:100B00004B701552F4CD83074648D1FFD51943A544
:100B1000087511AE52500662F8FFB344259AB059D9
:100B2000A4007627AE525006629891183664D81009
:100B300042440811214466D08C881022428808A9BA
:100B400021C3860CC39D418B00774DB9529007623B
:100B5000E490911B41ACD89061A5880C2B45849002
:100B60002922844C8D217468A23384069D214484FB
:100B7000C4184244488C19458404916143869020EE
:100B80003664080962684610433362DCA183860E2E
:100B90001A3A68CA10007829AE5250066224860DAF
:100BA000214466D02022A4860C4367D024512A0D0C
:100BB0009A433664141142D31022326C0431027904
:100BC000318ED34C0E52444611194584D0184263DD
:100BD000281A43680C2122A3888C22416C04B1118D
:100BE000C4CE5D6861C94A290B330C552A840401BF
:100BF0007A17AE5250861FAC245992CA8225A92C6E
:100C0000496549920F3E587B1E0A644EBE51850CC1
:100C10001522463F1B46A8143162E5C88D2346BF06
:100C20002B65AADC007C09647C4E86FF07057D1FCE
:100C30000A644E8671C44A1923378E187D37CE1840
:100C400045A586D1CF861132548AD838007E0EAFA2
:100C500050548641659A78334A08007F0600405018
:100C60000600000004FFFF00000000000023002633
:100C700000290000000000240027002A00000000D6
:100C800000250028002B00040404040404040402CA
:100C90000202020202030303030303010204081019
:100CA00020408001020408102001020408102000E6
:100CB000000008000201000003040700000000001B
:100CC00000000000301911241FBECFEFD8E0DEBFB6
:100CD000CDBF11E0A0E0B1E0ECE0FBE302C0059085
:100CE0000D92A63AB107D9F724E0A6EAB1E001C017
:100CF0001D92A03AB207E1F716E0C3E6D6E004C0C1
:100D00002197FE010E94771DC236D107C9F70E94C4
:100D1000631A0C94841D0C940000662329F06A3039
:100D200019F0862F90E008958FEF9FEF0895AF920E
:100D3000BF92CF92DF92EF92FF920F93CF93DF9308
:100D4000EC01DA017901942F9770E1E0F0E09F0166
:100D5000092E01C0220F0A94EAF7522F6E018AE889
:100D6000C80ED11CF601808140E0823018F4422F79
:100D7000813049F15D01F8EFAF22E8ADF9AD28818E
:100D80003981D90150968C918A9D90018B9D300DAF
:100D90001124620F731FDF01A60FB71F01111AC0C4
:100DA000EA0EFB1E8C91842B85278D93AE15BF0513
:100DB000C9F7DF91CF910F91FF90EF90DF90CF9027
:100DC000BF90AF90089550E0D5CF440F550FE11478
:100DD000F10479F33C91342B35273C939F5F977056
:100DE000E1E0EE1AF1089111F0CF2CAD3DADA20F6C
:100DF000B31FF6018081823028F4813009F051E080
:100E000041E0E5CF51E0E3CF80E0089590E080E05D
:100E100008958091680490916904892BA1F18091D3
:100E200088048093940440918904409395049091A0
:100E30009304992341F1913069F490918A048917C0
:100E400014F49093940480918B048417E4F48093B9
:100E5000950408953091850420918704082E000C94
:100E6000990B622F022E000C770B630F711D37FD5B
:100E70007A95861797071CF4320F30939404241741
:100E800014F42093950408959B01DC011896ED91CC
:100E9000FC9141E067E1099420916A02260F332713
:100EA000331F21323105ECF420919002FC0190E0D7
:100EB00080E0243069F082E00895A0916A022191D7
:100EC000AC01485B5D4FA40FB52FB11D2C9301966B
:100ED000861798F380916A02680F60936A0280E037
:100EE000089581E00895089508950895E0913F02DE
:100EF00080913E02E81730F4F0E0E25EFD4F808121
:100F000090E008958FEF9FEF089590913F028091B8
:100F10003E022FEF3FEF981748F4E92FF0E0E25E32
:100F2000FD4F208130E09F5F90933F02C9010895FB
:100F300080913E0290913F02891B990B0895CF92B8
:100F4000DF92EF92FF920F931F93CF93DF937C0179
:100F5000CB018A0120911D02222389F0EB016B0154
:100F6000C40ED51ECC15DD0569F06991D701ED9150
:100F7000FC910190F081E02DC7010995F3CF642F1A
:100F80000E944C07C801DF91CF911F910F91FF90F4
:100F9000EF90DF90CF900895CF93DF931F92CDB75E
:100FA000DEB7698320911D022223F9F020914002CF
:100FB000203258F021E030E0FC013383228390E0BE
:100FC00080E00F90DF91CF91089580914102E82F4A
:100FD000F0E0E350FE4F998190838F5F8093410250
:100FE0008093400281E090E0ECCF61E0CE01019679
:100FF0000E944C07F7CF833081F028F4813099F0BC
:101000008230A9F008958730A9F08830C9F0843083
:10101000B1F4809180008F7D03C0809180008F7734
:1010200080938000089584B58F7784BD089584B53A
:101030008F7DFBCF8091B0008F778093B0000895B3
:101040008091B0008F7DF9CF1F93CF93DF93282F2E
:1010500030E0F901E155F34F8491F901E556F34F82
:10106000D491F901E957F34FC491CC23A9F0162F7D
:1010700081110E94FB07EC2FF0E0EE0FFF1FE358F9
:10108000F34FA591B4918FB7F894EC91111108C06A
:10109000D095DE23DC938FBFDF91CF911F91089510
:1010A000DE2BF8CF1092900281E080939202109292
:1010B000910261E082E10E94240861E083E10E94E4
:1010C0002408E9EBF0E080818E7F808380818D7F32
:1010D000808388E48093B80085E48093BC00089501
:1010E000CF93DF9391E0909347028823B9F0C091AA
:1010F000B800D091BA008091BC008A7B8093BC007C
:1011000060E082E10E94240860E083E10E942408FC
:101110000E945208D093BA00C093B800DF91CF91DB
:101120000895CF93DF9390E0FC01E556F34F2491AF
:101130008957934FFC0184918823D1F090E0880F68
:10114000991FFC01ED58F34FA591B491FC01E358B0
:10115000F34FC591D491623071F49FB7F8943C91EC
:10116000822F809583238C93E8812E2B28839FBF29
:10117000DF91CF9108958FB7F894EC912E2B2C939B
:101180008FBFF6CF3FB7F8948091F9019091FA01A3
:10119000A091FB01B091FC0126B5A89B05C02F3F93
:1011A00019F00196A11DB11D3FBFBA2FA92F982F8D
:1011B0008827BC01CD01620F711D811D911D42E088
:1011C000660F771F881F991F4A95D1F708952FB78B
:1011D000F8946091F5017091F6018091F70190917A
:1011E000F8012FBF0895AF92BF92CF92DF92EF9296
:1011F000FF920F931F93CF93DF936C017B018B01C1
:10120000040F151FEB015E01AE18BF08C017D10710
:1012100059F06991D601ED91FC910190F081E02D9A
:10122000C6010995892B79F7C501DF91CF911F91EF
:101230000F91FF90EF90DF90CF90BF90AF90089507
:10124000FC01538D448D252F30E0842F90E0821BCC
:10125000930B541710F0CF96089501970895FC0151
:10126000918D828D981761F0A28DAE0FBF2FB11DA9
:101270005D968C91928D9F5F9F73928F90E0089501
:101280008FEF9FEF0895FC01918D828D981731F0BB
:10129000828DE80FF11D858D90E008958FEF9FEF0F
:1012A0000895FC01918D228D892F90E0805C9F4FE5
:1012B000821B91098F739927089582EC92E00E9416
:1012C000510921E0892B09F420E0822F089580E064
:1012D00090E0892B29F00E945D0981110C94000097
:1012E0000895FC01A48DA80FB92FB11DA35ABF4FBB
:1012F0002C91848D90E001968F739927848FA68915
:10130000B7892C93A089B1898C91837080648C9368
:10131000938D848D981306C00288F389E02D808117
:101320008F7D80830895EF92FF920F931F93CF9349
:10133000DF93EC0181E0888F9B8D8C8D98131AC010
:10134000E889F989808185FF15C09FB7F894EE89F7
:10135000FF896083E889F989808183708064808354
:101360009FBF81E090E0DF91CF911F910F91FF909F
:10137000EF900895F62E0B8D10E00F5F1F4F0F7347
:101380001127E02E8C8D8E110CC00FB607FCFACF02
:10139000E889F989808185FFF5CFCE010E94710926
:1013A000F1CFEB8DEC0FFD2FF11DE35AFF4FF082D3
:1013B0009FB7F8940B8FEA89FB8980818062CFCF39
:1013C000CF93DF93EC01888D8823B9F0AA89BB897C
:1013D000E889F9898C9185FD03C0808186FD0DC067
:1013E0000FB607FCF7CF8C9185FFF2CF808185FF88
:1013F000EDCFCE010E947109E9CFDF91CF91089521
:10140000DC011A96ED91FC9130E020E00994DC01BA
:101410001696ED91FC9130E020E040E069E10994FE
:10142000DC011696ED91FC9130E020E040E068E1AF
:1014300009949A01DC011696ED91FC91462F67E123
:101440000994EF92FF920F931F93CF93DF931F9214
:10145000CDB7DEB77C018B01D8016C91673129F1E2
:1014600050F46531A0F40F90DF91CF911F910F914F
:10147000FF90EF9008956A3118F16E3FA1F7F801DF
:101480004181498369E2C7010E94000A0BC0F8014B
:1014900041814983D7011696ED91FC9130E020E01F
:1014A000C70109950E5F1F4FD7CFF801818189834E
:1014B000AE014F5F5F4F61E0C7010E94190AF2CF92
:1014C0000F5F1F4FD7011696ED91FC9130E020E0A1
:1014D00040E0C7010995C0CF462FDC011696ED917B
:1014E000FC9130E020E066E10994462FDC0116967D
:1014F000ED91FC9130E020E065E10994EF92FF92DC
:101500000F931F93CF93DF93EC01042F79016D307C
:1015100009F446C050F46B30C9F1693009F49FC03A
:101520006A3009F465C080E05CC06E3009F44BC0DD
:101530006F3099F70E94100AF7011381110F110FF4
:10154000110F6C89160F60E4CE010E94750A612F9D
:1015500062956F706061CE010E94750A612F6F7095
:10156000CE010E946C0AF7016481606BCE010E947B
:101570006C0AF701408151816281660F660F660F28
:10158000CE010E94190A0150A1F727C068E171E05D
:10159000442311F063E171E0CE010E94210A20C0D2
:1015A000411109C06CE071E00E94210AE881F981D3
:1015B00082898C8B15C065E071E00E94210AE88168
:1015C000F9818389F6CF0E94100A61E8CE010E945A
:1015D000750A602FCE010E946C0ACE010E94070A94
:1015E00081E0DF91CF911F910F91FF90EF900895CF
:1015F000EA85FB8530E020E040E068E2CE01099515
:10160000EE81FF8130E020E040E064E1CE01099509
:1016100041E06BE4CE010E94000AE881F981448137
:1016200069E2CE010E94000A40E06BE4CE010E9414
:10163000000AE881F981448169E2CE010E94000A32
:1016400041E06BE4CE010E94000AE881F981458106
:1016500069E2CE010E94000A6DE171E09DCF82E552
:1016600091E09983888382E0A4CFDC011896ED9104
:10167000FC9130E020E040E069E10994DC0118963B
:10168000ED91FC9130E020E040E068E10994CF93D7
:10169000DF931F92CDB7DEB76983BE016F5F7F4FC7
:1016A0000E9444070F90DF91CF910895EF92FF922F
:1016B0001F93CF93DF93EC01162F7A010E943E0B0C
:1016C00060E4CE010E94470BE885F9859701412F20
:1016D00067E1CE010995CE01DF91CF911F91FF9077
:1016E000EF900C94350BEF92FF921F93CF93DF9303
:1016F000EC01142F7901663181F138F4643109F479
:101700004BC0653179F080E022C06831C9F150F1F9
:101710006931C9F78091CC01882391F1CE010E94F3
:10172000350B2EC08091CC01882319F0CE010E9488
:10173000350BCE010E943E0B60E0CE010E94470BAC
:10174000612FCE010E94470B81E08093CC01DF9195
:10175000CF911F91FF90EF900895642F0E94470B47
:1017600081E0F5CF8091CC01882319F0CE010E9451
:10177000350BA701193138F4612FCE010E94560BA9
:101780001092CC01EDCF68E1CE010E94560B1851AA
:1017900088E1E80EF11CEDCF8E898F3F11F488E7C8
:1017A0008E8BE885F9859701412F64E1CE01DF91A9
:1017B000CF911F91FF90EF9009940F93FC01E85B8C
:1017C000FF4F0190F081E02DDF01A41BB50BAD01AF
:1017D000FC01EA5BFF4F0190F081E02DDF01A61BC9
:1017E000B70BBD01011113C041505109621B730BAE
:1017F000FC01E05CFF4F0190F081E02D4E1B5F0B80
:10180000DC01D496ED91FC9109950F91089501307A
:1018100079F761507109421B530BEACFCF93DF93E5
:10182000FC01A081B18182AD90E09C0143E0220FD8
:10183000331F4A95E1F737AF26AF50962C9150975A
:1018400048E0249F9001112435AF24AF23AD30E050
:10185000B90153E0660F771F5A95E1F7EF01C05CBD
:10186000DF4F7983688351964C915197E901C80FF6
:10187000D91F50E04C175D0718F4CA01821B930B67
:10188000EF01CE5BDF4F79836883229623E0880FD8
:10189000991F2A95E1F7860F971F998388832296CF
:1018A00054968D919C91559799838883E85BFF4F5F
:1018B00056968D919C9191838083DF91CF9108956D
:1018C0000F931F93FC01E25BFF4F0190F081E02D2D
:1018D000DC01A05BBF4F0D90BC91A02D4A175B07A8
:1018E00040F4E017F10748F00417150730F080E0E6
:1018F00019C0E017F107C0F3FACFFC01E65BFF4F18
:1019000040815181845B9F4FFC01808191816817E8
:10191000790758F481E04217530720F081E0261739
:10192000370728F71F910F91089542175307B0F317
:10193000DECF2F923F924F925F926F927F928F9263
:101940009F92AF92BF92CF92DF92EF92FF920F934E
:101950001F93CF93DF93CDB7DEB728970FB6F894D8
:10196000DEBF0FBECDBF98878F83865B9F4F9A8364
:101970008983FC0111821082EF81F885EA5BFF4FB9
:10198000208031802F813885245B3F4F3C832B831F
:10199000F90131822082EF80F884FEE4EF0EF11C21
:1019A000F70111821082EF81F885E85BFF4F4080DC
:1019B0005180EF81F885EC5BFF4F20813181421629
:1019C000530630F0C201821B930BF7019183808391
:1019D000EF81F885EE5BFF4F20813181421A530A77
:1019E0002F813885205B3F4F3E832D83F901518243
:1019F0004082EF81F885E85AFF4F60807180EF8167
:101A0000F885EC5AFF4FA080B180EF81F885EA5A43
:101A1000FF4FC080D180EF81F885EE5AFF4F808064
:101A2000918083019501A601B4018F8198850E9460
:101A3000600C2F8138852C573F4F38872F838111B9
:101A40001BC0F901108228960FB6F894DEBF0FBEB6
:101A5000CDBFDF91CF911F910F91FF90EF90DF905D
:101A6000CF90BF90AF909F908F907F906F905F903E
:101A70004F903F902F90089581E0EF81F88580830B
:101A80008114910421F0E981FA8191828082A2146B
:101A9000B30420F4EB81FC81B182A082F701808144
:101AA00091818C159D0510F4D182C0826414750457
:101AB00050F6ED81FE8171826082C5CF0F93CF9386
:101AC000DF93E02FDC01AC57BF4FFC91FF2309F4FB
:101AD00060C02115310509F45CC02230310538F0B1
:101AE000023009F04AC06F5F7F4F621B730B0E2FED
:101AF0000170E0FD52C0FC01E25BFF4F0190F081FC
:101B0000E02D4E175F0708F444C0FC01E05BFF4F77
:101B10000190F081E02D4E175F07D8F5FC01E45BE2
:101B2000FF4F0190F081E02DDC01A65BBF4F0D90CF
:101B3000BC91A02D260F371F2617370738F56E17D3
:101B40007F0718F59F0121503109A217B30708F547
:101B50006A177B0708F4BD012E173F0708F4F90147
:101B6000E61BF70BEC01AEA9BFA914960D90BC9132
:101B7000A02D9F01FD0109950CC0033009F0B7CFDE
:101B80004F5F5F4F421B530BB2CFBD016E177F07F4
:101B9000E0F2DF91CF910F910895FC01E65BFF4FDA
:101BA0000190F081E02D6E177F0798F3FC01E45B54
:101BB000FF4F0190F081E02D6E177F0750F7FC0179
:101BC000E05BFF4F0190F081E02DDC01A25BBF4F95
:101BD0000D90BC91A02D240F351F24173507A8F4B4
:101BE0004E175F0788F49F0121503109A217B307F0
:101BF00080F64A175B0708F4AD012E173F0708F47B
:101C0000F901E41BF50BAECFAD014E175F0708F6E7
:101C1000EDCF213069F038F0223079F0840F911D3A
:101C200047FD9A950895860F911D67FD9A95089531
:101C3000841B910947FD93950895861B910967FDC3
:101C400093950895213069F038F0223079F0861BA1
:101C5000910967FD93950895840F911D47FD9A950D
:101C60000895860F911D67FD9A950895841B91092B
:101C700047FD939508953F924F925F926F927F92A6
:101C80008F929F92AF92BF92CF92DF92EF92FF928C
:101C90000F931F93CF93DF937C01162F442EEC01FB
:101CA000C25ADF4F5E806F806C018AE8C80ED11C7B
:101CB00078847518312E711608F4372C8C809D802D
:101CC0000E85202F462D652D8A819B810E94090E4D
:101CD0005C01202F462D652DC4010E94220EAC010F
:101CE000442079F08C85F6018083232D30E0B50106
:101CF000C7010E945E0D171548F017196394512C07
:101D0000D7CF8B858111F7CF8D85EDCF150D1E8334
:101D10006F82DF91CF911F910F91FF90EF90DF9035
:101D2000CF90BF90AF909F908F907F906F905F907B
:101D30004F903F900895DC011A964C911A97ED91BF
:101D4000FC911197249130E0042E02C0359527951F
:101D50000A94E2F7842F860F883068F03196119646
:101D6000FC93EE93E49198E0941B01C0EE0F9A95DA
:101D7000EAF72E2B88501A968C938FEF9FEF01C0B5
:101D8000880F6A95EAF78095822308950F931F9331
:101D9000CF93DF938C01EC01C25ADF4F79836883C4
:101DA0001A86FC01EF58FF4F6081CE010E949B0E06
:101DB0008887F801EE58FF4F6081CE010E949B0E8C
:101DC0008987F801E657FF4F90819C8781E0911148
:101DD00080E08D87DF91CF911F910F910895CF9370
:101DE000C62F0E949B0EC15021E030E001C0220F9F
:101DF000CA95EAF7821BCF910895FC01E60FF11D09
:101E0000849190E0982F88273196E4918E0F911D50
:101E10000895CF93DF93EC01FC01849180937B04C0
:101E20003196E491E0937C04FE013296E491E093D4
:101E30007D04FE013396E491E0937E04FE01349626
:101E4000E491E0937F04FE013596E491E0938004F1
:101E5000FE013696E491E0938104FE013796E49109
:101E6000E0938204FE013896E491E0938304FE013E
:101E70003996E491E0938404FE013A96E491E0936C
:101E80008504FE013B96E491E0938604FE013C96B6
:101E9000E491E0938704FE013D96E491E093880489
:101EA000FE013E96E491E0938904FE013F96E491A1
:101EB000E0938A04FE017096E491E0938B0461E163
:101EC000CE010E94FD0E90938D0480938C0463E1FB
:101ED000CE010E94FD0E90938F0480938E0465E1E5
:101EE000CE010E94FD0E9093910480939004DF91A7
:101EF000CF910895EF92FF920F931F93CF93DF93AB
:101F0000FC01E65AFF4F20813181295E3F4F6F3F30
:101F1000710509F048F561367105D8F080589F4F7A
:101F2000FC0180819181280F391FC9010196FC01B4
:101F30004491442309F447C0F90144914617170618
:101F400071F40196DF91CF911F910F91FF90EF9067
:101F500008956134710548F382589F4FE1CFFC0129
:101F60008491280F311DE1CF8B01FC01EE57FF4F0B
:101F7000C081D181C20FD31F7E0160E0C7010E94E2
:101F8000FD0EC80FD91F62E0C7010E94FD0EF4E0EC
:101F9000EF0EF11C8017910780F3FE01849190E011
:101FA000982F88273196E4918E2B009761F00817BF
:101FB000190719F4CE010396C5CFFE013296E491BC
:101FC000CE0FD11DEACF90E080E0BCCFCF92DF9260
:101FD000FF920F931F93CF93DF931092740410928C
:101FE00026046C0180ECF82E10E000E0D0E0C0E0A8
:101FF000F60161916F01E0911004F09111048EE0FF
:1020000094E009958F3F980789F18E3F2FEF920753
:1020100079F3BC018EE094E00E947A0F009721F1E1
:10202000BC018EE094E00E94C60E609181048CE6B3
:1020300094E00E94EF0E80939604609182048CE6F7
:1020400094E00E94EF0E609183048CE694E00E947D
:10205000EF0E082F880F110B80ECF81202C0F090E1
:102060009604C00FD11FC4CF80E0F3CF2091740439
:10207000222399F080919604022E000C330B280F36
:10208000311D87FD3A95C20FD31FC01BD10B1F1402
:1020900024F4CF0DD11DF7FCDA95CE01DF91CF915D
:1020A0001F910F91FF90DF90CF9008958F929F9294
:1020B000AF92BF92CF92DF92EF92FF920F931F9356
:1020C000CF93DF93EC017B018A016901FC01E459A4
:1020D000FF4F8081813009F46FC008F462C0823004
:1020E00009F475C0833009F47DC0FE01E05AFF4F4A
:1020F000F182E082329611830083B601CE010E9404
:102100007A0F009709F4FFC07E012EE5E20EF11C64
:10211000BC01CE010E94C60EFE01E959FF4FB080FE
:102120003C966081C7010E94EF0E882EFE01EC589C
:10213000FF4F6081C7010E94EF0E082FFE01EB5890
:10214000FF4F6081C7010E94EF0EA82EF701908417
:1021500019140CF090C016850B0D0195212F402FFE
:10216000682D828193810E94090E6C01F70193838F
:102170008283212F402F682D848195810E94220E19
:10218000AC01F70195838483113009F484C0A8F170
:10219000123009F491C0133009F4A4C08C019601E7
:1021A00036C0FE01E45AFF4F0190F081E02DCE01D0
:1021B0000995080F191F99CFFE01E45AFF4F0190AE
:1021C000F081E02DCE010995E81AF90A8ECFFE01C3
:1021D000E45AFF4F0190F081E02DCE010995081BD4
:1021E000190B83CFFE01E45AFF4F0190F081E02DDF
:1021F000CE010995E80EF91E78CF9601290D311D03
:1022000097FC3A958C010B0D111DB7FC1A95B60180
:10221000CE010E94600C882371F1F70116821782AB
:102220008E0101591F4F6E01F0E7CF0ED11CF8014E
:102230006081C7010E949B0E882EF6016081C70154
:102240000E949B0E982E40E0682DCE010E943B0E0E
:1022500041E0692DCE010E943B0E61E0C7010E9462
:102260009B0E8111F0CFF70187818B1504F3C657C0
:10227000DF4F848588838A2DAA0C990BDF91CF913B
:102280001F910F91FF90EF90DF90CF90BF90AF9094
:102290009F908F90089581E090E08B199109B7FC91
:1022A000939596012F5F3F4F8A01090D111D97FCF1
:1022B0001A95C80ED91EABCF81E090E0BC01691918
:1022C000710997FC739596012F5F3F4F8B19910908
:1022D000B7FC93958A010F5F1F4F480F591FC60E19
:1022E000D71E95CF96012B0D311DB7FC3A9581E095
:1022F00090E08919910997FC93958A010F5F1F4F10
:10230000480F591F84CF90E080E0B8CFCF92DF9282
:10231000EF92FF920F931F93CF93DF93EC018B010A
:10232000109226047A01D12CC12CF70161917F0112
:10233000E0911004F09111048EE094E009958F3F34
:10234000980719F18E3F2FEF920779F39C01A801AE
:10235000BE018EE094E00E94561020917A04213054
:1023600059F038F0223059F0233061F0C80ED91EF0
:10237000DCCFC80FD91FFACF080F191FF7CFC81B22
:10238000D90BF4CF081B190BF1CFC601DF91CF9108
:102390001F910F91FF90EF90DF90CF900895CF9312
:1023A000DF93EC016BAFEEA9FFA90190F081E02D66
:1023B0000995EEA9FFA90280F381E02DCE01DF91FE
:1023C000CF910994AF92BF92CF92DF92EF92FF929A
:1023D0000F931F93CF93DF9300D000D01F92CDB700
:1023E000DEB78C01DC01DA96AC90DA97DB96EC90E4
:1023F000DB97ED91FC91B188FE2CD12CC12CD8013A
:10240000ED91FC9111978089D8962D913C911C8279
:10241000FD828B83B8E08B9FC00111248C9DA001AD
:102420008D9D500D9C9D500D1124240F351F3A8316
:102430002983D8011496ED91FC919E012F5F3F4FA7
:1024400041E06FE0C8010995F3948F2D8E198A152C
:1024500028F4BFEFCB1ADB0AFB1488F20F900F9021
:102460000F900F900F90DF91CF911F910F91FF90E0
:10247000EF90DF90CF90BF90AF900895CF92DF9212
:10248000EF92FF920F931F93CF93DF93EC01962F60
:10249000683109F44BC0B901993130F49431C9F075
:1024A000973189F080E006C0993109F461C090321B
:1024B000C9F781E0DF91CF911F910F91FF90EF90CD
:1024C000DF90CF90089550E086EB92E00E949F0746
:1024D000F0CF8C859D85AE85BF85892B8A2B8B2B74
:1024E00071F4E881F981A585B0E020EA36E841E0A1
:1024F00050E00E94271D6C877D878E879F871092F2
:102500003F0210923E0210924102109240020E943D
:10251000520883E797E0909369028093680284E70A
:1025200097E090936D0280936C02C3CF2C853D851C
:102530004E855F8560E074E284EF90E00E943A1D72
:1025400020513109410951095695479537952795ED
:102550002093B8008E8990E09595879591E09093AF
:102560001D028093CB011092410210924002A1CF34
:10257000D0914002D13208F093C0C091CB010E94AB
:10258000C2086B017C0180919002811164C082E0DD
:102590008093900281E0809392028FEF80938F026C
:1025A0001092B402D093B302ADEFB1E0E3E9F2E0F0
:1025B00080E0D8137CC01092B5028091B502CC0F98
:1025C000C82BC093B50280919102813009F073C08D
:1025D000109291020E94C2086B017C018091B502A9
:1025E0008093BB008091430290914402A0914502E8
:1025F000B0914602892B8A2B8B2B99F00E94C2083E
:10260000009143021091440220914502309146020C
:102610006C197D098E099F090617170728073907C6
:10262000D8F18091BC0083FDD9CF85EC8093BC00AC
:102630000E94C2086B017C01809190028230E9F116
:1026400080918F028F3F61F180918F02803241F142
:1026500080918F0225C08091430290914402A09105
:102660004502B0914602892B8A2B8B2B09F48BCF24
:102670000E94C20800914302109144022091450239
:10268000309146026C197D098E099F0906171707BC
:102690002807390708F077CF809142020E9470081E
:1026A000109241021092400210921D0202CF9D91A1
:1026B00091938F5F7ECF85EEB9CF80914302909149
:1026C0004402A0914502B0914602892B8A2B8B2BA4
:1026D00009F4B2CF0E94C208009143021091440253
:1026E00020914502309146026C197D098E099F099F
:1026F000061717072807390708F09ECFCDCF8F920E
:102700009F92AF92BF92CF92DF92EF92FF921F9370
:10271000CF93DF93EC016C32C8F46A3208F040C00A
:10272000683259F1693209F448C080E06034C8F178
:102730006F73FE01E60FF11D868D8F3F89F16031C9
:1027400008F06DC0642F0E9424082AC06D3209F47D
:1027500058C058F384EB860F823038F76F73C60F7A
:10276000D11D8E8D62E0411105C060E00E942408F9
:1027700061E08E8D0E94910813C07C012EE1E20E73
:10278000F11CD0E0F70181917F018F3F31F061E0D2
:10279000D03108F062E00E949108DF5FD63191F7F6
:1027A00081E0DF91CF911F91FF90EF90DF90CF906C
:1027B000BF90AF909F908F900895C42ED12CF12C94
:1027C000E12C0E94C2084B015C01C114D104E10458
:1027D000F10431F30E94C208681979098A099B093A
:1027E000683E73408105910580F3F1E0CF1AD1086E
:1027F000E108F10828EE820E23E0921EA11CB11C14
:10280000E4CF85E090E0433010F082E090E0880F64
:10281000991F880F991F05970197F1F7C1CF282FAE
:1028200030E0F901E155F34F8491F901E556F34F9A
:10283000F490F901E957F34F1491112379F08111C4
:102840000E94FB07E12FF0E0EE0FFF1FE759F34F67
:10285000A591B491EC91FE2281E009F480E0898F8A
:102860009FCFCF92DF92EF92FF92CF93DF93EC0155
:10287000603282E07807CCF5653B710514F064EBBB
:1028800070E0898128E830E0281B310987FD339505
:10289000220F331F220F331F6901330FEE08FF0889
:1028A0008A8128E532E0281B310987FD3395220F04
:1028B000331F220F331F032E000C440B550B2C1912
:1028C0003D094E095F09DB0177FF02C0B0E0A0E0DF
:1028D0000E94321D24EB30E040E050E00E94081DD1
:1028E000C20ED31EE41EF51EB601E881EC3070F571
:1028F000298188E890E0821B910927FD9395880F34
:10290000991F880F991F681779077CF02A8188E53D
:1029100092E0821B910927FD9395880F991F880FDC
:10292000991F681779070CF4CB010297880F991F3C
:102930004FB7F8942E2F30E0F901EE0FFF1FE20F92
:10294000F31FE15AFC4F928381834FBFDF91CF91F8
:10295000FF90EF90DF90CF9008951F93CF93DF9378
:10296000EC01162F88818C3008F04EC061E0812F79
:102970000E9491088881282F30E0F901EE0FFF1F97
:10298000E20FF31FE15AFC4F1F736081607C612BE3
:10299000608319821A822CE0622F0E946B1D829F35
:1029A000B001112430E020E0AB01420F531FFA01C7
:1029B000EE0FFF1FE40FF51FE15AFC4F908196FDCB
:1029C00016C02F5F3F4F2C30310571F781110FC0BA
:1029D0001092800082E08093810010928500109216
:1029E0008400B19A80916F00826080936F00E881CB
:1029F0008E2F90E0FC01EE0FFF1FE80FF91FE15A48
:102A0000FC4F8081806480838881DF91CF911F910A
:102A10000895CF92DF92EF92FF920F931F93CF937F
:102A2000DF936C01EB017B01E40EF51E10E000E08A
:102A3000CE15DF0561F06991D601ED91FC91019011
:102A4000F081E02DC6010995080F191FF1CFC801CB
:102A5000DF91CF911F910F91FF90EF90DF90CF907A
:102A60000895CF92DF92EF92FF920F931F93CF932F
:102A7000DF93EC016C0124E0C20ED11CFC01E05795
:102A8000FF4F0190F081E02DC60109958E3FEFEFD9
:102A90009E07D8F48E010C561F4FF80140815181DA
:102AA0007E01F2E9EF0EF11CF701608171819C015A
:102AB000C6010E945610C059DF4F28812130C1F055
:102AC00078F02230B9F02330E9F081E090E0DF9136
:102AD000CF911F910F91FF90EF90DF90CF900895CD
:102AE000F70120813181820F931F91838083EDCF85
:102AF000F801F7CFF70120813181281B390B318391
:102B00002083E3CFF801F7CF089590E080E00895A7
:102B100085ED8093BC008091430290914402A09186
:102B20004502B09146020796A11DB11D23E0B6955E
:102B3000A795979587952A95D1F72091BC0024FDFC
:102B400003C01092900208954091430250914402B4
:102B50006091450270914602452B462B472B69F345
:102B60000097A105B10541F02AE22A95F1F700C0CE
:102B70000197A109B109E1CF809142020C9470083C
:102B8000FC01A081B18150962C9182AD38E0839FE9
:102B9000C0011124289FA001299F500D112470E02D
:102BA00060E080AD91AD0C947D1D1F93CF93DF93BA
:102BB000EC010E94E2111BAD8AAD180FE881F9818A
:102BC0008189181768F0EC81FD8130E020E040E059
:102BD00060E1CE01099580E0DF91CF911F910895CA
:102BE000FE01E557FF4F8081882319F0CE010E9436
:102BF000C015612FCE010E94CF1181E0EDCFCF93A0
:102C0000DF93EC01FC01E557FF4F8081882319F029
:102C1000CE010E94C01560E0CE01DF91CF910C94EF
:102C2000CF11CF92DF92EF92FF920F931F93CF932A
:102C3000DF938EE094E00E94FF15CDE8D6E000E837
:102C400010E038E6E32E30E0F32E43E1C42E42E0FC
:102C5000D42E809100018130D1F58091680490914B
:102C600069048351924051F0D0926904C092680483
:102C700083E192E00E94090F0E940907D09311049A
:102C8000C093100480EA91E00E94E60FD0931104F3
:102C9000C09310049801281B390BC90137FD019618
:102CA00040EA51E06EE270E0959587950E948611AA
:102CB0008EE094E00E94D5158111CBCFDF91CF91AA
:102CC0001F910F91FF90EF90DF90CF900895823089
:102CD00079F780916804909169048856904051F08A
:102CE000F0926904E092680488E690E00E94090F7F
:102CF0000E940907D0931104C093100443ED51E0E2
:102D00006CE170E090E080E00E948611D0931104A5
:102D1000C093100480ED91E00E94E60FD09311045F
:102D2000C093100440ED51E06CE170E09801281B65
:102D3000390BC9010E948611D0931104C09310046D
:102D40008DEC91E00E94E60FD0931104C093100423
:102D50009801281B390BC90137FD01964DEC51E054
:102D60006FE370E0A1CF1F920F920FB60F92112464
:102D70002F933F934F935F936F937F938F939F9383
:102D8000AF93BF93EF93FF938091B900887F803614
:102D900009F44AC0F0F5883209F4A7C018F580316B
:102DA00009F49BC0B8F4882309F4F9C0883009F409
:102DB00094C0FF91EF91BF91AF919F918F917F91BF
:102DC0006F915F914F913F912F910F900FBE0F9098
:102DD0001F901895883109F488C0803251F780938C
:102DE0008F0214C0803409F49DC040F48033B9F3DD
:102DF0008833F9F680938F0285ECB0C0803509F4F2
:102E000085C0883509F496C0883499F60E948815E3
:102E1000D0CF883909F48CC038F5883729F050F4C0
:102E2000883611F0803729F683E080939002109263
:102E30008E0257C0883809F47BC0803919F0803879
:102E400009F0B7CF80918E02803208F071C0E09116
:102E50008E0281E08E0F80938E028091BB00F0E0A5
:102E6000E259FD4F80833DC0803B39F0E0F4803A69
:102E700009F479C0883A09F09CCF84E080939002ED
:102E800010926B0210926A02E0916802F09169025E
:102E9000099580916A0281110FC081E080936A02D6
:102EA0001092480209C0803C09F4A6CF883C09F47E
:102EB000A3CF883B09F07DCFE0916B0281E08E0FBC
:102EC00080936B02F0E0E85BFD4F80818093BB0054
:102ED00090916B0280916A0229C08091B502809323
:102EE000BB0085EC8093BC0064CF9091B4028091CC
:102EF000B302981758F5E091B40281E08E0F8093E9
:102F0000B402F0E0ED56FD4F8081E9CFE091B402CC
:102F100081E08E0F8093B4028091BB00F0E0ED560B
:102F2000FD4F80839091B4028091B3029817C8F24C
:102F300085E8D8CFE091B40281E08E0F8093B4028F
:102F40008091BB00F0E0ED56FD4F808380919202AE
:102F500081115CCF81E08093910284EA8093BC0070
:102F60001092900226CF85EC8093BC0010929002C4
:102F700080918E02803230F4E0918E02F0E0E259CE
:102F8000FD4F108260918E0270E0E0916C02F09132
:102F90006D028EE692E0099510928E020ACF109291
:102FA0008F0234CF1F920F920FB60F9211242F93DE
:102FB0003F938F939F93AF93BF938091F50190912F
:102FC000F601A091F701B091F8013091F40123E0EE
:102FD000230F2D3758F50196A11DB11D2093F40143
:102FE0008093F5019093F601A093F701B093F80157
:102FF0008091F9019091FA01A091FB01B091FC013F
:103000000196A11DB11D8093F9019093FA01A0933F
:10301000FB01B093FC01BF91AF919F918F913F91C4
:103020002F910F900FBE0F901F90189526E8230F39
:103030000296A11DB11DD2CF1F920F920FB60F9213
:1030400011242F933F934F935F936F937F938F93AD
:103050009F93AF93BF93EF93FF9382EC92E00E9414
:103060007109FF91EF91BF91AF919F918F917F91E6
:103070006F915F914F913F912F910F900FBE0F90E5
:103080001F9018951F920F920FB60F9211242F9335
:103090008F939F93EF93FF93E091D202F091D3022D
:1030A0008081E091D802F091D90282FD1BC090810D
:1030B0008091DB028F5F8F732091DC02821741F0D9
:1030C000E091DB02F0E0EE53FD4F958F8093DB0241
:1030D000FF91EF919F918F912F910F900FBE0F90C5
:1030E0001F9018958081F4CF1F920F920FB60F9208
:1030F00011242F933F934F935F936F937F938F93FD
:103100009F93AF93BF93CF93DF93EF93FF93809100
:10311000CA01C0918303D0E087FF24C010928500CC
:10312000109284008091CA018F5F8093CA018091C0
:10313000CA01082E000C990B8C179D0724F480916E
:10314000CA018C30C4F1809184009091850004966E
:1031500080349C4908F47AC0809184009091850065
:10316000049676C08091CA01082E000C990B8C172A
:103170009D07C4F6E091CA018E2FEE0F990BFC015A
:10318000EE0FFF1FE80FF91FE15AFC4F808186FF09
:10319000C9CFE091CA018E2FEE0F990BFC01EE0F03
:1031A000FF1FE80FF91FE15AFC4F808160E08F7329
:1031B0000E942408B7CF2091840030918500E091CF
:1031C000CA018E2FEE0F990BFC01EE0FFF1FE80FC7
:1031D000F91FE15AFC4F81819281820F931F9093D6
:1031E000890080938800E091CA018E2FEE0F990B21
:1031F000FC01EE0FFF1FE80FF91FE15AFC4F808121
:1032000086FF11C0E091CA018E2FEE0F990BFC01D1
:10321000EE0FFF1FE80FF91FE15AFC4F808161E0BC
:103220008F730E942408FF91EF91DF91CF91BF919E
:10323000AF919F918F917F916F915F914F913F914E
:103240002F910F900FBE0F901F90189580E49CE96E
:1032500090938900809388008FEF8093CA01E3CF19
:10326000CF931092B9021092B80288EE93E0A0E0DA
:10327000B0E08093BA029093BB02A093BC02B093DB
:10328000BD022EE631E03093B7022093B6021092D1
:10329000C5021092C4028093C6029093C702A09305
:1032A000C802B093C90280E891E09093C302809372
:1032B000C20285EC90E09093CF028093CE0284EC22
:1032C00090E09093D1028093D00280EC90E09093B4
:1032D000D3028093D20281EC90E09093D502809348
:1032E000D40282EC90E09093D7028093D60286ECD1
:1032F00090E09093D9028093D8021092DB02109252
:10330000DC021092DD021092DE0210920D04109287
:103310000C048DE896E090939B0480939A0410929D
:103320009D0410929C0410929F0410929E0410928F
:10333000260482E991E090930B0480930A04109292
:103340000F0410920E041092230410921A0410928B
:103350001B0410921C0410921D048FEF8093240410
:1033600080932804ECE2F4E082E494E0CFEFC19390
:103370008E179F07E1F78EE79AE0909313048093EE
:10338000120483E79BE090931504809314048EE36A
:1033900092E190931704809316048FE793E1909342
:1033A00019048093180430E020E040E069E08EE0EA
:1033B00094E00E947E0A109269041092680487E9E2
:1033C00096E0909343048093420484E893E09093C2
:1033D00047048093460481E0809348041092490496
:1033E000109277041092970410929304809398049B
:1033F000809399048AE991E0909345048093440472
:103400008EE094E00E940E0C109261041092600411
:1034100010926504109264048FEF9FEF9093630401
:10342000809362049093670480936604E09144045F
:10343000F09145040280F381E02D8EE094E009953F
:1034400086E097E090936B0480936A0410927A046C
:10345000C0933704C0933804C09339048091830328
:103460008C3050F591E0980F90938303809307047C
:1034700090E0FC01EE0FFF1FE80FF91FE15AFC4F2F
:1034800088EB9BE092838183809183038C30B8F436
:1034900091E0980F909383038093040490E0FC01E3
:1034A000EE0FFF1FE80FF91FE15AFC4F88EB9BE07E
:1034B00092838183CF910895C0930704E5CF8FEF66
:1034C00080930404F7CF789484B5826084BD84B57A
:1034D000816084BD85B5826085BD85B5816085BD0F
:1034E00080916E00816080936E00109281008091C7
:1034F000810082608093810080918100816080934F
:103500008100809180008160809380008091B10073
:1035100084608093B1008091B00081608093B0009E
:1035200080917A00846080937A0080917A00826032
:1035300080937A0080917A00816080937A008091F4
:103540007A00806880937A001092C100E091D202E4
:10355000F091D30282E08083E091CE02F091CF021D
:103560001082E091D002F091D1028FEC8083109212
:10357000DA02E091D602F091D70286E08083E091F2
:10358000D402F091D502808180618083E091D402E1
:10359000F091D502808188608083E091D402F0911F
:1035A000D502808180688083E091D402F091D502B9
:1035B00080818F7D808361E082E00E94910861E0DC
:1035C00087E00E94910861E088E00E94910861E034
:1035D0008AE00E94910861E08CE00E94910860E01E
:1035E00082E00E94240860E087E00E94240860E0F6
:1035F00088E00E94240860E08AE00E94240860E0DD
:103600008CE00E94240865E070E087E094E00E946E
:10361000AD1463E070E084E094E00E94AD1470E0CB
:1036200060E084E094E00E943114609101017091A7
:10363000020187E094E00E9431140E94E708609341
:10364000EA017093EB018093EC019093ED01E0911E
:103650001204F091130430E020E040E06AE08EE0D4
:1036600094E009958EE094E00E94FF158EE094E0CE
:103670000E94D5158111FACF60E08EE094E00E949F
:10368000CF11E0911204F091130430E020E040E00B
:103690006BE08EE094E0099581E0809300010E9448
:1036A000111600E010E082E0B82EC1E0D0E093E017
:1036B000E92EF12C22E0C22ED12C82EC92E00E9465
:1036C0005109181619060CF0D2C082EC92E00E9443
:1036D0002F098D3091F3E091E5018A3009F0BBC0EC
:1036E000AE2FB0E0AB52BE4F1C92EE23D9F0E130CA
:1036F00009F067C0E091D501E153E83098F40E2E4F
:10370000000CFF0BEA57F44E0C94771D8E1B951B93
:10371000971B9E1BA41BAB1BB11BC61B61E082E069
:103720000E9424081092E501C8CF60E0F8CF61E064
:1037300087E00E94240861E088E0F2CF60E087E043
:103740000E94240860E0F8CF61E08AE00E9424082B
:1037500061E08CE0E5CF60E08AE00E94240860E050
:10376000F8CF8091030190910401892BD9F6D09371
:103770000401C09303010E94E7086093EA0170937B
:10378000EB018093EC019093ED01CCCF8091F2019D
:103790009091F301892B31F66AE570E084E094E0C2
:1037A0000E9431140E94E7086093EE017093EF01CC
:1037B0008093F0019093F101D093F301C093F20153
:1037C000B1CFE23079F48091D501843309F0AACFEA
:1037D0008091D601843309F0A5CF109200010E9498
:1037E0001116A0CFE53009F09DCFE5EDF1E0819114
:1037F00080538A3008F096CF21E0EA3DF207B9F70E
:103800008091D5018093D3011092D4019091D6017B
:103810008091D701903389F48093D0011092D10127
:103820009091D8018091D901903371F48093CD01AA
:103830001092CE01B0920001D2CF9093D00180932C
:10384000D1011092D201ECCF9093CD018093CE01A3
:103850001092CF01EFCFEF3008F064CF91E09E0FD0
:103860009093E501F0E0EB52FE4F808326CF0E945B
:10387000E70820910301309104012230310509F459
:1038800074C02330310509F495C021303105E9F5C4
:103890004090EA015090EB016090EC017090ED01D6
:1038A0009B01AC01241935094609570929013A0140
:1038B00030E2431651046104710438F16093EA0167
:1038C0007093EB018093EC019093ED012091010145
:1038D000309102012D35310564F4B9016F5F7F4FDE
:1038E000709302016093010187E094E00E9431141B
:1038F0000CC06093E6017093E7018093E801909318
:10390000E901D0920401C09203010E94E7082091CE
:10391000F2013091F30121303105D9F44090EE01EC
:103920005090EF016090F0017090F10164197509F9
:1039300086099709643F71408105910550F070E058
:1039400060E084E094E00E9431141092F301109240
:10395000F2010115110509F4B0CE0E945D0988231A
:1039600009F4ABCE0E940000A8CE4090E601509032
:10397000E7016090E8017090E9019B01AC01241916
:1039800035094609570929013A0138EE431633E053
:1039900053066104710408F4B8CF6093EA01709390
:1039A000EB018093EC019093ED01F0920401E09221
:1039B0000301ABCF4090EA015090EB016090EC0125
:1039C0007090ED019B01AC01241935094609570996
:1039D00029013A0130E2431651046104710408F4EC
:1039E00094CF6093EA017093EB018093EC01909384
:1039F000ED016091010170910201161617061CF489
:103A0000615071096DCF10920401109203017DCFB6
:103A1000052E97FB1EF400940E941F1D57FD07D032
:103A20000E943A1D07FC03D04EF40C941F1D5095C4
:103A30004095309521953F4F4F4F5F4F089590959A
:103A40008095709561957F4F8F4F9F4F08950E948D
:103A50005C1DA59F900DB49F900DA49F800D911D9E
:103A600011240895B7FF0C94271D0E94271D821B67
:103A7000930B0895A1E21A2EAA1BBB1BFD010DC0DA
:103A8000AA1FBB1FEE1FFF1FA217B307E407F5070E
:103A900020F0A21BB30BE40BF50B661F771F881FEA
:103AA000991F1A9469F760957095809590959B0180
:103AB000AC01BD01CF010895A29FB001B39FC00129
:103AC000A39F700D811D1124911DB29F700D811D4A
:103AD0001124911D0895991B79E004C0991F961730
:103AE00008F0961B881F7A95C9F780950895EE0F08
:103AF000FF1F0590F491E02D0994DC0101C06D9346
:0C3B000041505040E0F70895F894FFCFCA
:103B0C00015D0003001815A015C019FF1815A115AB
:103B1C00C819FF1815AE19FF1815AF19FF1815AEF7
:103B2C0015D5168015A8163F15D316001540158D02
:103B3C0016141520160015A115C815DA16121581C4
:103B4C0016CF15D916F115DB1640152E15A415A692
:103B5C0019FF0001140A6464323200093D000004AC
:103B6C002896100802028000400000000000CC07DC
:103B7C009F078515750798078507760700000000D5
:103B8C009309F3082009E00951092F0943090000A2
:103B9C00000031150915851584150E0C990CDD0BDB
:063BAC00595552410000D2
:00000001FF
