:100000000C94F7080C941F090C941F090C941F09F9
:100010000C941F090C941F090C941F090C941F09C0
:100020000C941F090C941F090C941F090C947B1D40
:100030000C941F090C941F090C941F090C941F09A0
:100040000C94BA1B0C941F090C942A1C0C94041CCD
:100050000C941F090C941F090C941F090C941F0980
:100060000C945C1C0C941F0922002C2064617461A8
:100070003D22002C206C656E3D005B4F4C45442DAD
:10008000434F4D5D20002700272C206C696E6532A0
:100090002D63656E7465723D2700272C206C696E98
:1000A00065312D72696768743D27005B4F4C45448C
:1000B0002D52454E4445525D206C696E65312D6C64
:1000C0006566743D27005B4F4C45442D52454E44B8
:1000D00045525D206472617720626F6F7420746591
:1000E00078743A2059555241005B4F4C45442D528B
:1000F000454E4445525D206D6F64653D0000000033
:10010000002300260029005B4F4C45445D205368C6
:100110006F7720626F6F74206D6573736167653AE6
:10012000205955524100270020636861723D270025
:100130005B52582D425954455D2030780074696DEA
:10014000656F7574005B52585D2044656C696D691C
:100150007465722072656365697665642077686985
:100160006C652062756666657220656D7074792CA9
:100170002069676E6F7265640064656C696D69748F
:100180006572005B5741524E5D2053657269616C28
:1001900020627566666572206F766572666C6F7731
:1001A000202D3E20726573657420627566666572E7
:1001B000005B4143545D20536572766F5344636125
:1001C0007264206379636C6520444F4E45206174EE
:1001D00020484F4D45005B4143545D205365727686
:1001E0006F534463617264207761697420646F6E39
:1001F00065202D3E206D6F76696E6720746F2048F4
:100200004F4D45005B4143545D20536572766F53FB
:100210004463617264207265616368656420393388
:1002200020646567202D3E2077616974696E6720C0
:100230003173005B4143545D20536572766F4F6CA0
:1002400065642072657475726E656420746F2048F1
:100250004F4D4520302064656700000000002400F9
:1002600027002A0000000000250028002B000404BD
:10027000040404040404020202020202030303034E
:10028000030301020408102040800102040810202A
:100290000102040810200000000800020100000311
:1002A000040700000000000000002700272C205059
:1002B000333D2700272C2050323D27005B4F4C4513
:1002C000445D20352D6469676974207061727365BF
:1002D00064202D3E2050313D2700414354494F4E6C
:1002E0005F434C454152005B4F4C45445D20436C9D
:1002F0006561722073637265656E2028636F6D6D32
:10030000616E6420343429005B5741524E5D2032C7
:100310002D6368617220636F6D6D616E6420697317
:10032000206E6F7420273434272C2069676E6F721B
:1003300065640052454A4543545F4C454E325F4E1A
:100340004F545F3434004143434550545F434C4560
:1003500041525F34340052454345495645445F4C51
:10036000454E32005B4143545D20536572766F4FBA
:100370006C6564202D3E2039302064656720284458
:1003800033292C2077616974203530306D73005B20
:100390005741524E5D20556E6B6E6F776E206F6EBB
:1003A000652D6368617220636F6D6D616E642C20D2
:1003B00069676E6F726564005B5741524E5D204302
:1003C0006F6D6D616E64202738272069676E6F72CC
:1003D00065642C20536572766F4F6C65642073746E
:1003E000696C6C2062757379005B4143545D2043F6
:1003F0006F6D6D616E6420273827207265636569B3
:100400007665642C206F6C656453765374617465F3
:100410003D005B5741524E5D20436F6D6D616E64D0
:10042000202737272069676E6F7265642C2053651B
:1004300072766F53446361726420627573792C2005
:1004400073746174653D005B4143545D2053657274
:10045000766F534463617264206379636C652053E3
:1004600054415254202D3E206D6F76696E67207482
:100470006F20393320646567005B4143545D20532E
:100480006572766F466F6E7443616D202D3E203429
:1004900035206465672028443229005B4143545D60
:1004A00020536572766F466F6E7443616D202D3EEA
:1004B00020484F4D4520302064656720284432296C
:1004C000005B4143545D2052656C617942706C75EC
:1004D00073202D3E204F46462028443729005B419B
:1004E00043545D2052656C617942706C7573202DA8
:1004F0003E204F4E20284437290027005B50524FA2
:10050000434553535D204F6E652D636861722063D0
:100510006F6D6D616E643D27005B5741524E5D20EB
:10052000556E737570706F7274656420636F6D6D56
:10053000616E64206C656E6774682C2069676E6FED
:10054000726564005B5741524E5D20352D636861D2
:100550007220636F6D6D616E6420686173206E6FD1
:100560006E2D64696769742C2069676E6F726564AB
:100570000052454A4543545F4C454E355F4E4F4E01
:100580005F4449474954004143434550545F4C45FB
:100590004E355F44494749545300524543454956F7
:1005A00045445F4C454E35005B50524F43455353D5
:1005B0005D20446973706174636820636F6D6D6161
:1005C0006E64206C656E3D0022002C2064617461B5
:1005D0003D22002C206C656E3D005B52582D434D32
:1005E000445D20736F757263653D0012000404045E
:1005F00005040606102000FF1CF91B000000000087
:10060000018E2006001094012A16CB789E69E02006
:1006100021431E243974C445922182060E022B0FF9
:10062000BBB89C871C8D1E3C70438E22002C095346
:10063000F653C18490082D084B389DE103072E0A1C
:1006400034365461040911002F1ECE15949524519F
:100650002A89524994E8504A87523A944AA254123D
:10066000A592289544013017CE1594C91C2A352C23
:100670000A25C3FF7F96A8041B55E80C01310FC85B
:100680001B94899A2A1EAC2044FFFF073222CE1504
:1006900094AB1C2A352C0A912086B37324C2912472
:1006A0004A9264492A4B524A9252920F3E58331E44
:1006B000CE1594E1072B8992A49424A525CFA12CD3
:1006C0004B943E09878A449345E94A01341DCE156F
:1006D000946B284D87D274284D8752428808A131E7
:1006E000F4E6C107EB88D20D00351DCE1594E14F1D
:1006F000E9E91A262D0A9120868C289D224396A886
:10070000041B55E80C01361FCE1594C91C2A352C44
:100710000A25C394A66B98B428448218FE2C51096C
:1007200036AAD01902371BCE1594E1CF509120453F
:10073000944AA2B4244A4BA25496244A25519A01C1
:100740003823CE1594C91C2A352C0A912086CF1245
:100750001161A3480D13422488E1B34425D8A8426F
:100760006708003920CE1594C91C2A352C0A25C3E8
:100770009F912054A2099BA53445862C510936AA85
:10078000D019023A0BF3B654C18478C02604000095
:100790000004FFFF00006000040405060406061BB9
:1007A0002900F91CF91B00036A06D60A3920060045
:1007B000405006210D845B50857FD078C410110015
:1007C0002211A8E85B8E402186181921444818118F
:1007D00000233B8E53502622848810224288082111
:1007E00022A3888C1A4288082122241E7CB0660825
:1007F000212284881079F0C10A228488102242883C
:10080000082122A386901A428808210024286E54C9
:100810004E2EA2B43CA586092112C430A59668A527
:10082000262DAD942CD173C890912044848DB28331
:100830004469050025358E53509651240A8D38336E
:1008400062121247C614213486E850A26387121D33
:100850004AE950A26387121D4A66109132434E1036
:100860001931CD894125480D0126298E5350AE728C
:10087000A8142D214484D410A2D412255AD01C329D
:10088000642486912081640412363B5A6382CD220F
:10089000550A270BA3D85B8D1026448400281C67BB
:1008A0006B502641648890214286CCA031F41F0D04
:1008B0002243880C2132848200291E68EB508E412D
:1008C000A4488D22446A142152734568D48C281A96
:1008D000440D2142C304012A178BE179A681838448
:1008E0000C7990E4D011174986081A3808002B0FAC
:1008F0006BE1721E72347AF0C00D398A002C09A3A4
:10090000D84F051342222D088BE074860F1C2E0A47
:1009100064D85085112444002F1E8E5350569244A3
:10092000A9244A2551A243291D4AE9502A8952493E
:10093000944AA254120530188E53502673A8D4B08E
:1009400028940CFFFF59A2126C54A1330400310FFC
:10095000886B50266AAA78B08210FDFF1F32238E62
:100960005350AE72A8D4B028448218CECE91084716
:100970009228499225A92C4929494A493EF8600103
:10098000331F8E5350861FAC244A92529294963C49
:1009900087B22C51FA241C2A124D16A52B050034BF
:1009A0001D8E5350AEA1341D4AD3A1341D4A0921D6
:1009B0002284C6D09B071FAC234A3700351E8E53B6
:1009C00050863FA5A76B98B42844821832A2748A37
:1009D0000C59A2126C54A133040036208E535026B9
:1009E00073A8D4B028940C539AAE61D2A2100962B5
:1009F000F8B34425D8A842670800371C8E535086A8
:100A00003F43458214512A89D292282D8952599206
:100A100028954469060038238E53502673A8D4B015
:100A2000284482183E4B44848D22354C0891208600
:100A3000CF129560A30A9D210039218E5350267351
:100A4000A8D4B028940C7F46825089266C96D21484
:100A500019B24425D8A8426708003A0BE3D95205D9
:100A600013E2019B103B0D43DA500D14E1419B1042
:100A700012013C1609EA523E61A3C8942144D5B044
:100A80006194952A466C9C003D0D4D5972861F9CC1
:100A900007FBE083033E1509EA528680C3282B55E5
:100AA000D94465CA10A26A5840003F1C8E53502694
:100AB00073A8D4B028940C19512A0B564953FA7BC9
:100AC00008C70E160600405139D4ACCFF36D5F3E17
:100AD0001057B254D932A58B90424264549A118473
:100AE000D4A05983861A34D4A0A1060D3568A84134
:100AF000430D1A6AD05083861A34D4A0A106CD8340
:100B0000430F828C72438A4CA1F2C0CA032B0FECB4
:100B100081C807415F330241288E53502EA2B4345E
:100B20006877C8301B326CC8B021A3881022428875
:100B300008A189D430E164D89061238861460042DD
:100B40002D8E535086546B983021458214096223B0
:100B5000888D2036821409522498AC59C3845009D8
:100B6000522488E15724983051840C00431A8E5344
:100B7000502673A8D4B028940C53FAFF0C592A12AB
:100B80006C54A133040044178E535006456B98B43F
:100B900020950CFFFFAB072398AC51040045138E42
:100BA0005350863FA59F2A5AB30D51FAE9830F1679
:100BB00046118E5350863FA59F2A5AB30D51FA9F76
:100BC00002471B8E53502673A8D4B028940C53FAB6
:100BD00066CFF059A2124DD82C32310048108E53F6
:100BE000500662F83F7BF00362F83F234909845BBB
:100BF0005085FFC1014A138E535056FAFF3F458678
:100C00002C510936AAD019024B318E53500662A8D6
:100C100048102A418808193A214482140952C89080
:100C20009D3368C373C8909120458214114244CA11
:100C3000D08808A112A44810234C0E8E535006A24F
:100C4000F4FFFFD3071F2C4D218E535006629825C9
:100C5000D26809270FFEA004091424500C41220475
:100C60008910246190E1CF084E1F8E535006629880
:100C7000A54AA548A3356B98708282040A12487869
:100C8000B391AE32C38C004F188E53502673A8D444
:100C9000B028940CFFFF59A2126C54A133040050E9
:100CA0001E8E535086548A9830215482140962F85B
:100CB0008A04A1124C9828424694FE530051168E85
:100CC00053502673A8D4B028940CFFFF59A2126C7D
:100CD000162D52522E8E535006648A98302145822A
:100CE00054327C36821409264C14292233880C1D78
:100CF0008D214484101152434891204582D80862C6
:100D000004531C8E53502673A8D4B028940C53A2BD
:100D1000F59F1245862C510936AAD01902540E8E21
:100D20005350861FAC224AFFFFBF0255138E53500B
:100D30000662F8FFFF59A2126C54A1330400563426
:100D40008E53500662C8480C23316CC8B021A4866B
:100D500010224288CC20328306911944841011520B
:100D600043480D194662188961E8AE3368652D89DC
:100D70009202572B8E53500662F83312C3480C1B55
:100D80003226C8244226113205892123480C1941F4
:100D90006208FF0D11424408112134090058368EB3
:100DA00053500662C8480C1B428808213283061142
:100DB000214484D4906123886167D076C8909118CB
:100DC000366414114244084D4388082122C346105A
:100DD000434600592C8E53500662C8868C224288A6
:100DE00008A131148D21448214096223889D3B6738
:100DF000B24AA25412A59228D1A1940E250A005AF3
:100E0000228E5350861F2C25499424519244491216
:100E100025499424519244491225499424D1071F0D
:100E20002C5B0F886B50860F0CD1FFFFE8C10301CC
:100E30005C228D5B5086A124890E2549742849A225
:100E40002429254929494A49121D4A92E8509244C9
:100E500087125D0F886B50860F04D1FFFFE8C10336
:100E6000035E0EAAE05E1E52665010193168005FE4
:100E70000852404F860F0C600CC7685D06428446DE
:100E80004D34006127B05290AE92C9562D2245864E
:100E9000141952842953C4A60D0A22C4881023426F
:100EA0008C0831322F9E38322400621A8E5350063D
:100EB000A2F4A9A2354C5A144A86FF59A2072398D6
:100EC000AC5104006319AE52502673A8D4B02894D4
:100ED0000C53FA19B24425D8A84267080064178E4B
:100EE000535056FA919A252C1E0C4A86FF59A2128D
:100EF0004DD82C52651CAE52502673A8D4B02894FD
:100F00000CB3073F204AB330854AB05185CE10005C
:100F100066168E5350B682C752291A4329DD31E135
:100F20001551FA7F070067248ED34C26354B583C69
:100F300018940C67894AB0518519514ACFA961F1BB
:100F40006018660F46B05185060068138E53500630
:100F5000A2F4A9A2354C5A144A86FF3F236913868E
:100F60005B700D311385074784FEFFC444113203C3
:100F70006A176BE44C4681538687981CFDFFBF437C
:100F80003342499A5384006B2C8E535006A2F4339B
:100F9000542448912044840C9D1022428804A95472
:100FA000C852A552A4A808992264081121458214A8
:100FB0000962046C0F8753700532F4FFFF9B1346E0
:100FC000CA106D35B8529007558596247980E28114
:100FD0002353C8C81D23778CDC3172C7C81D237703
:100FE0008CDC3172C7C81D23778CDC3172C7C81DF9
:100FF00023778CDC3172036E11AE525006456B982C
:10100000B428940CFF7F46006F17AE52502673A889
:10101000D4B028940CFFB34425D8A84267080070C8
:101020001A8ED34C06456B98B428940CFFB3440F2A
:10103000463059A388287D0A0071178ED34C263577
:101040004B583C18940CFFB344259AB059A4947E95
:10105000720DAB52D0851F104147FFBF037323AD04
:101060005210A66288D4AC204482D40852480BA601
:101070004A8692E80852A8461022B24411BA4200A9
:101080007414894B701552F4CD83074648D1FFD5AF
:101090001943A5087511AE52500662F8FFB34425F6
:1010A0009AB059A4007627AE52500662989118362D
:1010B00064D81042440811214466D08C8810224222
:1010C0008808A921C3860CC39D418B00774DB95276
:1010D000900762E490911B41ACD89061A5880C2BDD
:1010E0004584902922844C8D217468A23384069D06
:1010F000214484C4184244488C19458404916143B6
:101100008690203664080962684610433362DCA189
:1011100083860E1A3A68CA10007829AE52500662C9
:1011200024860D214466D02022A4860C4367D02457
:10113000512A0D9A433664141142D31022326C04A2
:10114000310279318ED34C0E52444611194584D068
:10115000184263281A43680C2122A3888C22416C10
:1011600004B111C4CE5D6861C94A290B330C552AFC
:101170008404017A17AE5250861FAC245992CA8259
:1011800025A92C496549920F3E587B1E0A644EBE24
:1011900051850C1522463F1B46A8143162E5C88DC7
:1011A0002346BF2B65AADC007C09647C4E86FF07C2
:1011B000057D1F0A644E8671C44A1923378E187D37
:1011C00037CE1845A586D1CF861132548AD838003B
:1011D0007E0EAF50548641659A78334A08007F06E8
:1011E0000040500600000004FFFF0000521E1124C2
:1011F0001FBECFEFD8E0DEBFCDBF11E0A0E0B1E071
:10120000EEE0F5E402C005900D92AA3AB107D9F7D5
:1012100028E0AAEAB1E001C01D92AF32B207E1F7BF
:1012200018E0C7EFD8E004C02197FE010E947822A1
:10123000C63FD107C9F70E945E1F0C9485220C940B
:101240000000662329F06A3019F0862F90E0089597
:101250008FEF9FEF0895AF92BF92CF92DF92EF9200
:10126000FF920F93CF93DF93EC01DA017901942F72
:101270009770E1E0F0E09F01092E01C0220F0A946F
:10128000EAF7522F6E018AE8C80ED11CF601808160
:1012900040E0823018F4422F813049F15D01F8EFCF
:1012A000AF22E8ADF9AD28813981D90150968C91F2
:1012B0008A9D90018B9D300D1124620F731FDF01F9
:1012C000A60FB71F01111AC0EA0EFB1E8C91842BCA
:1012D00085278D93AE15BF05C9F7DF91CF910F918B
:1012E000FF90EF90DF90CF90BF90AF90089550E0C7
:1012F000D5CF440F550FE114F10479F33C91342B11
:1013000035273C939F5F9770E1E0EE1AF108911149
:10131000F0CF2CAD3DADA20FB31FF601808182301E
:1013200028F4813009F051E041E0E5CF51E0E3CF0E
:1013300080E0089590E080E00895CF93DF93C9E9BD
:10134000D7E08FAFEAADFBAD0190F081E02D8DE9E4
:1013500097E00995EAADFBAD0280F381E02D8DE9C0
:1013600097E0DF91CF9109949B01DC011896ED91F4
:10137000FC9141E067E10994833081F028F48130E9
:1013800099F08230A9F008958730A9F08830C9F02B
:101390008430B1F4809180008F7D03C08091800003
:1013A0008F7780938000089584B58F7784BD0895EA
:1013B00084B58F7DFBCF8091B0008F778093B00094
:1013C00008958091B0008F7DF9CF1F93CF93DF9365
:1013D000282F30E0F901EA56FD4F8491F901EE57CC
:1013E000FD4FD491F901E259FD4FC491CC23A9F0EE
:1013F000162F81110E94BC09EC2FF0E0EE0FFF1FA9
:10140000EC59FD4FA591B4918FB7F894EC9111115F
:1014100008C0D095DE23DC938FBFDF91CF911F9161
:101420000895DE2BF8CFCF93DF9390E0FC01EE57C9
:10143000FD4F249182599D4FFC0184918823D1F066
:1014400090E0880F991FFC01E65AFD4FA591B491D9
:10145000FC01EC59FD4FC591D491623071F49FB7F6
:10146000F8943C91822F809583238C93E8812E2BD6
:1014700028839FBFDF91CF9108958FB7F894EC91A7
:101480002E2B2C938FBFF6CF3FB7F8948091BF02DD
:101490009091C002A091C102B091C20226B5A89B52
:1014A00005C02F3F19F00196A11DB11D3FBFBA2FF6
:1014B000A92F982F8827BC01CD01620F711D811DB6
:1014C000911D42E0660F771F881F991F4A95D1F73B
:1014D00008952FB7F8946091BB027091BC0280917F
:1014E000BD029091BE022FBF089508950895AF9256
:1014F000BF92CF92DF92EF92FF920F931F93CF9301
:10150000DF936C017B018B01040F151FEB015E0162
:10151000AE18BF08C017D10759F06991D601ED91F7
:10152000FC910190F081E02DC6010995892B79F796
:10153000C501DF91CF911F910F91FF90EF90DF9048
:10154000CF90BF90AF900895FC01538D448D252F0F
:1015500030E0842F90E0821B930B541710F0CF964D
:10156000089501970895FC01918D828D981761F07F
:10157000A28DAE0FBF2FB11D5D968C91928D9F5F96
:101580009F73928F90E008958FEF9FEF0895FC0175
:10159000918D828D981731F0828DE80FF11D858D28
:1015A00090E008958FEF9FEF0895FC01918D228DBB
:1015B000892F90E0805C9F4F821B91098F73992740
:1015C000089587EE92E00E94D50A21E0892B09F464
:1015D00020E0822F089580E090E0892B29F00E947E
:1015E000E10A81110C9400000895FC01A48DA80F5C
:1015F000B92FB11DA35ABF4F2C91848D90E0019655
:101600008F739927848FA689B7892C93A089B18974
:101610008C91837080648C93938D848D981306C015
:101620000288F389E02D80818F7D80830895EF9279
:10163000FF920F931F93CF93DF93EC0181E0888F8C
:101640009B8D8C8D98131AC0E889F989808185FF5C
:1016500015C09FB7F894EE89FF896083E889F989FE
:1016600080818370806480839FBF81E090E0DF9100
:10167000CF911F910F91FF90EF900895F62E0B8D53
:1016800010E00F5F1F4F0F731127E02E8C8D8E110E
:101690000CC00FB607FCFACFE889F989808185FF75
:1016A000F5CFCE010E94F50AF1CFEB8DEC0FFD2FA7
:1016B000F11DE35AFF4FF0829FB7F8940B8FEA8930
:1016C000FB8980818062CFCF0F931F93CF93DF93ED
:1016D0008C01D0E0C0E0F801EC0FFD1F649166239F
:1016E00041F087EE92E00E94170B892B11F02196B2
:1016F000F2CFCE01DF91CF911F910F910895682F06
:1017000087EE92E00C94170BCF93DF93EC01888D5A
:101710008823B9F0AA89BB89E889F9898C9185FD6C
:1017200003C0808186FD0DC00FB607FCF7CF8C91FA
:1017300085FFF2CF808185FFEDCFCE010E94F50AB3
:10174000E9CFDF91CF910895DC011A96ED91FC91DC
:1017500030E020E00994DC011496ED91FC9130E03A
:1017600020E040E060E10994DC011696ED91FC91E7
:1017700030E020E040E069E10994DC011696ED914B
:10178000FC9130E020E040E068E109949A01DC013E
:101790001696ED91FC91462F67E10994EF92FF9226
:1017A0000F931F93CF93DF931F92CDB7DEB77C01CA
:1017B0008B01D8016C91673129F150F46531A0F4A7
:1017C0000F90DF91CF911F910F91FF90EF900895AF
:1017D0006A3118F16E3FA1F7F8014181498369E24E
:1017E000C7010E94A40B0BC0F80141814983D701B6
:1017F0001696ED91FC9130E020E0C70109950E5F4F
:101800001F4FD7CFF80181818983AE014F5F5F4FB2
:1018100061E0C7010E94C60BF2CF0F5F1F4FD701D7
:101820001696ED91FC9130E020E040E0C70109956B
:10183000C0CF462FDC011696ED91FC9130E020E000
:1018400066E10994462FDC011696ED91FC9130E09B
:1018500020E065E10994EF92FF920F931F93CF93DD
:10186000DF93EC01042F79016D3009F446C050F488
:101870006B30C9F1693009F49FC06A3009F465C062
:1018800080E05CC06E3009F44BC06F3099F70E9465
:10189000BD0BF7011381110F110F110F6C89160F7A
:1018A00060E4CE010E94220C612F62956F7060612E
:1018B000CE010E94220C612F6F70CE010E94190C84
:1018C000F7016481606BCE010E94190CF701408121
:1018D00051816281660F660F660FCE010E94C60BB2
:1018E0000150A1F727C064E171E0442311F06FE0DB
:1018F00071E0CE010E94CE0B20C0411109C068E00A
:1019000071E00E94CE0BE881F98182898C8B15C031
:1019100061E071E00E94CE0BE881F9818389F6CF06
:101920000E94BD0B61E8CE010E94220C602FCE0107
:101930000E94190CCE010E94B40B81E0DF91CF917F
:101940001F910F91FF90EF900895EA85FB8530E09D
:1019500020E040E068E2CE010995EE81FF8130E0B1
:1019600020E040E064E1CE01099541E06BE4CE0166
:101970000E94A40BE881F981448169E2CE010E94B2
:10198000A40B40E06BE4CE010E94A40BE881F98136
:10199000448169E2CE010E94A40B41E06BE4CE01D8
:1019A0000E94A40BE881F981458169E2CE010E9481
:1019B000A40B69E171E09DCF8EE491E09983888367
:1019C00082E0A4CFDC011896ED91FC9130E020E09C
:1019D00040E069E10994DC011896ED91FC9130E05A
:1019E00020E040E068E10994CF93DF931F92CDB7E8
:1019F000DEB76983BE016F5F7F4F0E94B4090F900D
:101A0000DF91CF910895EF92FF921F93CF93DF93D1
:101A1000EC01162F7A010E94EB0C60E4CE010E94CB
:101A2000F40CE885F9859701412F67E1CE0109950E
:101A3000CE01DF91CF911F91FF90EF900C94E20CBB
:101A4000EF92FF921F93CF93DF93EC01142F790154
:101A5000663181F138F4643109F44BC0653179F0B5
:101A600080E022C06831C9F150F16931C9F7809135
:101A7000A602882391F1CE010E94E20C2EC0809133
:101A8000A602882319F0CE010E94E20CCE010E942A
:101A9000EB0C60E0CE010E94F40C612FCE010E949D
:101AA000F40C81E08093A602DF91CF911F91FF900B
:101AB000EF900895642F0E94F40C81E0F5CF80919F
:101AC000A602882319F0CE010E94E20CA701193169
:101AD00038F4612FCE010E94030D1092A602EDCFC3
:101AE00068E1CE010E94030D185188E1E80EF11C57
:101AF000EDCF8E898F3F11F488E78E8BE885F985CD
:101B00009701412F64E1CE01DF91CF911F91FF90AA
:101B1000EF9009940F93FC01E85BFF4F0190F08177
:101B2000E02DDF01A41BB50BAD01FC01EA5BFF4F0B
:101B30000190F081E02DDF01A61BB70BBD01011163
:101B400013C041505109621B730BFC01E05CFF4F55
:101B50000190F081E02D4E1B5F0BDC01D496ED91DE
:101B6000FC9109950F910895013079F76150710941
:101B7000421B530BEACFCF93DF93FC01A081B181CD
:101B800082AD90E09C0143E0220F331F4A95E1F7BC
:101B900037AF26AF50962C91509748E0249F900184
:101BA000112435AF24AF23AD30E0B90153E0660F07
:101BB000771F5A95E1F7EF01C05CDF4F79836883A7
:101BC00051964C915197E901C80FD91F50E04C171D
:101BD0005D0718F4CA01821B930BEF01CE5BDF4F48
:101BE00079836883229623E0880F991F2A95E1F76D
:101BF000860F971F99838883229654968D919C9186
:101C0000559799838883E85BFF4F56968D919C91F9
:101C100091838083DF91CF9108950F931F93FC01EF
:101C2000E25BFF4F0190F081E02DDC01A05BBF4F34
:101C30000D90BC91A02D4A175B0740F4E017F10707
:101C400048F00417150730F080E019C0E017F107DD
:101C5000C0F3FACFFC01E65BFF4F40815181845B0A
:101C60009F4FFC01808191816817790758F481E0CA
:101C70004217530720F081E02617370728F71F91F6
:101C80000F91089542175307B0F3DECF2F923F9282
:101C90004F925F926F927F928F929F92AF92BF927C
:101CA000CF92DF92EF92FF920F931F93CF93DF9328
:101CB000CDB7DEB728970FB6F894DEBF0FBECDBF05
:101CC00098878F83865B9F4F9A838983FC0111825B
:101CD0001082EF81F885EA5BFF4F208031802F81F1
:101CE0003885245B3F4F3C832B83F901318220826E
:101CF000EF80F884FEE4EF0EF11CF70111821082F0
:101D0000EF81F885E85BFF4F40805180EF81F885D7
:101D1000EC5BFF4F208131814216530630F0C20147
:101D2000821B930BF70191838083EF81F885EE5B33
:101D3000FF4F20813181421A530A2F813885205B61
:101D40003F4F3E832D83F90151824082EF81F88518
:101D5000E85AFF4F60807180EF81F885EC5AFF4FA1
:101D6000A080B180EF81F885EA5AFF4FC080D18012
:101D7000EF81F885EE5AFF4F8080918083019501B5
:101D8000A601B4018F8198850E940D0E2F813885A0
:101D90002C573F4F38872F8381111BC0F9011082C8
:101DA00028960FB6F894DEBF0FBECDBFDF91CF915E
:101DB0001F910F91FF90EF90DF90CF90BF90AF9069
:101DC0009F908F907F906F905F904F903F902F905B
:101DD000089581E0EF81F88580838114910421F0DA
:101DE000E981FA8191828082A214B30420F4EB810C
:101DF000FC81B182A082F701808191818C159D05C3
:101E000010F4D182C0826414750450F6ED81FE8115
:101E100071826082C5CF0F93CF93DF93E02FDC01F7
:101E2000AC57BF4FFC91FF2309F460C02115310569
:101E300009F45CC02230310538F0023009F04AC0A4
:101E40006F5F7F4F621B730B0E2F0170E0FD52C05E
:101E5000FC01E25BFF4F0190F081E02D4E175F0720
:101E600008F444C0FC01E05BFF4F0190F081E02DDD
:101E70004E175F07D8F5FC01E45BFF4F0190F0813E
:101E8000E02DDC01A65BBF4F0D90BC91A02D260F6D
:101E9000371F2617370738F56E177F0718F59F018C
:101EA00021503109A217B30708F56A177B0708F418
:101EB000BD012E173F0708F4F901E61BF70BEC01F3
:101EC000AEA9BFA914960D90BC91A02D9F01FD0154
:101ED00009950CC0033009F0B7CF4F5F5F4F421B2D
:101EE000530BB2CFBD016E177F07E0F2DF91CF91A8
:101EF0000F910895FC01E65BFF4F0190F081E02D0A
:101F00006E177F0798F3FC01E45BFF4F0190F081AF
:101F1000E02D6E177F0750F7FC01E05BFF4F01904B
:101F2000F081E02DDC01A25BBF4F0D90BC91A02D94
:101F3000240F351F24173507A8F44E175F0788F4C0
:101F40009F0121503109A217B30780F64A175B079A
:101F500008F4AD012E173F0708F4F901E41BF50B57
:101F6000AECFAD014E175F0708F6EDCF213069F017
:101F700038F0223079F0840F911D47FD9A9508952D
:101F8000860F911D67FD9A950895841B910947FD61
:101F900093950895861B910967FD939508952130C7
:101FA00069F038F0223079F0861B910967FD93952E
:101FB0000895840F911D47FD9A950895860F911DF0
:101FC00067FD9A950895841B910947FD939508959F
:101FD0003F924F925F926F927F928F929F92AF92B9
:101FE000BF92CF92DF92EF92FF920F931F93CF9306
:101FF000DF937C01162F442EEC01C25ADF4F5E8026
:102000006F806C018AE8C80ED11C78847518312E57
:10201000711608F4372C8C809D800E85202F462D5C
:10202000652D8A819B810E94B60F5C01202F462D71
:10203000652DC4010E94CF0FAC01442079F08C853E
:10204000F6018083232D30E0B501C7010E940B0FFC
:10205000171548F017196394512CD7CF8B85811130
:10206000F7CF8D85EDCF150D1E836F82DF91CF9158
:102070001F910F91FF90EF90DF90CF90BF90AF90A6
:102080009F908F907F906F905F904F903F900895BA
:10209000DC011A964C911A97ED91FC9111972491BD
:1020A00030E0042E02C0359527950A94E2F7842F7C
:1020B000860F883068F031961196FC93EE93E49188
:1020C00098E0941B01C0EE0F9A95EAF72E2B8850EA
:1020D0001A968C938FEF9FEF01C0880F6A95EAF7ED
:1020E0008095822308950F931F93CF93DF938C01E4
:1020F000EC01C25ADF4F798368831A86FC01EF58DE
:10210000FF4F6081CE010E9448108887F801EE5889
:10211000FF4F6081CE010E9448108987F801E65781
:10212000FF4F90819C8781E0911180E08D87DF9146
:10213000CF911F910F910895CF93C62F0E94481001
:10214000C15021E030E001C0220FCA95EAF7821B9E
:10215000CF910895FC01E60FF11D849190E0982F36
:1021600088273196E4918E0F911D0895CF93DF93C8
:102170002091F7073091F8072817390709F490C024
:10218000EC019093F8078093F707FC01849180930A
:102190000A083196E491E0930B08FE013296E4912F
:1021A000E0930C08FE013396E491E0930D08FE01E4
:1021B0003496E491E0930E08FE013596E491E093A5
:1021C0000F08FE013696E491E0931008FE01379661
:1021D000E491E0931108FE013896E491E09312082F
:1021E000FE013996E491E0931308FE013A96E491DA
:1021F000E0931408FE013B96E491E0931508FE017C
:102200003C96E491E0931608FE013D96E491E0933C
:102210001708FE013E96E491E0931808FE013F96F0
:10222000E491E0931908FE017096E491E0931A0896
:1022300061E1CE010E94AA1090931C0880931B08B4
:1022400063E1CE010E94AA1090931E0880931D089E
:1022500065E1CE010E94AA109093200880931F0888
:102260008091F7079091F807892BD1F0809117089A
:1022700080932308409118084093240890912208E5
:10228000992371F0913079F490911908891714F419
:102290009093230880911A08841714F480932408DB
:1022A000DF91CF9108953091140820911608082EDF
:1022B000000C990B622F022E000C770B630F711D1F
:1022C00037FD7A95861797071CF4320F3093230851
:1022D000241734F720932408E3CFEF92FF920F9353
:1022E0001F93CF93DF93FC01E65AFF4F208131818A
:1022F000295E3F4F6F3F710509F048F56136710562
:10230000D8F080589F4FFC0180819181280F391FA0
:10231000C9010196FC014491442309F447C0F90125
:1023200044914617170671F40196DF91CF911F91E2
:102330000F91FF90EF9008956134710548F3825832
:102340009F4FE1CFFC018491280F311DE1CF8B011C
:10235000FC01EE57FF4FC081D181C20FD31F7E0118
:1023600060E0C7010E94AA10C80FD91F62E0C70130
:102370000E94AA10F4E0EF0EF11C8017910780F381
:10238000FE01849190E0982F88273196E4918E2B5E
:10239000009761F00817190719F4CE010396C5CF0D
:1023A000FE013296E491CE0FD11DEACF90E080E09D
:1023B000BCCFCF92DF92FF920F931F93CF93DF9307
:1023C000109203081092B5076C0180ECF82E10E013
:1023D00000E0D0E0C0E0F60161916F01E0919F075D
:1023E000F091A0078DE997E009958F3F980789F153
:1023F0008E3F2FEF920779F3BC018DE997E00E94A1
:102400006D11009721F1BC018DE997E00E947310D6
:10241000609110088BEF97E00E949C108093250834
:10242000609111088BEF97E00E949C106091120858
:102430008BEF97E00E949C10082F880F110B80EC07
:10244000F81202C0F0902508C00FD11FC4CF80E061
:10245000F3CF20910308222399F080912508022EC2
:10246000000C330B280F311D87FD3A95C20FD31F87
:10247000C01BD10B1F1424F4CF0DD11DF7FCDA952E
:10248000CE01DF91CF911F910F91FF90DF90CF9000
:1024900008958F929F92AF92BF92CF92DF92EF9268
:1024A000FF920F931F93CF93DF93EC017B018A017F
:1024B0006901FC01E459FF4F8081813009F46FC04C
:1024C00008F462C0823009F475C0833009F47DC01D
:1024D000FE01E05AFF4FF182E082329611830083C1
:1024E000B601CE010E946D11009709F4FFC07E0174
:1024F0002EE5E20EF11CBC01CE010E947310FE011C
:10250000E959FF4FB0803C966081C7010E949C1042
:10251000882EFE01EC58FF4F6081C7010E949C107D
:10252000082FFE01EB58FF4F6081C7010E949C10ED
:10253000A82EF701908419140CF090C016850B0D8D
:102540000195212F402F682D828193810E94B60F23
:102550006C01F70193838283212F402F682D8481A2
:1025600095810E94CF0FAC01F701958384831130D0
:1025700009F484C0A8F1123009F491C0133009F4B1
:10258000A4C08C01960136C0FE01E45AFF4F0190B1
:10259000F081E02DCE010995080F191F99CFFE019A
:1025A000E45AFF4F0190F081E02DCE010995E81A21
:1025B000F90A8ECFFE01E45AFF4F0190F081E02D21
:1025C000CE010995081B190B83CFFE01E45AFF4F7A
:1025D0000190F081E02DCE010995E80EF91E78CF2B
:1025E0009601290D311D97FC3A958C010B0D111D9B
:1025F000B7FC1A95B601CE010E940D0E882371F129
:10260000F701168217828E0101591F4F6E01F0E704
:10261000CF0ED11CF8016081C7010E944810882E9E
:10262000F6016081C7010E944810982E40E0682D95
:10263000CE010E94E80F41E0692DCE010E94E80F13
:1026400061E0C7010E9448108111F0CFF701878136
:102650008B1504F3C657DF4F848588838A2DAA0C17
:10266000990BDF91CF911F910F91FF90EF90DF9029
:10267000CF90BF90AF909F908F90089581E090E0B1
:102680008B199109B7FC939596012F5F3F4F8A01F3
:10269000090D111D97FC1A95C80ED91EABCF81E00C
:1026A00090E0BC016919710997FC739596012F5F41
:1026B0003F4F8B199109B7FC93958A010F5F1F4F0C
:1026C000480F591FC60ED71E95CF96012B0D311DF1
:1026D000B7FC3A9581E090E08919910997FC9395B0
:1026E0008A010F5F1F4F480F591F84CF90E080E091
:1026F000B8CFCF92DF92EF92FF920F931F93CF93B9
:10270000DF93EC018B011092B5077A01D12CC12C1B
:10271000F70161917F01E0919F07F091A0078DE99A
:1027200097E009958F3F980719F18E3F2FEF920799
:1027300079F39C01A801BE018DE997E00E9449123E
:1027400020910908213059F038F0223059F0233017
:1027500061F0C80ED91EDCCFC80FD91FFACF080F01
:10276000191FF7CFC81BD90BF4CF081B190BF1CFDA
:10277000C601DF91CF911F910F91FF90EF90DF90F5
:10278000CF900895AF92BF92CF92DF92EF92FF92D7
:102790000F931F93CF93DF9300D000D01F92CDB73C
:1027A000DEB78C01DC01DA96AC90DA97DB96EC9020
:1027B000DB97ED91FC91B188FE2CD12CC12CD80176
:1027C000ED91FC9111978089D8962D913C911C82B6
:1027D000FD828B83B8E08B9FC00111248C9DA001EA
:1027E0008D9D500D9C9D500D1124240F351F3A8353
:1027F0002983D8011496ED91FC919E012F5F3F4FE4
:1028000041E06FE0C8010995F3948F2D8E198A1568
:1028100028F4BFEFCB1ADB0AFB1488F20F900F905D
:102820000F900F900F90DF91CF911F910F91FF901C
:10283000EF90DF90CF90BF90AF9008958F929F92CE
:10284000AF92BF92CF92DF92EF92FF921F93CF93FE
:10285000DF93EC016C32C8F46A3208F040C0683291
:1028600059F1693209F448C080E06034C8F16F73EF
:10287000FE01E60FF11D868D8F3F89F1603108F072
:102880006DC0642F0E94E5092AC06D3209F458C05A
:1028900058F384EB860F823038F76F73C60FD11D63
:1028A0008E8D62E0411105C060E00E94E50961E0A3
:1028B0008E8D0E94130A13C07C012EE1E20EF11CE2
:1028C000D0E0F70181917F018F3F31F061E0D0319D
:1028D00008F062E00E94130ADF5FD63191F781E0D1
:1028E000DF91CF911F91FF90EF90DF90CF90BF903D
:1028F000AF909F908F900895C42ED12CF12CE12C95
:102900000E94440A4B015C01C114D104E104F104AA
:1029100031F30E94440A681979098A099B09683EC3
:1029200073408105910580F3F1E0CF1AD108E108E9
:10293000F10828EE820E23E0921EA11CB11CE4CF08
:1029400085E090E0433010F082E090E0880F991F1E
:10295000880F991F05970197F1F7C1CF282F30E015
:10296000F901EA56FD4F8491F901EE57FD4FF490BD
:10297000F901E259FD4F1491112379F081110E9460
:10298000BC09E12FF0E0EE0FFF1FE350FF4FA591D0
:10299000B491EC91FE2281E009F480E0898F9FCF11
:1029A00020913502260F3327331F21323105ECF4F5
:1029B00020917E02FC0190E080E0243069F082E00A
:1029C0000895A09135022191AC014B5E5D4FA40F9B
:1029D000B52FB11D2C930196861798F3809135027F
:1029E000680F6093350280E0089581E008951092A9
:1029F0007E0281E080937D021092580261E082E1C4
:102A00000E94E50961E083E10E94E509E9EBF0E05D
:102A100080818E7F808380818D7F808388E4809316
:102A2000B80085E48093BC000895CF93DF9391E0D4
:102A3000909314028823B9F0C091B800D091BA00E5
:102A40008091BC008A7B8093BC0060E082E10E94A0
:102A5000E50960E083E10E94E5090E94F714D09344
:102A6000BA00C093B800DF91CF9108950895E09126
:102A7000AE028091AD02E81730F4F0E0EC50FE4F6A
:102A8000808190E008958FEF9FEF08959091AE02BE
:102A90008091AD022FEF3FEF981748F4E92FF0E057
:102AA000EC50FE4F208130E09F5F9093AE02C90151
:102AB00008958091AD029091AE02891B990B089503
:102AC000CF92DF92EF92FF920F931F93CF93DF93FA
:102AD0007C01CB018A0120918402222389F0EB0141
:102AE0006B01C40ED51ECC15DD0569F06991D701C7
:102AF000ED91FC910190F081E02DC7010995F3CF94
:102B0000642F0E94D014C801DF91CF911F910F91C3
:102B1000FF90EF90DF90CF900895CF92DF92EF92E9
:102B2000FF920F931F93CF93DF93EC01962F6831A1
:102B300009F44BC0B901993130F49431C9F097319F
:102B400089F080E006C0993109F461C09032C9F77C
:102B500081E0DF91CF911F910F91FF90EF90DF9077
:102B6000CF90089550E084E893E00E946015F0CF84
:102B70008C859D85AE85BF85892B8A2B8B2B71F427
:102B8000E881F981A585B0E020EA36E841E050E02F
:102B90000E9428226C877D878E879F871092AE02C5
:102BA0001092AD021092AC021092AB020E94F71488
:102BB00085E79AE09093A8028093A70286E79AE0BF
:102BC0009093AA028093A902C3CF2C853D854E85A0
:102BD0005F8560E074E284EF90E00E943B22205128
:102BE0003109410951095695479537952795209305
:102BF000B8008E8990E09595879591E09093840236
:102C00008093A5021092AC021092AB02A1CFD0919A
:102C1000AB02D13208F093C0C091A5020E94440AD1
:102C20006B017C0180917E02811164C082E08093FF
:102C30007E0281E080937D028FEF80937C02109270
:102C40007B02D0937A02A5E8B2E0EAE5F2E080E008
:102C5000D8137CC01092590280915902CC0FC82B16
:102C6000C093590280915802813009F073C01092CC
:102C700058020E94440A6B017C01809159028093A2
:102C8000BB008091800290918102A0918202B0915C
:102C90008302892B8A2B8B2B99F00E94440A009186
:102CA00080021091810220918202309183026C197E
:102CB0007D098E099F090617170728073907D8F1DC
:102CC0008091BC0083FDD9CF85EC8093BC000E942D
:102CD000440A6B017C0180917E028230E9F180918F
:102CE0007C028F3F61F180917C02803241F18091C2
:102CF0007C0225C08091800290918102A091820285
:102D0000B0918302892B8A2B8B2B09F48BCF0E94E5
:102D1000440A009180021091810220918202309138
:102D200083026C197D098E099F090617170728076A
:102D3000390708F077CF80917F020E941515109215
:102D4000AC021092AB021092840202CF9D9191933B
:102D50008F5F7ECF85EEB9CF809180029091810206
:102D6000A0918202B0918302892B8A2B8B2B09F4CC
:102D7000B2CF0E94440A00918002109181022091FA
:102D80008202309183026C197D098E099F09061712
:102D900017072807390708F09ECFCDCFCF93DF93D1
:102DA0001F92CDB7DEB76983209184022223F9F008
:102DB0002091AB02203258F021E030E0FC01338357
:102DC000228390E080E00F90DF91CF910895809171
:102DD000AC02E82FF0E0EB57FD4F998190838F5FB5
:102DE0008093AC028093AB0281E090E0ECCF61E095
:102DF000CE0101960E94D014F7CFCF92DF92EF92CE
:102E0000FF92CF93DF93EC01603282E07807CCF53C
:102E1000653B710514F064EB70E0898128E830E0CF
:102E2000281B310987FD3395220F331F220F331FD3
:102E30006901330FEE08FF088A8128E532E0281B7C
:102E4000310987FD3395220F331F220F331F032EC5
:102E5000000C440B550B2C193D094E095F09DB0191
:102E600077FF02C0B0E0A0E00E94332224EB30E004
:102E700040E050E00E940922C20ED31EE41EF51E5F
:102E8000B601E881EC3070F5298188E890E0821B7A
:102E9000910927FD9395880F991F880F991F68172F
:102EA00079077CF02A8188E592E0821B910927FD51
:102EB0009395880F991F880F991F681779070CF44D
:102EC000CB010297880F991F4FB7F8942E2F30E04F
:102ED000F901EE0FFF1FE20FF31FE053FE4F928345
:102EE00081834FBFDF91CF91FF90EF90DF90CF9024
:102EF00008951F93CF93DF93EC01162F88818C30B8
:102F000008F04EC061E0812F0E94130A8881282FAB
:102F100030E0F901EE0FFF1FE20FF31FE053FE4F09
:102F20001F736081607C612B608319821A822CE0A0
:102F3000622F0E946C22829FB001112430E020E0B9
:102F4000AB01420F531FFA01EE0FFF1FE40FF51FF5
:102F5000E053FE4F908196FD16C02F5F3F4F2C30FF
:102F6000310571F781110FC01092800082E08093CB
:102F700081001092850010928400B19A80916F00B8
:102F8000826080936F00E8818E2F90E0FC01EE0F4D
:102F9000FF1FE80FF91FE053FE4F8081806480839C
:102FA0008881DF91CF911F910895CF92DF92EF92A8
:102FB000FF920F931F93CF93DF936C01EB017B0183
:102FC000E40EF51E10E000E0CE15DF0561F069911A
:102FD000D601ED91FC910190F081E02DC60109959B
:102FE000080F191FF1CFC801DF91CF911F910F91E9
:102FF000FF90EF90DF90CF900895CF92DF92EF9205
:10300000FF920F931F93CF93DF93EC016C0124E0A9
:10301000C20ED11CFC01E057FF4F0190F081E02D62
:10302000C60109958E3FEFEF9E07D8F48E010C562E
:103030001F4FF801408151817E01F2E9EF0EF11C32
:10304000F701608171819C01C6010E944912C0593B
:10305000DF4F28812130C1F078F02230B9F02330E1
:10306000E9F081E090E0DF91CF911F910F91FF9007
:10307000EF90DF90CF900895F70120813181820F8A
:10308000931F91838083EDCFF801F7CFF701208163
:103090003181281B390B31832083E3CFF801F7CF2F
:1030A000089590E080E00895EF92FF920F931F93B0
:1030B000CF93DF931F92CDB7DEB78DE997E00E94E3
:1030C000BD0B8CE9E82E81E0F82E8E01025F1F4FC8
:1030D000F70181917F0181110CC08DE997E00E9479
:1030E000B40B0F90DF91CF911F910F91FF90EF9054
:1030F0000895F80160810E5F1F4F6983833649F0A0
:10310000843661F0813621F78DE997E00E94190C31
:10311000DFCF8DE997E00E94220CDACFAE014F5F3E
:103120005F4F61E08DE997E00E94C60BD1CFFC01B3
:1031300001900020E9F73197AF01481B590BBC0102
:1031400087EE92E00C94770ACF93DF930E94640B92
:10315000EC018FE991E00E9497188C0F9D1FDF9181
:10316000CF9108950C94A4188F929F92AF92BF9222
:103170000F931F93CF93DF93CDB7DEB7A1970FB611
:10318000F894DEBF0FBECDBF19A2423008F44AE06A
:103190008E010F5D1F4F842E912CB12CA12CA50107
:1031A00094010E943B22E62FB901CA01EA30F4F4EF
:1031B000E05DD801EE938D01232B242B252B79F78D
:1031C00090E080E0109719F0CD010E949718A19629
:1031D0000FB6F894DEBF0FBECDBFDF91CF911F9128
:1031E0000F91BF90AF909F908F900895E95CE1CFD1
:1031F0000C9497180F931F93CF93C82F8B018AEDD0
:1032000095E00E94640BC8010E94640B83ED95E079
:103210000E94640B6C2F70E090E080E04AE00E9416
:10322000B4188AEC95E00E94640B87ED92E00E944E
:10323000F81888EC95E0CF911F910F910C94A41889
:10324000CF92DF92EF92FF92CF93DF936C01990FB1
:10325000EE08FF08F7FE1DC08DE20E947F0BEC0117
:1032600066277727CB016C197D098E099F094AE0F3
:103270000E94B418C80FD91F8FE991E00E949718D7
:103280008C0F9D1FDF91CF91FF90EF90DF90CF903B
:1032900008954AE0C701B6010E94B418EC01ECCFD2
:1032A000EF92FF920F931F93CF937C018B01C42F5A
:1032B0008AE790E00E94640BC7010E94640B83E7D9
:1032C00090E00E94640B6C2F70E090E080E04AE098
:1032D0000E94B4188AE690E00E94640BC8010E9424
:1032E000F81888E690E0CF911F910F91FF90EF9032
:1032F0000C94A418FC01A081B18150962C9182AD50
:1033000038E0839FC0011124289FA001299F500D00
:10331000112470E060E080AD91AD0C947E220F939B
:103320001F93CF93DF9389EE90E00E94640B60912E
:10333000000170E090E080E04AE00E94B4188FE95C
:1033400091E00E9497188DE997E00E947A19809188
:103350000001813091F586EC90E00E94A41886E986
:1033600097E00E94B610C1E2D9E0D093A007C093C5
:103370009F0782EA91E00E94D911D093A007C093E1
:103380009F0720E830E0A901481B590BCA0157FDEF
:10339000019642EA51E06EE270E0959587950E94B1
:1033A00079138DE997E00E94C2138DE997E0DF91D0
:1033B000CF911F910F910C94AB0B823091F78BEA58
:1033C00090E00E94640B89EC92E00E94F8188AE970
:1033D00090E00E94640B86EC92E00E94F81888E866
:1033E00090E00E94640B83EC92E00E94F81886E85B
:1033F00090E00E94A4188BEE95E00E94B61001E2C6
:1034000019E01093A00700939F0749EC52E06CE18C
:1034100070E090E080E00E9479131093A007009381
:103420009F0786EC92E00E94D9111093A0070093A9
:103430009F07C0E8D0E046EC52E06CE170E09E01EE
:10344000281B390BC9010E9479131093A007009320
:103450009F0783EC92E00E94D9111093A00700937C
:103460009F07AE01481B590BCA0157FD019643EC5B
:1034700052E06FE370E091CFCF93DF93C82F88EADB
:1034800095E00E94640B6C2F70E090E080E04AE0D1
:103490000E94B4188FE991E00E949718C13009F09A
:1034A0008FC0C091D7028CEF94E00E94640B8C2FE8
:1034B0000E947F0B8AEF94E00E94A418C33349F165
:1034C0003CF4C133A9F0C233E9F08FE893E016C0B1
:1034D000C73341F1C83309F447C0C433B1F76DE2D3
:1034E00070E080E997E00E94FD1689E794E006C04D
:1034F00061E087E00E94E5098EED94E0DF91CF91D5
:103500000C94B21860E087E00E94E50981EC94E039
:10351000F5CF70E060E080E997E00E94FD168BE94E
:1035200094E0ECCFC091D502D091D602209799F4C7
:1035300081E090E09093D6028093D5020E94690AC0
:103540006093D1027093D2028093D3029093D402FD
:1035500087E494E0D3CF82E194E00E94640BCE0133
:10356000DF91CF910C94201989EE93E00E94640BB7
:103570008091CF029091D0020E9420198091CF02B9
:103580009091D002892BC9F46AE570E083E997E055
:103590000E94FD160E94690A6093CB027093CC02D0
:1035A0008093CD029093CE0281E090E09093D00280
:1035B0008093CF0284E693E0A1CF88EB93E09ECF87
:1035C000C23071F542E067ED72E086E593E00E945B
:1035D00050198091D70242E067ED72E08433C9F45C
:1035E0008091D8028433A9F486E493E00E945019B4
:1035F0001092000187EE92E00E94B21842E067EA62
:1036000071E08AED92E00E945019DF91CF910C9405
:103610008F1983E393E00E94501988E093E06ECF06
:1036200089E195E0C53009F069CF45E067ED72E0CA
:103630008AE995E00E945019E7EDF2E0819180530C
:103640008A3008F055C082E0EC3DF807B9F745E054
:1036500067ED72E087E895E00E9450198091D702EB
:103660008093C9021092CA028091D802803381F5FA
:103670008091D9028093C6021092C7029091DA021B
:103680008091DB02903369F58093C3021092C402EB
:1036900082E0809300018CEB92E00E94640B89EC45
:1036A00092E00E94F81884EB92E00E94640B86EC92
:1036B00092E00E94F8188CEA92E00E94640B83EC7E
:1036C00092E00E94F8188AEA92E00E94A4189DCF26
:1036D0008093C6028091D9028093C7021092C802DB
:1036E000CDCF9093C3028093C4021092C502D0CF75
:1036F00045E067ED72E081E795E00E94501984E4AF
:1037000095E0FCCE85ED8093BC0080918002909185
:103710008102A0918202B09183020796A11DB11D82
:1037200023E0B695A795979587952A95D1F720918F
:10373000BC0024FD03C010927E02089540918002D7
:10374000509181026091820270918302452B462B39
:10375000472B69F30097A105B10541F02AE22A95AC
:10376000F1F700C00197A109B109E1CF80917F0273
:103770000C9415151F920F920FB60F9211242F93D0
:103780003F938F939F93AF93BF938091BB02909190
:10379000BC02A091BD02B091BE023091BA0223E0FA
:1037A000230F2D3758F50196A11DB11D2093BA02A4
:1037B0008093BB029093BC02A093BD02B093BE0263
:1037C0008091BF029091C002A091C102B091C2024B
:1037D0000196A11DB11D8093BF029093C002A093DA
:1037E000C102B093C202BF91AF919F918F913F915F
:1037F0002F910F900FBE0F901F90189526E8230F62
:103800000296A11DB11DD2CF1F920F920FB60F923B
:1038100011242F933F934F935F936F937F938F93D5
:103820009F93AF93BF93EF93FF9387EE92E00E9435
:10383000F50AFF91EF91BF91AF919F918F917F9189
:103840006F915F914F913F912F910F900FBE0F900D
:103850001F9018951F920F920FB60F9211242F935D
:103860008F939F93EF93FF93E091F702F091F8020B
:103870008081E091FD02F091FE0282FD1BC09081EB
:10388000809100038F5F8F7320910103821741F0B5
:10389000E0910003F0E0E951FD4F958F8093000324
:1038A000FF91EF919F918F912F910F900FBE0F90ED
:1038B0001F9018958081F4CF1F920F920FB60F9230
:1038C00011242F933F934F935F936F937F938F9325
:1038D0009F93AF93BF93EF93FF938091B900887F3D
:1038E000803609F44AC0F0F5883209F4A7C018F50B
:1038F000803109F49BC0B8F4882309F4F9C08830FA
:1039000009F494C0FF91EF91BF91AF919F918F9176
:103910007F916F915F914F913F912F910F900FBECB
:103920000F901F901895883109F488C0803251F7A4
:1039300080937C0214C0803409F49DC040F480332D
:10394000B9F38833F9F680937C0285ECB0C08035FA
:1039500009F485C0883509F496C0883499F60E9428
:10396000821BD0CF883909F48CC038F5883729F00C
:1039700050F4883611F0803729F683E080937E0278
:103980001092570257C0883809F47BC0803919F06B
:10399000803809F0B7CF80915702803208F071C0AB
:1039A000E091570281E08E0F809357028091BB0017
:1039B000F0E0E95CFD4F80833DC0803B39F0E0F4EE
:1039C000803A09F479C0883A09F09CCF84E080936A
:1039D0007E021092360210923502E091A702F09119
:1039E000A80209958091350281110FC081E0809372
:1039F00035021092150209C0803C09F4A6CF883C1C
:103A000009F4A3CF883B09F07DCFE091360281E035
:103A10008E0F80933602F0E0EB5EFD4F8081809345
:103A2000BB00909136028091350229C080915902E5
:103A30008093BB0085EC8093BC0064CF90917B02A7
:103A400080917A02981758F5E0917B0281E08E0F01
:103A500080937B02F0E0E65AFD4F8081E9CFE09150
:103A60007B0281E08E0F80937B028091BB00F0E0AF
:103A7000E65AFD4F808390917B0280917A029817DD
:103A8000C8F285E8D8CFE0917B0281E08E0F809369
:103A90007B028091BB00F0E0E65AFD4F808380916D
:103AA0007D0281115CCF81E08093580284EA80938B
:103AB000BC0010927E0226CF85EC8093BC00109251
:103AC0007E0280915702803230F4E0915702F0E09C
:103AD000E95CFD4F10826091570270E0E091A9020D
:103AE000F091AA0287E392E00995109257020ACF5B
:103AF00010927C0234CF1F920F920FB60F921124B6
:103B00002F933F934F935F936F937F938F939F93E5
:103B1000AF93BF93CF93DF93EF93FF938091CE0149
:103B2000C091CF01D0E087FF24C010928500109291
:103B300084008091CE018F5F8093CE018091CE0171
:103B4000082E000C990B8C179D0724F48091CE0150
:103B50008C30C4F18091840090918500049680346B
:103B60009C4908F47AC08091840090918500049665
:103B700076C08091CE01082E000C990B8C179D0702
:103B8000C4F6E091CE018E2FEE0F990BFC01EE0FE3
:103B9000FF1FE80FF91FE053FE4F808186FFC9CF5A
:103BA000E091CE018E2FEE0F990BFC01EE0FFF1F5F
:103BB000E80FF91FE053FE4F808160E08F730E9491
:103BC000E509B7CF2091840030918500E091CE01C6
:103BD0008E2FEE0F990BFC01EE0FFF1FE80FF91F60
:103BE000E053FE4F81819281820F931F9093890051
:103BF00080938800E091CE018E2FEE0F990BFC018F
:103C0000EE0FFF1FE80FF91FE053FE4F808186FF84
:103C100011C0E091CE018E2FEE0F990BFC01EE0F3B
:103C2000FF1FE80FF91FE053FE4F808161E08F73A3
:103C30000E94E509FF91EF91DF91CF91BF91AF9184
:103C40009F918F917F916F915F914F913F912F91B4
:103C50000F900FBE0F901F90189580E49CE99093F1
:103C60008900809388008FEF8093CE01E3CFFC0121
:103C70009091CF019C3098F481E0890F8093CF011F
:103C80009083892F90E0FC01EE0FFF1FE80FF91FD2
:103C9000E053FE4F88EB9BE09283818308958FEF82
:103CA00080830895CF931092EA021092E90288EE81
:103CB00093E0A0E0B0E08093EB029093EC02A0933D
:103CC000ED02B093EE022AE631E03093E802209351
:103CD000E70225EC30E03093F4022093F30224EC69
:103CE00030E03093F6022093F50220EC30E0309380
:103CF000F8022093F70221EC30E03093FA0220938F
:103D0000F90222EC30E03093FC022093FB0226EC17
:103D100030E03093FE022093FD02109200031092D7
:103D20000103109202031092030310928703109272
:103D300086038093880390938903A0938A03B093AA
:103D40008B038CE791E0909385038093840310921A
:103D50009C0710929B0781E299E090932A08809338
:103D6000290810922C0810922B0810922E081092FD
:103D70002D081092B5078EE891E090939A078093F2
:103D8000990710929E0710929D071092B207109209
:103D9000A9071092AA071092AB071092AC078FEFF9
:103DA0008093B3078093B707EBEBF7E081ED97E0E3
:103DB000CFEFC1938E179F07E1F78BE29CE09093C2
:103DC000A2078093A10780E29DE09093A4078093CF
:103DD000A3078DE895E19093A6078093A5078EE150
:103DE00094E19093A8078093A70730E020E040E09B
:103DF00069E08DE997E00E942B0C1092F807109271
:103E0000F7078BE299E09093D2078093D10780E97E
:103E100093E09093D6078093D50788E08093D707E7
:103E20001092D807109206081092260810922208C5
:103E300081E0809327088093280886E991E0909399
:103E4000D4078093D3078DE997E00E94BB0D1092B1
:103E5000F0071092EF071092F4071092F3078FEF1C
:103E60009FEF9093F2078093F1079093F60780936A
:103E7000F507E091D307F091D4070280F381E02D9C
:103E80008DE997E009958AE999E09093FA07809384
:103E9000F90710920908C093C607C093C707C093DB
:103EA000C80786E997E00E94371E83E997E00E94E1
:103EB000371E80E997E0CF910C94371E789484B533
:103EC000826084BD84B5816084BD85B5826085BD16
:103ED00085B5816085BD80916E00816080936E00A4
:103EE0001092810080918100826080938100809196
:103EF0008100816080938100809180008160809347
:103F000080008091B10084608093B1008091B00006
:103F100081608093B00080917A00846080937A0001
:103F200080917A00826080937A0080917A0081602B
:103F300080937A0080917A00806880937A00109252
:103F4000C100E091F702F091F802C2E0C083E09175
:103F5000F302F091F4021082E091F502F091F60282
:103F60008FEC80831092FF02E091FB02F091FC0243
:103F700086E08083E091F902F091FA02808180610D
:103F80008083E091F902F091FA0280818860808359
:103F9000E091F902F091FA02808180688083E091DB
:103FA000F902F091FA0280818F7D808361E087E0E1
:103FB0000E94130A60E087E00E94E50965E070E076
:103FC00086E997E00E94791763E070E083E997E063
:103FD0000E94791762E070E080E997E00E9479170B
:103FE00070E060E083E997E00E94FD1670E060E019
:103FF00080E997E00E94FD1670E060E086E997E0B6
:104000000E94FD160E94690A6093D1027093D20249
:104010008093D3029093D4021092AE021092AD021C
:104020001092AC021092AB020E94F71485E79AE05E
:104030009093A8028093A70286E79AE09093AA0241
:104040008093A902C093B80080E095E3ACE0B0E0B3
:104050008093A9079093AA07A093AB07B093AC07EE
:10406000E091A107F091A20730E020E040E06AE093
:104070008DE997E0099580912808882321F08DE942
:1040800097E00E947A1980E00E949D0909E917E0F3
:104090008DE997E00E94C213C091D8078091D7079D
:1040A000C80FE0919D07F0919E078189C81708F419
:1040B00081C08DE997E00E94AB0B80E00E949D09D2
:1040C000E091A107F091A20730E020E040E06BE032
:1040D0008DE997E009951F9280EF8F931F9285EDF0
:1040E0008F938CE991E09F938F931F930F930E947E
:1040F000541881E08093000187E091E00E94B2189B
:104100000E948F192DB73EB7285F3F4F0FB6F89426
:104110003EBF0FBE2DBFC0E0D0E003E010E082E064
:10412000E82EF12C87EE92E00E94D50A18161906A7
:104130000CF06CC087EE92E00E94B30AD82E80E3A8
:1041400091E00E94640B3FE03D1518F080E30E946F
:104150007F0B6D2D70E090E080E040E10E94B4188C
:1041600088E291E00E94640B80EE8D0D8F3570F532
:104170008D2D0E947F0B86E291E00E94A41880EDB5
:104180008D0D8A3060F50E94690A6093B0027093C9
:10419000B1028093B2029093B302E091AF02EF308C
:1041A000B8F481E08E0F8093AF02F0E0E952FD4F4A
:1041B000D082B8CF80912808882321F08DE997E03C
:1041C0000E947A198C2F0E949D0962CF8EE2D1CF76
:1041D00083E891E00E94B2181092AF02A3CF8091C1
:1041E000AF02882371F0E82FF0E0E952FD4F108212
:1041F00069E771E00E94FA188091AF020E943C1AB0
:10420000EBCF85E491E00E94B2188CCFD090AF0242
:10421000DD2019F10E94690A8090B0029090B102ED
:10422000A090B202B090B302681979098A099B097B
:10423000643671058105910580F0ED2DF0E0E952BD
:10424000FD4F10826DE371E08D2D0E94FA18809170
:10425000AF020E943C1A1092AF020E94690A20919C
:10426000D5023091D6022230310509F47BC02330CB
:10427000310509F49EC02130310581F58090D102CD
:104280009090D202A090D302B090D4029B01AC01D6
:10429000281939094A095B0949015A0130E2831694
:1042A0009104A104B104D0F06093D1027093D202C2
:1042B0008093D3029093D4022091B8023091B90236
:1042C0002D353105F4F5B9016F5F7F4F7093B90259
:1042D0006093B80286E997E00E94FD160E94690A81
:1042E0002091CF023091D00221303105F9F4809035
:1042F000CB029090CC02A090CD02B090CE02681973
:1043000079098A099B09643F71408105910570F024
:1043100070E060E083E997E00E94FD161092D00201
:104320001092CF0283E392E00E94B218209709F422
:10433000F9CE0E94E10A882309F4F4CE0E9400001D
:10434000F1CE6093B4027093B5028093B60290935D
:10435000B702F092D602E092D50284E092E00E9489
:10436000B218BCCF8090B4029090B502A090B60273
:10437000B090B7029B01AC01281939094A095B09C1
:1043800049015A0138EE831633E09306A104B104C3
:1043900008F4A4CF6093D1027093D2028093D30229
:1043A0009093D4021093D6020093D50286ED91E04B
:1043B000D6CF8090D1029090D202A090D302B0903C
:1043C000D4029B01AC01281939094A095B0949014A
:1043D0005A0130E283169104A104B10408F47ECF9F
:1043E0006093D1027093D2028093D3029093D4024F
:1043F0006091B8027091B902161617061CF461504C
:10440000710964CF1092D6021092D50281EB91E02F
:10441000A6CF052E97FB1EF400940E94202257FD84
:1044200007D00E943B2207FC03D04EF40C942022BC
:1044300050954095309521953F4F4F4F5F4F0895D0
:1044400090958095709561957F4F8F4F9F4F089500
:104450000E945D22A59F900DB49F900DA49F800D9A
:10446000911D11240895B7FF0C9428220E94282240
:10447000821B930B0895A1E21A2EAA1BBB1BFD0100
:104480000DC0AA1FBB1FEE1FFF1FA217B307E40733
:10449000F50720F0A21BB30BE40BF50B661F771F8B
:1044A000881F991F1A9469F760957095809590956B
:1044B0009B01AC01BD01CF010895A29FB001B39F44
:1044C000C001A39F700D811D1124911DB29F700D1D
:1044D000811D1124911D0895991B79E004C0991F35
:1044E000961708F0961B881F7A95C9F7809508954E
:1044F000EE0FFF1F0590F491E02D0994DC0101C03F
:0E4500006D9341505040E0F70895F894FFCFBE
:10450E00011815A015C019FF1815A115C819FF1807
:10451E0015AE19FF1815AF19FF1815AE15D5168063
:10452E0015A8163F15D316001540158D1614152017
:10453E00160015A115C815DA1612158116CF15D944
:10454E0016F115DB1640152E15A415A619FF000140
:10455E00140A6464323200093D00000428961008E3
:10456E0002028000400000000000170B770AA40A28
:10457E00840BD50AB30AC70A00000000CE166015D8
:10458E005118361559154615371500000000FD1740
:10459E00D51751185018BB0D460E8A0D6361000DCC
:0A45AE000A00595552410034340050
:00000001FF
