:100000000C94CF040C94F7040C94F7040C94F704AC
:100010000C94F7040C94F7040C94F7040C94F70474
:100020000C94F7040C94F7040C94F7040C9439190D
:100030000C94F7040C94F7040C94F7040C94F70454
:100040000C9497180C94F7040C9407190C94E1186D
:100050000C94F7040C94F7040C94F7040C94F70434
:100060000C9478170C94F704536572766F5265619F
:100070007243616D202D3E20343520646567005346
:100080006572766F5265617243616D202D3E20303E
:1000900020646567005B4143545D200053657276C0
:1000A0006F5265617243616D20616C726561647944
:1000B0002061742034352064656700536572766F63
:1000C0005265617243616D20616C72656164792073
:1000D0006174203020646567005B4143545D2000FB
:1000E0006D6F64653D636C656172005B4F4C4544A8
:1000F0002D52454E4445525D20002070333D002076
:1001000070323D005B4F4C45442D52454E444552A4
:100110005D206D6F64653D6469676974732070313B
:100120003D00536572766F4F6C6564206379636C34
:100130006520616C72656164792072756E6E696E9E
:10014000672C20636F6D6D616E642069676E6F72DE
:100150006564005B5741524E5D2000536572766FB7
:100160004F6C6564206D6F76656420746F20393044
:1001700020646567005B4143545D200053657276DF
:100180006F534463617264206379636C6520616CB2
:1001900072656164792072756E6E696E672C20637A
:1001A0006F6D6D616E642069676E6F726564005B70
:1001B0005741524E5D2000536572766F5344636120
:1001C0007264206379636C65207374617274656412
:1001D000005B4143545D200052656C617942706C54
:1001E0007573204F46460052656C617942706C759C
:1001F00073204F4E005B4143545D2000556E737574
:1002000070706F7274656420636F6D6D616E6420D1
:100210006C656E677468206F7220666F726D6174B2
:10022000005B5741524E5D2000352D64696769744B
:1002300020636F6D6D616E642061636365707465CA
:1002400064005B4F4C45442D434F4D5D2000352DE0
:100250006368617220636F6D6D616E642072656AA0
:10026000656374656420286E6F7420616C6C206413
:10027000696769747329005B4F4C45442D434F4DAA
:100280005D2000636F6D6D616E643D343420616389
:10029000636570746564202D3E20636C6561720037
:1002A0005B4F4C45442D434F4D5D2000556E6B6EAA
:1002B0006F776E20312D6368617220636F6D6D61A1
:1002C0006E64005B5741524E5D200036202D3E206B
:1002D000536572766F5265617243616D20574F525C
:1002E0004B20343520646567005B434D445D20003E
:1002F00035202D3E20536572766F526561724361E1
:100300006D20484F4D45203020646567005B434DAC
:10031000445D2000536572766F466F6E7443616D65
:10032000202D3E20343520646567005B4143545DD9
:100330002000536572766F466F6E7443616D202D99
:100340003E203020646567005B4143545D200022FD
:10035000005B50524F434553535D20636D643D2213
:1003600000220020636D643D22005B52582D434DF6
:10037000445D20736F757263653D000000000023CB
:10038000002600290066756C6C2D627566666572C4
:100390002C206932633D3430306B487A2C206469FC
:1003A00073706C61792D636C6F636B3D3078463090
:1003B0002C20636F6E74726173743D323535005B4F
:1003C0004F4C45442D434F4E4649475D2000426FF8
:1003D0006F7420636F6D706C657465643A2053654B
:1003E0007269616C20393630302C2052656C61792D
:1003F000204F46462C203420736572766F7320613F
:1004000074746163686564005B4143545D2000530C
:100410006572766F466F6E7443616D20686F6D65AF
:100420003D3020646567005B53455455505D2000A6
:10043000536572766F5265617243616D20617474A9
:100440006163686564206F6E204438005B534554D7
:1004500055505D2000272900202827005B52582D89
:10046000425954455D2030780052582062756666C6
:100470006572206F766572666C6F772C2064726F80
:100480007070696E672063757272656E7420636F39
:100490006D6D616E64005B5741524E5D2000536587
:1004A00072766F534463617264206379636C652074
:1004B000636F6D706C65746564005B4143545D20CF
:1004C00000536572766F5344636172642072657481
:1004D00075726E696E6720746F20686F6D65005B62
:1004E0004143545D2000536572766F5344636172DB
:1004F000642072656163686564206D617820616E57
:10050000676C652C2077616974696E67005B414395
:10051000545D2000536572766F4F6C656420726580
:100520007475726E656420746F2030206465670096
:100530005B4143545D200000000000240027002A96
:100540000000000000250028002B0004040404041F
:100550000404040202020202020303030303030170
:100560000204081020408001020408102001020447
:10057000081020000000080002010000030407002A
:100580000000000000000012000404050605060635
:10059000162F00FD26F6260000000000024220066D
:1005A0000080200E2A2130A23B6E84A913434644CA
:1005B00009120F4CB859878C8D8B0726489410432D
:1005C000461C61CA002B10EEA9275E25EBE8C10F7F
:1005D0005495AC23002C0D05A99D1B2348A8182376
:1005E0000B002D09AEA82C0E7FA0002E0CA5A8A0F4
:1005F0001B2348A81801002F2CD29C20DE1597AE93
:10060000B874C5A50B1B2E5DD870E9C2864B173692
:100610005CBAB0E1D2854B575CBAE2D215972E6C2A
:10062000B834003021D39C206E47D7B57AF3408888
:100630002913E656EAFFFF2FD7993065E4819857D2
:10064000EDD61A033114CAC4205E353273E4C103F7
:1006500016674AD5FFFFFF003232D39C207E65D754
:10066000B57AF340882913E64A94D487268416097C
:100670006AD87469C3A64B1B366DD87469C3A64B80
:100680001B365DDAB0E907FFA000332AD39C1F0EAA
:10069000FF4169C3A64B1B365DDAB0E9D256A34DC4
:1006A000AA18B5F1F2C5EB4F0632338104C9834075
:1006B000CE582203342AD39C206EC52B275E73E2CA
:1006C00035275E73E2352753AC4CB132C5CA1423CB
:1006D00054AA50A942A51EFC8392C5EB2B00352CD1
:1006E000D39C200EFF81F2FA49B9470FC23C10F2A9
:1006F00040C82913E64A94D4B2783D57A9E53A1385
:10070000A68C3C10F3AADDD263003631D39C206E58
:1007100066D7B57AF340882913E6566A5E4FCA3D1C
:100720007A10E6819007424E993057A2A4FECB750D
:10073000454C197920E655BBB5C6003729D39C2016
:100740000EFF81C20D4B142C51CE74F1D256172FCF
:100750006D75F1D256172F6D7569AB8B97B6BA7858
:1007600069AB4B023833D39C206E47D7B57AF34040
:10077000882913E656EA97EB4C9832F240CCAB56F8
:100780008FDE983252AE4449FD658972454C197925
:1007900020E655BBA5E6003935D39C206E47D7B57A
:1007A0007AF340882913E64A94D47F59A29C0953CE
:1007B000271E0C7920E641A077458AD73CA94A95A7
:1007C000EB4C9832F240CCAB766B8D013A12C5AA55
:1007D000A51B2348A8180F272348A81801000000CC
:1007E0000004FFFF000012000404040504060610C4
:1007F0002000FE1AF91A00000000000199200600EE
:10080000108C012A18CB568E69E0202143423C38D7
:1008100072E8C8832443420D1C04002B0EAAB68440
:1008200069DC6C1E3C1A370D002C0853D653214945
:10083000042D073A1685E1032E0733165421012FA4
:100840001DAD158C93E4482A47523992CA91548EB3
:10085000243992CA91548EA472244900301AAD15DD
:100860008CA9589A254552213367FFEF8E9D22515E
:10087000A4C49A648500310EA71B8C691A220F1636
:10088000CDFFFF003221AD158CA9589A25255421A2
:100890003367EE14897004A9244825412A09524976
:1008A00090E4830709331DBDF58BE183941452490D
:1008B000904A92E60E16253A9F0443546289AA9301
:1008C000C1003424AD158C6B24C9A123A91C3A9214
:1008D000CAA12329193466D0983164C69019F3E06F
:1008E00041BAA1730300351FAD158CE103A6F3A235
:1008F000D01216465221333774A6E68E9D2251A49B
:10090000C49A6485003621AD158CA9589A254552A4
:1009100021333A53354B58944975CEEE8E9D225172
:10092000A4C49A648500371DAE158CE177238691A7
:100930001846621849A2B4244A25515A12A57428AF
:100940002DC9013825AD158CA9589A2545529DB35E
:10095000DDB111644AAC49B3A4842A64E6AC3B76A9
:100960008A4491126B9215023923AD158CA9589ABD
:100970002545529DB377A7481429C1645189A19395
:100980009A3B768A4491126B9215023A09F3765497
:10099000213DE00400000004FFFF0000101A1124B4
:1009A0001FBECFEFD8E0DEBFCDBF11E0A0E0B1E0C9
:1009B000E0E4F2E402C005900D92AA3BB107D9F73A
:1009C00028E0AAEBB1E001C01D92A833B207E1F71D
:1009D00014E0CFECD4E004C02197FE010E94231E56
:1009E000CE3CD107C9F70E94211B0C941E210C9408
:1009F0000000662329F06A3019F0862F90E00895F0
:100A00008FEF9FEF0895AF92BF92CF92DF92EF9258
:100A1000FF920F93CF93DF93EC01DA017901942FCA
:100A20009770E1E0F0E09F01092E01C0220F0A94C7
:100A3000EAF7522F6E018AE8C80ED11CF6018081B8
:100A400040E0823018F4422F813049F15D01F8EF27
:100A5000AF22E8ADF9AD28813981D90150968C914A
:100A60008A9D90018B9D300D1124620F731FDF0151
:100A7000A60FB71F01111AC0EA0EFB1E8C91842B22
:100A800085278D93AE15BF05C9F7DF91CF910F91E3
:100A9000FF90EF90DF90CF90BF90AF90089550E01F
:100AA000D5CF440F550FE114F10479F33C91342B69
:100AB00035273C939F5F9770E1E0EE1AF1089111A2
:100AC000F0CF2CAD3DADA20FB31FF6018081823077
:100AD00028F4813009F051E041E0E5CF51E0E3CF67
:100AE00080E0089590E080E00895CF93DF93C6E919
:100AF000D7E08FAFEAADFBAD0190F081E02D8AE940
:100B000097E00995EAADFBAD0280F381E02D8AE91B
:100B100097E0DF91CF9109948091F4079091F507C8
:100B2000892BA1F180911408809320084091150829
:100B30004093210890911F08992341F1913069F465
:100B400090911608891714F4909320088091170843
:100B50008417E4F4809321080895309111082091BE
:100B60001308082E000C990B622F022E000C770B35
:100B7000630F711D37FD7A95861797071CF4320FA6
:100B800030932008241714F42093210808959B0122
:100B9000DC011896ED91FC9141E067E10994209108
:100BA000A102260F3327331F21323105ECF42091A7
:100BB000C702FC0190E080E0243069F082E00895F3
:100BC000A091A1022191AC0141585D4FA40FB52F16
:100BD000B11D2C930196861798F38091A102680F9E
:100BE0006093A10280E0089581E00895089508953A
:100BF0000895E091760280917502E81730F4F0E0F4
:100C0000EB5AFD4F808190E008958FEF9FEF08959C
:100C100090917602809175022FEF3FEF981748F47C
:100C2000E92FF0E0EB5AFD4F208130E09F5F909379
:100C30007602C90108958091750290917602891B10
:100C4000990B0895CF92DF92EF92FF920F931F932B
:100C5000CF93DF937C01CB018A01209154022223A0
:100C600089F0EB016B01C40ED51ECC15DD0569F0D2
:100C70006991D701ED91FC910190F081E02DC701C0
:100C80000995F3CF642F0E94CF05C801DF91CF9162
:100C90001F910F91FF90EF90DF90CF900895CF9329
:100CA000DF931F92CDB7DEB76983209154022223D0
:100CB000F9F020917702203258F021E030E0FC0179
:100CC0003383228390E080E00F90DF91CF910895ED
:100CD00080917802E82FF0E0EC5CFD4F99819083E1
:100CE0008F5F809378028093770281E090E0ECCF71
:100CF00061E0CE0101960E94CF05F7CF833081F0ED
:100D000028F4813099F08230A9F008958730A9F055
:100D10008830C9F08430B1F4809180008F7D03C0A9
:100D2000809180008F7780938000089584B58F77BD
:100D300084BD089584B58F7DFBCF8091B0008F77FF
:100D40008093B00008958091B0008F7DF9CF1F93FC
:100D5000CF93DF93282F30E0F901ED58FA4F8491BB
:100D6000F901E15AFA4FD491F901E55BFA4FC491C8
:100D7000CC23A9F0162F81110E947E06EC2FF0E003
:100D8000EE0FFF1FEF5BFA4FA591B4918FB7F89468
:100D9000EC91111108C0D095DE23DC938FBFDF9159
:100DA000CF911F910895DE2BF8CF1092C70281E0FA
:100DB0008093C9021092C80261E082E10E94A706F6
:100DC00061E083E10E94A706E9EBF0E080818E7F7D
:100DD000808380818D7F808388E48093B80085E460
:100DE0008093BC000895CF93DF9391E090937E02AF
:100DF0008823B9F0C091B800D091BA008091BC00AE
:100E00008A7B8093BC0060E082E10E94A70660E0DC
:100E100083E10E94A7060E94D506D093BA00C09332
:100E2000B800DF91CF910895CF93DF9390E0FC015C
:100E3000E15AFA4F2491855B9A4FFC0184918823F3
:100E4000D1F090E0880F991FFC01E95CFA4FA59161
:100E5000B491FC01EF5BFA4FC591D491623071F40B
:100E60009FB7F8943C91822F809583238C93E881DF
:100E70002E2B28839FBFDF91CF9108958FB7F894D1
:100E8000EC912E2B2C938FBFF6CF3FB7F894809127
:100E9000300290913102A0913202B091330226B516
:100EA000A89B05C02F3F19F00196A11DB11D3FBFA2
:100EB000BA2FA92F982F8827BC01CD01620F711D71
:100EC000811D911D42E0660F771F881F991F4A956B
:100ED000D1F708952FB7F89460912C0270912D02EC
:100EE00080912E0290912F022FBF0895AF92BF9252
:100EF000CF92DF92EF92FF920F931F93CF93DF93E6
:100F00006C017B018B01040F151FEB015E01AE1814
:100F1000BF08C017D10759F06991D601ED91FC9136
:100F20000190F081E02DC6010995892B79F7C50163
:100F3000DF91CF911F910F91FF90EF90DF90CF90B5
:100F4000BF90AF900895FC01538D448D252F30E064
:100F5000842F90E0821B930B541710F0CF960895C6
:100F600001970895FC01918D828D981761F0A28DF3
:100F7000AE0FBF2FB11D5D968C91928D9F5F9F73B9
:100F8000928F90E008958FEF9FEF0895FC01918D6F
:100F9000828D981731F0828DE80FF11D858D90E0DC
:100FA00008958FEF9FEF0895FC01918D228D892F79
:100FB00090E0805C9F4F821B91098F739927089561
:100FC00089EF92E00E94D40721E0892B09F420E008
:100FD000822F089580E090E0892B29F00E94E0079D
:100FE00081110C9400000895FC01A48DA80FB92F65
:100FF000B11DA35ABF4F2C91848D90E001968F7341
:101000009927848FA689B7892C93A089B1898C915F
:10101000837080648C93938D848D981306C00288AE
:10102000F389E02D80818F7D80830895EF92FF9278
:101030000F931F93CF93DF93EC0181E0888F9B8DFB
:101040008C8D98131AC0E889F989808185FF15C0B5
:101050009FB7F894EE89FF896083E889F9898081D8
:101060008370806480839FBF81E090E0DF91CF91A7
:101070001F910F91FF90EF900895F62E0B8D10E0C9
:101080000F5F1F4F0F731127E02E8C8D8E110CC038
:101090000FB607FCFACFE889F989808185FFF5CF83
:1010A000CE010E94F407F1CFEB8DEC0FFD2FF11D67
:1010B000E35AFF4FF0829FB7F8940B8FEA89FB89C0
:1010C00080818062CFCF0F931F93CF93DF938C01EA
:1010D000D0E0C0E0F801EC0FFD1F6491662341F001
:1010E00089EF92E00E941608892B11F02196F2CF29
:1010F000CE01DF91CF911F910F910895CF93DF9390
:10110000EC01888D8823B9F0AA89BB89E889F9891F
:101110008C9185FD03C0808186FD0DC00FB607FC54
:10112000F7CF8C9185FFF2CF808185FFEDCFCE0187
:101130000E94F407E9CFDF91CF910895DC011A9660
:10114000ED91FC9130E020E00994DC011496ED91E2
:10115000FC9130E020E040E060E10994DC0116966B
:10116000ED91FC9130E020E040E069E10994DC0180
:101170001696ED91FC9130E020E040E068E10994A2
:101180009A01DC011696ED91FC91462F67E10994D6
:10119000EF92FF920F931F93CF93DF931F92CDB7E0
:1011A000DEB77C018B01D8016C91673129F150F4D5
:1011B0006531A0F40F90DF91CF911F910F91FF90B7
:1011C000EF9008956A3118F16E3FA1F7F80141815F
:1011D000498369E2C7010E949E080BC0F801418162
:1011E0004983D7011696ED91FC9130E020E0C701CC
:1011F00009950E5F1F4FD7CFF80181818983AE011A
:101200004F5F5F4F61E0C7010E94C008F2CF0F5FE0
:101210001F4FD7011696ED91FC9130E020E040E0A1
:10122000C7010995C0CF462FDC011696ED91FC91C0
:1012300030E020E066E10994462FDC011696ED913E
:10124000FC9130E020E065E10994EF92FF920F936A
:101250001F93CF93DF93EC01042F79016D3009F4D4
:1012600046C050F46B30C9F1693009F49FC06A3050
:1012700009F465C080E05CC06E3009F44BC06F308B
:1012800099F70E94B708F7011381110F110F110F81
:101290006C89160F60E4CE010E941C09612F6295D3
:1012A0006F706061CE010E941C09612F6F70CE01CA
:1012B0000E941309F7016481606BCE010E9413093B
:1012C000F701408151816281660F660F660FCE0182
:1012D0000E94C0080150A1F727C064E171E04423D7
:1012E00011F06FE071E0CE010E94C80820C04111EA
:1012F00009C068E071E00E94C808E881F98182892C
:101300008C8B15C061E071E00E94C808E881F9810A
:101310008389F6CF0E94B70861E8CE010E941C09BC
:10132000602FCE010E941309CE010E94AE0881E019
:10133000DF91CF911F910F91FF90EF900895EA8573
:10134000FB8530E020E040E068E2CE010995EE81C7
:10135000FF8130E020E040E064E1CE01099541E00A
:101360006BE4CE010E949E08E881F981448169E224
:10137000CE010E949E0840E06BE4CE010E949E08D0
:10138000E881F981448169E2CE010E949E0841E032
:101390006BE4CE010E949E08E881F981458169E2F3
:1013A000CE010E949E0869E171E09DCF8EE491E03C
:1013B0009983888382E0A4CFDC011896ED91FC919B
:1013C00030E020E040E069E10994DC011896ED91FD
:1013D000FC9130E020E040E068E10994CF93DF9396
:1013E0001F92CDB7DEB76983BE016F5F7F4F0E944A
:1013F000C7050F90DF91CF910895EF92FF921F9351
:10140000CF93DF93EC01162F7A010E94E50960E487
:10141000CE010E94EE09E885F9859701412F67E129
:10142000CE010995CE01DF91CF911F91FF90EF90F2
:101430000C94DC09EF92FF921F93CF93DF93EC01A2
:10144000142F7901663181F138F4643109F44BC00D
:10145000653179F080E022C06831C9F150F169311D
:10146000C9F780910502882391F1CE010E94DC0921
:101470002EC080910502882319F0CE010E94DC095C
:10148000CE010E94E50960E0CE010E94EE09612FC5
:10149000CE010E94EE0981E080930502DF91CF9199
:1014A0001F91FF90EF900895642F0E94EE0981E054
:1014B000F5CF80910502882319F0CE010E94DC0946
:1014C000A701193138F4612FCE010E94FD09109255
:1014D0000502EDCF68E1CE010E94FD09185188E1B7
:1014E000E80EF11CEDCF8E898F3F11F488E78E8BCB
:1014F000E885F9859701412F64E1CE01DF91CF9115
:101500001F91FF90EF9009940F93FC01E85BFF4F50
:101510000190F081E02DDF01A41BB50BAD01FC01B2
:10152000EA5BFF4F0190F081E02DDF01A61BB70BB6
:10153000BD01011113C041505109621B730BFC0125
:10154000E05CFF4F0190F081E02D4E1B5F0BDC0152
:10155000D496ED91FC9109950F910895013079F79A
:1015600061507109421B530BEACFCF93DF93FC010B
:10157000A081B18182AD90E09C0143E0220F331F36
:101580004A95E1F737AF26AF50962C91509748E037
:10159000249F9001112435AF24AF23AD30E0B90171
:1015A00053E0660F771F5A95E1F7EF01C05CDF4FFC
:1015B0007983688351964C915197E901C80FD91FDF
:1015C00050E04C175D0718F4CA01821B930BEF0122
:1015D000CE5BDF4F79836883229623E0880F991FC3
:1015E0002A95E1F7860F971F998388832296549650
:1015F0008D919C91559799838883E85BFF4F569610
:101600008D919C9191838083DF91CF9108950F9369
:101610001F93FC01E25BFF4F0190F081E02DDC01A4
:10162000A05BBF4F0D90BC91A02D4A175B0740F403
:10163000E017F10748F00417150730F080E019C0F3
:10164000E017F107C0F3FACFFC01E65BFF4F4081E2
:101650005181845B9F4FFC018081918168177907DC
:1016600058F481E04217530720F081E0261737072E
:1016700028F71F910F91089542175307B0F3DECF5B
:101680002F923F924F925F926F927F928F929F9292
:10169000AF92BF92CF92DF92EF92FF920F931F9380
:1016A000CF93DF93CDB7DEB728970FB6F894DEBFA0
:1016B0000FBECDBF98878F83865B9F4F9A838983A8
:1016C000FC0111821082EF81F885EA5BFF4F2080D8
:1016D00031802F813885245B3F4F3C832B83F90178
:1016E00031822082EF80F884FEE4EF0EF11CF701D6
:1016F00011821082EF81F885E85BFF4F40805180B6
:10170000EF81F885EC5BFF4F208131814216530653
:1017100030F0C201821B930BF70191838083EF812C
:10172000F885EE5BFF4F20813181421A530A2F81E9
:101730003885205B3F4F3E832D83F90151824082E3
:10174000EF81F885E85AFF4F60807180EF81F8855E
:10175000EC5AFF4FA080B180EF81F885EA5AFF4F25
:10176000C080D180EF81F885EE5AFF4F8080918054
:1017700083019501A601B4018F8198850E94070B12
:101780002F8138852C573F4F38872F8381111BC0FD
:10179000F901108228960FB6F894DEBF0FBECDBFB8
:1017A000DF91CF911F910F91FF90EF90DF90CF903D
:1017B000BF90AF909F908F907F906F905F904F9071
:1017C0003F902F90089581E0EF81F8858083811408
:1017D000910421F0E981FA8191828082A214B304FC
:1017E00020F4EB81FC81B182A082F701808191819C
:1017F0008C159D0510F4D182C0826414750450F6D6
:10180000ED81FE8171826082C5CF0F93CF93DF930C
:10181000E02FDC01AC57BF4FFC91FF2309F460C0FF
:101820002115310509F45CC02230310538F0023051
:1018300009F04AC06F5F7F4F621B730B0E2F017060
:10184000E0FD52C0FC01E25BFF4F0190F081E02D12
:101850004E175F0708F444C0FC01E05BFF4F0190A6
:10186000F081E02D4E175F07D8F5FC01E45BFF4FD8
:101870000190F081E02DDC01A65BBF4F0D90BC9183
:10188000A02D260F371F2617370738F56E177F074D
:1018900018F59F0121503109A217B30708F56A17FF
:1018A0007B0708F4BD012E173F0708F4F901E61B7A
:1018B000F70BEC01AEA9BFA914960D90BC91A02D19
:1018C0009F01FD0109950CC0033009F0B7CF4F5FB0
:1018D0005F4F421B530BB2CFBD016E177F07E0F283
:1018E000DF91CF910F910895FC01E65BFF4F0190CE
:1018F000F081E02D6E177F0798F3FC01E45BFF4F4A
:101900000190F081E02D6E177F0750F7FC01E05B3E
:10191000FF4F0190F081E02DDC01A25BBF4F0D90E5
:10192000BC91A02D240F351F24173507A8F44E179E
:101930005F0788F49F0121503109A217B30780F691
:101940004A175B0708F4AD012E173F0708F4F901A9
:10195000E41BF50BAECFAD014E175F0708F6EDCFD8
:101960008A579F4FFC018081082E000C990B01962D
:101970000895213069F038F0223079F0840F911DFC
:1019800047FD9A950895860F911D67FD9A950895D4
:10199000841B910947FD93950895861B910967FD66
:1019A00093950895213069F038F0223079F0861B44
:1019B000910967FD93950895840F911D47FD9A95B0
:1019C0000895860F911D67FD9A950895841B9109CE
:1019D00047FD939508953F924F925F926F927F9249
:1019E0008F929F92AF92BF92CF92DF92EF92FF922F
:1019F0000F931F93CF93DF937C01162F442EEC019E
:101A0000C25ADF4F5E806F806C018AE8C80ED11C1D
:101A100078847518312E711608F4372C8C809D80CF
:101A20000E85202F462D652D8A819B810E94B90C41
:101A30005C01202F462D652DC4010E94D20CAC0103
:101A4000442079F08C85F6018083232D30E0B501A8
:101A5000C7010E94050C171548F017196394512C03
:101A6000D7CF8B858111F7CF8D85EDCF150D1E83D7
:101A70006F82DF91CF911F910F91FF90EF90DF90D8
:101A8000CF90BF90AF909F908F907F906F905F901E
:101A90004F903F900895DC011A964C911A97ED9162
:101AA000FC911197249130E0042E02C035952795C2
:101AB0000A94E2F7842F860F883068F031961196E9
:101AC000FC93EE93E49198E0941B01C0EE0F9A957D
:101AD000EAF72E2B88501A968C938FEF9FEF01C058
:101AE000880F6A95EAF78095822308950F931F93D4
:101AF000CF93DF938C01EC01C25ADF4F7983688367
:101B00001A86FC01EF58FF4F6081CE010E944B0DF9
:101B10008887F801EE58FF4F6081CE010E944B0D7F
:101B20008987F801E657FF4F90819C8781E09111EA
:101B300080E08D87DF91CF911F910F910895CF9312
:101B4000C62F0E944B0DC15021E030E001C0220F92
:101B5000CA95EAF7821BCF910895FC01E60FF11DAB
:101B6000849190E0982F88273196E4918E0F911DF3
:101B70000895CF93DF93EC01FC01849180930708D3
:101B80003196E491E0930808FE013296E491E093E7
:101B90000908FE013396E491E0930A08FE013496A9
:101BA000E491E0930B08FE013596E491E0930C0874
:101BB000FE013696E491E0930D08FE013796E4911C
:101BC000E0930E08FE013896E491E0930F08FE01C1
:101BD0003996E491E0931008FE013A96E491E0937F
:101BE0001108FE013B96E491E0931208FE013C9639
:101BF000E491E0931308FE013D96E491E09314080C
:101C0000FE013E96E491E0931508FE013F96E491B3
:101C1000E0931608FE017096E491E093170861E1E5
:101C2000CE010E94AD0D909319088093180863E1CE
:101C3000CE010E94AD0D90931B0880931A0865E1B8
:101C4000CE010E94AD0D90931D0880931C08DF917A
:101C5000CF910895EF92FF920F931F93CF93DF934D
:101C6000FC01E65AFF4F20813181295E3F4F6F3FD3
:101C7000710509F048F561367105D8F080589F4F1D
:101C8000FC0180819181280F391FC9010196FC0157
:101C90004491442309F447C0F901449146171706BB
:101CA00071F40196DF91CF911F910F91FF90EF900A
:101CB00008956134710548F382589F4FE1CFFC01CC
:101CC0008491280F311DE1CF8B01FC01EE57FF4FAE
:101CD000C081D181C20FD31F7E0160E0C7010E9485
:101CE000AD0DC80FD91F62E0C7010E94AD0DF4E031
:101CF000EF0EF11C8017910780F3FE01849190E0B4
:101D0000982F88273196E4918E2B009761F0081761
:101D1000190719F4CE010396C5CFFE013296E4915E
:101D2000CE0FD11DEACF90E080E0BCCFCF92DF9202
:101D3000FF920F931F93CF93DF931092000810929E
:101D4000B2076C0180ECF82E10E000E0D0E0C0E0BB
:101D5000F60161916F01E0919C07F0919D078AE97E
:101D600097E009958F3F980789F18E3F2FEF9207F3
:101D700079F3BC018AE997E00E942A0E009721F1CD
:101D8000BC018AE997E00E94760D60910D0888EF0A
:101D900097E00E949F0D8093220860910E0888EFC3
:101DA00097E00E949F0D60910F0888EF97E00E94D6
:101DB0009F0D082F880F110B80ECF81202C0F090D5
:101DC0002208C00FD11FC4CF80E0F3CF20910008BC
:101DD000222399F080912208022E000C330B280F49
:101DE000311D87FD3A95C20FD31FC01BD10B1F14A5
:101DF00024F4CF0DD11DF7FCDA95CE01DF91CF9100
:101E00001F910F91FF90DF90CF9008958F929F9236
:101E1000AF92BF92CF92DF92EF92FF920F931F93F8
:101E2000CF93DF93EC017B018A016901FC01E45946
:101E3000FF4F8081813009F46FC008F462C08230A6
:101E400009F475C0833009F47DC0FE01E05AFF4FEC
:101E5000F182E082329611830083B601CE010E94A6
:101E60002A0E009709F4FFC07E012EE5E20EF11C58
:101E7000BC01CE010E94760DFE01E959FF4FB080F2
:101E80003C966081C7010E949F0D882EFE01EC5890
:101E9000FF4F6081C7010E949F0D082FFE01EB5884
:101EA000FF4F6081C7010E949F0DA82EF70190840B
:101EB00019140CF090C016850B0D0195212F402FA1
:101EC000682D828193810E94B90C6C01F701938384
:101ED0008283212F402F682D848195810E94D20C0E
:101EE000AC01F70195838483113009F484C0A8F113
:101EF000123009F491C0133009F4A4C08C0196018A
:101F000036C0FE01E45AFF4F0190F081E02DCE0172
:101F10000995080F191F99CFFE01E45AFF4F019050
:101F2000F081E02DCE010995E81AF90A8ECFFE0165
:101F3000E45AFF4F0190F081E02DCE010995081B76
:101F4000190B83CFFE01E45AFF4F0190F081E02D81
:101F5000CE010995E80EF91E78CF9601290D311DA5
:101F600097FC3A958C010B0D111DB7FC1A95B60123
:101F7000CE010E94070B882371F1F70116821782A8
:101F80008E0101591F4F6E01F0E7CF0ED11CF801F1
:101F90006081C7010E944B0D882EF6016081C70148
:101FA0000E944B0D982E40E0682DCE010E94EB0C54
:101FB00041E0692DCE010E94EB0C61E0C7010E9457
:101FC0004B0D8111F0CFF70187818B1504F3C657B4
:101FD000DF4F848588838A2DAA0C990BDF91CF91DE
:101FE0001F910F91FF90EF90DF90CF90BF90AF9037
:101FF0009F908F90089581E090E08B199109B7FC34
:10200000939596012F5F3F4F8A01090D111D97FC93
:102010001A95C80ED91EABCF81E090E0BC016919BA
:10202000710997FC739596012F5F3F4F8B199109AA
:10203000B7FC93958A010F5F1F4F480F591FC60EBB
:10204000D71E95CF96012B0D311DB7FC3A9581E037
:1020500090E08919910997FC93958A010F5F1F4FB2
:10206000480F591F84CF90E080E0B8CFCF92DF9225
:10207000EF92FF920F931F93CF93DF93EC018B01AD
:102080001092B2077A01D12CC12CF70161917F0126
:10209000E0919C07F0919D078AE997E009958F3FB1
:1020A000980719F18E3F2FEF920779F39C01A80151
:1020B000BE018AE997E00E94060F209106082130B0
:1020C00059F038F0223059F0233061F0C80ED91E93
:1020D000DCCFC80FD91FFACF080F191FF7CFC81BC5
:1020E000D90BF4CF081B190BF1CFC601DF91CF91AB
:1020F0001F910F91FF90EF90DF90CF900895AF92D6
:10210000BF92CF92DF92EF92FF920F931F93CF93E4
:10211000DF9300D000D01F92CDB7DEB78C01DC0179
:10212000DA96AC90DA97DB96EC90DB97ED91FC9128
:10213000B188FE2CD12CC12CD801ED91FC911197C6
:102140008089D8962D913C911C82FD828B83B8E0CA
:102150008B9FC00111248C9DA0018D9D500D9C9DD5
:10216000500D1124240F351F3A832983D80114966A
:10217000ED91FC919E012F5F3F4F41E06FE0C80160
:102180000995F3948F2D8E198A1528F4BFEFCB1A79
:10219000DB0AFB1488F20F900F900F900F900F90B6
:1021A000DF91CF911F910F91FF90EF90DF90CF9033
:1021B000BF90AF900895CF92DF92EF92FF920F936E
:1021C0001F93CF93DF93EC01962F683109F44BC036
:1021D000B901993130F49431C9F0973189F080E038
:1021E00006C0993109F461C09032C9F781E0DF91EE
:1021F000CF911F910F91FF90EF90DF90CF900895B6
:1022000050E08DEE92E00E942206F0CF8C859D85F5
:10221000AE85BF85892B8A2B8B2B71F4E881F981E0
:10222000A585B0E020EA36E841E050E00E94D31DE9
:102230006C877D878E879F87109276021092750239
:1022400010927802109277020E94D50686EF95E0F0
:102250009093A00280939F0287EF95E09093A40251
:102260008093A302C3CF2C853D854E855F8560E0BA
:1022700074E284EF90E00E94E61D2051310941098B
:10228000510956954795379527952093B8008E8923
:1022900090E09595879591E0909354028093040285
:1022A0001092780210927702A1CFD0917702D132AA
:1022B00008F093C0C09104020E9445076B017C01A5
:1022C0008091C702811164C082E08093C70281E0DF
:1022D0008093C9028FEF8093C6021092EB02D093D5
:1022E000EA02A4E3B2E0EAECF2E080E0D8137CC0BA
:1022F0001092EC028091EC02CC0FC82BC093EC0240
:102300008091C802813009F073C01092C8020E9407
:1023100045076B017C018091EC028093BB008091AA
:102320007A0290917B02A0917C02B0917D02892B70
:102330008A2B8B2B99F00E94450700917A0210910D
:102340007B0220917C0230917D026C197D098E09FF
:102350009F090617170728073907D8F18091BC0095
:1023600083FDD9CF85EC8093BC000E9445076B01AB
:102370007C018091C7028230E9F18091C6028F3FD3
:1023800061F18091C602803241F18091C60225C080
:1023900080917A0290917B02A0917C02B0917D02A3
:1023A000892B8A2B8B2B09F48BCF0E944507009138
:1023B0007A0210917B0220917C0230917D026C198F
:1023C0007D098E099F09061717072807390708F0A6
:1023D00077CF809179020E94F306109278021092D2
:1023E00077021092540202CF9D9191938F5F7ECF1E
:1023F00085EEB9CF80917A0290917B02A0917C0208
:10240000B0917D02892B8A2B8B2B09F4B2CF0E94CD
:10241000450700917A0210917B0220917C02309155
:102420007D026C197D098E099F0906171707280779
:10243000390708F09ECFCDCF8F929F92AF92BF9277
:10244000CF92DF92EF92FF921F93CF93DF93EC0135
:102450006C32C8F46A3208F040C0683259F169320F
:1024600009F448C080E06034C8F16F73FE01E60FE4
:10247000F11D868D8F3F89F1603108F06DC0642FAA
:102480000E94A7062AC06D3209F458C058F384EBA5
:10249000860F823038F76F73C60FD11D8E8D62E0C4
:1024A000411105C060E00E94A70661E08E8D0E9488
:1024B000140713C07C012EE1E20EF11CD0E0F701FD
:1024C00081917F018F3F31F061E0D03108F062E00F
:1024D0000E941407DF5FD63191F781E0DF91CF9141
:1024E0001F91FF90EF90DF90CF90BF90AF909F90A3
:1024F0008F900895C42ED12CF12CE12C0E94450719
:102500004B015C01C114D104E104F10431F30E94D8
:102510004507681979098A099B09683E7340810556
:10252000910580F3F1E0CF1AD108E108F10828EE17
:10253000820E23E0921EA11CB11CE4CF85E090E046
:10254000433010F082E090E0880F991F880F991FA8
:1025500005970197F1F7C1CF282F30E0F901ED5829
:10256000FA4F8491F901E15AFA4FF490F901E55BD1
:10257000FA4F1491112379F081110E947E06E12F08
:10258000F0E0EE0FFF1FE558FC4FA591B491EC91E0
:10259000FE2281E009F480E0898F9FCFCF92DF9205
:1025A000EF92FF92CF93DF93EC01603282E07807E5
:1025B000CCF5653B710514F064EB70E0898128E887
:1025C00030E0281B310987FD3395220F331F220F7E
:1025D000331F6901330FEE08FF088A8128E532E0D6
:1025E000281B310987FD3395220F331F220F331F1C
:1025F000032E000C440B550B2C193D094E095F09A5
:10260000DB0177FF02C0B0E0A0E00E94DE1D24EBFA
:1026100030E040E050E00E94B41DC20ED31EE41E24
:10262000F51EB601E881EC3070F5298188E890E06C
:10263000821B910927FD9395880F991F880F991F79
:10264000681779077CF02A8188E592E0821B91095E
:1026500027FD9395880F991F880F991F6817790791
:102660000CF4CB010297880F991F4FB7F8942E2FC7
:1026700030E0F901EE0FFF1FE20FF31FE052FE4FB3
:10268000928381834FBFDF91CF91FF90EF90DF90D6
:10269000CF9008951F93CF93DF93EC01162F88817D
:1026A0008C3008F04EC061E0812F0E9414078881B1
:1026B000282F30E0F901EE0FFF1FE20FF31FE05269
:1026C000FE4F1F736081607C612B608319821A82C8
:1026D0002CE0622F0E94171E829FB001112430E06F
:1026E00020E0AB01420F531FFA01EE0FFF1FE40F72
:1026F000F51FE052FE4F908196FD16C02F5F3F4FB1
:102700002C30310571F781110FC01092800082E0EA
:10271000809381001092850010928400B19A80917C
:102720006F00826080936F00E8818E2F90E0FC0143
:10273000EE0FFF1FE80FF91FE052FE4F808180640B
:1027400080838881DF91CF911F910895CF92DF928E
:10275000EF92FF920F931F93CF93DF936C01EB01E6
:102760007B01E40EF51E10E000E0CE15DF0561F000
:102770006991D601ED91FC910190F081E02DC601A7
:102780000995080F191FF1CFC801DF91CF911F9153
:102790000F91FF90EF90DF90CF900895CF92DF924E
:1027A000EF92FF920F931F93CF93DF93EC016C0195
:1027B00024E0C20ED11CFC01E057FF4F0190F081D4
:1027C000E02DC60109958E3FEFEF9E07D8F48E01EC
:1027D0000C561F4FF801408151817E01F2E9EF0E46
:1027E000F11CF701608171819C01C6010E94060FF6
:1027F000C059DF4F28812130C1F078F02230B9F084
:102800002330E9F081E090E0DF91CF911F910F91AB
:10281000FF90EF90DF90CF900895F70120813181F4
:10282000820F931F91838083EDCFF801F7CFF701DB
:1028300020813181281B390B31832083E3CFF801BC
:10284000F7CF089590E080E00895FC01019000200A
:10285000E9F73197AF01481B590BBC0189EF92E0B2
:102860000C947607CF93DF930E946308EC018CE908
:1028700091E00E9425148C0F9D1FDF91CF91089548
:10288000CF93DF93EB010E946308CE01DF91CF91DC
:102890000C943214CF939091000198130BC06CE903
:1028A00070E0911102C06BEB70E089ED90E0CF9188
:1028B0000C944014C82F682F70E082E398E00E94C7
:1028C000CE12C093000168E670E0C11102C06FE74C
:1028D00070E085E990E0EBCF8F929F92AF92BF922C
:1028E0000F931F93CF93DF93CDB7DEB7A1970FB6AA
:1028F000F894DEBF0FBECDBF19A2423008F44AE003
:102900008E010F5D1F4F842E912CB12CA12CA5019F
:1029100094010E94E61DE62FB901CA01EA30F4F4E1
:10292000E05DD801EE938D01232B242B252B79F725
:1029300090E080E0109719F0CD010E942514A19637
:102940000FB6F894DEBF0FBECDBFDF91CF911F91C0
:102950000F91BF90AF909F908F900895E95CE1CF69
:10296000EF92FF920F931F93CF93DF931F92CDB7F8
:10297000DEB78AE997E00E94B7088FE9E82E81E088
:10298000F82E8E01025F1F4FF70181917F018111A7
:102990000CC08AE997E00E94AE080F90DF91CF91BA
:1029A0001F910F91FF90EF900895F80160810E5FE5
:1029B0001F4F6983833649F0843661F0813621F7F1
:1029C0008AE997E00E941309DFCF8AE997E00E9425
:1029D0001C09DACFAE014F5F5F4F61E08AE997E0F3
:1029E0000E94C008D1CF85ED8093BC0080917A020F
:1029F00090917B02A0917C02B0917D020796A11D6F
:102A0000B11D23E0B695A795979587952A95D1F79F
:102A10002091BC0024FD03C01092C702089540918C
:102A20007A0250917B0260917C0270917D02452B6D
:102A3000462B472B69F30097A105B10541F02AE227
:102A40002A95F1F700C00197A109B109E1CF809162
:102A500079020C94F306FC01A081B18150962C916F
:102A600082AD38E0839FC0011124289FA001299FD7
:102A7000500D112470E060E080AD91AD0C94291EE2
:102A80008AE997E00E942B158AE997E00E947F105F
:102A90008AE997E00E94A50860EE70E08BEE90E076
:102AA0000C9440145F926F927F928F929F92AF929C
:102AB000BF92CF92DF92EF92FF920F931F93CF932B
:102AC000DF93CDB7DEB728970FB6F894DEBF0FBE01
:102AD000CDBF20911A0230911B022115310509F456
:102AE0007BC08C01265F3D4FF90110828AE693E09E
:102AF0000E946308C8010E94251483E693E00E94A7
:102B000063088AE092E00E94251481E693E00E9427
:102B100032140AE012E0F80101900020E9F78F0179
:102B20000B50124081E593E00E9463088AE092E036
:102B30000E9425148FE493E00E94321401301105A5
:102B400009F0B1C0E0910A02E153E83008F0A6C0F4
:102B50000E2E000CFF0BE155FA4E0C94231EB715F8
:102B6000C215C915D415DF1502160A162D1661E017
:102B700087E00E94A70667EE71E085EF91E00E9472
:102B8000401426C060E087E00E94A70668ED71E06F
:102B9000F4CF70E060E085E398E00E94CE1262E33B
:102BA00073E088E493E0EBCF6DE270E085E398E0BA
:102BB0000E94CE1264E173E08BE293E0E0CF60EF1D
:102BC00072E08DE093E00E94401480E00E944A147D
:102BD00010921B0210921A0228960FB6F894DEBFCC
:102BE0000FBECDBFDF91CF911F910F91FF90EF905E
:102BF000DF90CF90BF90AF909F908F907F906F901D
:102C00005F9008956BEC72E089EE92E00E944014B0
:102C10008DE2DCCF80912502882329F06CE771E0FA
:102C20008FEA91E0ACCF1092200270E060E08FE27A
:102C300098E00E94CE1281E0809325020E946A07EC
:102C400060932102709322028093230290932402C6
:102C500067EB71E081ED91E092CF80912A028823A9
:102C600029F062E271E083E591E089CF6AE570E0E6
:102C70008CE298E00E94CE1281E080932A020E94AA
:102C80006A0760932602709327028093280290932C
:102C900029026BE571E085E791E071CF6CEA72E0A3
:102CA00083EC92E06CCF0230110591F462EA71E09E
:102CB0008AE092E00E94301E892B09F00FC163E880
:102CC00072E080EA92E00E9440140E94401580CF9A
:102CD0000530110509F002C1EAE0F2E02FE032E030
:102CE000819180538A3008F0FEC02E173F07C1F74C
:102CF00060910A0280ED582E560E80910B0280538F
:102D00009AE060910C026053762E899F700C11241A
:102D100080910D02805360910E026053662E899F50
:102D2000600C112469E272E082E492E00E94401497
:102D30001F925F9295EAC92E91E0D92EDF92CF9231
:102D40001F9282E08F937E0157E0E50EF11CFF9207
:102D5000EF920E94391E1F927F92DF92CF921F92B4
:102D600023E0B22EBF928E010C5F1F4F1F930F9373
:102D70000E94391E1F926F92DF92CF921F92BF92D4
:102D8000CE0101966C019F938F930E94391E8AE9B0
:102D900097E00E942B1580EB9CE09093F7078093BF
:102DA000F6070FB6F894DEBF0FBECDBF8091F407D3
:102DB0009091F507865E974051F086EE97E09093EC
:102DC000F5078093F4070E94B90D0E948C0549EF26
:102DD000A42E44E0B42EB0929D07A0929C07C80197
:102DE0000E94960E4C01B0929D07A0929C07A701ED
:102DF00070E060E090E080E00E943610B0929D07A5
:102E0000A0929C0780E890E08819990997FF02C07A
:102E100090E080E0A80170E060E00E9436108091B0
:102E2000F4079091F5078758954051F087E895E0B1
:102E30009093F5078093F4070E94B90D0E948C05CA
:102E400009EF14E010939D0700939C07C6010E94B0
:102E5000960E10939D0700939C0720E830E0A9018F
:102E6000481B590BCA0157FD01969595879597FF09
:102E700002C090E080E0A6016AE170E00E94361096
:102E80008AE997E00E947F108AE997E00E94A508EE
:102E900084E091E00E946308652D70E090E080E09E
:102EA0004AE00E946C148FEF90E00E946308672D47
:102EB00070E090E080E04AE00E946C148AEF90E0BD
:102EC0000E946308662D70E090E080E04AE00E9476
:102ED0006C148CE991E00E9425147ACE6CEF71E0BD
:102EE00081E292E04CCE6EE472E087E792E047CE5A
:102EF0001F920F920FB60F9211242F933F934F936F
:102F00005F936F937F938F939F93AF93BF93EF9351
:102F1000FF938091B900887F803609F44AC0F0F5AC
:102F2000883209F4A7C018F5803109F49BC0B8F4C1
:102F3000882309F4F9C0883009F494C0FF91EF9117
:102F4000BF91AF919F918F917F916F915F914F91C1
:102F50003F912F910F900FBE0F901F9018958831C1
:102F600009F488C0803251F78093C60214C08034BF
:102F700009F49DC040F48033B9F38833F9F68093A7
:102F8000C60285ECB0C0803509F485C0883509F4E7
:102F900096C0883499F60E94F314D0CF883909F48A
:102FA0008CC038F5883729F050F4883611F0803716
:102FB00029F683E08093C7021092C50257C0883873
:102FC00009F47BC0803919F0803809F0B7CF8091BF
:102FD000C502803208F071C0E091C50281E08E0F19
:102FE0008093C5028091BB00F0E0EB55FD4F8083DC
:102FF0003DC0803B39F0E0F4803A09F479C0883A6A
:1030000009F09CCF84E08093C7021092A202109234
:10301000A102E0919F02F091A00209958091A10286
:1030200081110FC081E08093A10210927F0209C03C
:10303000803C09F4A6CF883C09F4A3CF883B09F073
:103040007DCFE091A20281E08E0F8093A202F0E09A
:10305000E158FD4F80818093BB009091A202809146
:10306000A10229C08091EC028093BB0085EC809383
:10307000BC0064CF9091EB028091EA02981758F55A
:10308000E091EB0281E08E0F8093EB02F0E0E653DB
:10309000FD4F8081E9CFE091EB0281E08E0F8093BC
:1030A000EB028091BB00F0E0E653FD4F80839091EE
:1030B000EB028091EA029817C8F285E8D8CFE09138
:1030C000EB0281E08E0F8093EB028091BB00F0E079
:1030D000E653FD4F80838091C90281115CCF81E06E
:1030E0008093C80284EA8093BC001092C70226CF66
:1030F00085EC8093BC001092C7028091C50280329B
:1031000030F4E091C502F0E0EB55FD4F1082609184
:10311000C50270E0E091A302F091A40285EA92E07A
:1031200009951092C5020ACF1092C60234CF1F92A1
:103130000F920FB60F9211242F933F938F939F936B
:10314000AF93BF9380912C0290912D02A0912E02FB
:10315000B0912F0230912B0223E0230F2D3758F529
:103160000196A11DB11D20932B0280932C029093F8
:103170002D02A0932E02B0932F02809130029091E5
:103180003102A0913202B09133020196A11DB11D0E
:103190008093300290933102A0933202B0933302B5
:1031A000BF91AF919F918F913F912F910F900FBE43
:1031B0000F901F90189526E8230F0296A11DB11DB0
:1031C000D2CF1F920F920FB60F9211242F933F93DD
:1031D0004F935F936F937F938F939F93AF93BF931F
:1031E000EF93FF9389EF92E00E94F407FF91EF9134
:1031F000BF91AF919F918F917F916F915F914F910F
:103200003F912F910F900FBE0F901F9018951F9216
:103210000F920FB60F9211242F938F939F93EF93DA
:10322000FF93E0910903F0910A038081E0910F037D
:10323000F091100382FD1BC09081809112038F5F7B
:103240008F7320911303821741F0E0911203F0E095
:10325000E750FD4F958F80931203FF91EF919F915F
:103260008F912F910F900FBE0F901F901895808116
:10327000F4CF1F920F920FB60F9211242F933F930A
:103280004F935F936F937F938F939F93AF93BF936E
:10329000CF93DF93EF93FF938091DE01C091DF0125
:1032A000D0E087FF24C010928500109284008091A6
:1032B000DE018F5F8093DE018091DE01082E000C1D
:1032C000990B8C179D0724F48091DE018C30C4F19A
:1032D0008091840090918500049680349C4908F484
:1032E0007AC08091840090918500049676C0809188
:1032F000DE01082E000C990B8C179D07C4F6E09197
:10330000DE018E2FEE0F990BFC01EE0FFF1FE80F71
:10331000F91FE052FE4F808186FFC9CFE091DE01A8
:103320008E2FEE0F990BFC01EE0FFF1FE80FF91F18
:10333000E052FE4F808160E08F730E94A706B7CFF6
:103340002091840030918500E091DE018E2FEE0FF8
:10335000990BFC01EE0FFF1FE80FF91FE052FE4F23
:1033600081819281820F931F9093890080938800BE
:10337000E091DE018E2FEE0F990BFC01EE0FFF1F87
:10338000E80FF91FE052FE4F808186FF11C0E091E7
:10339000DE018E2FEE0F990BFC01EE0FFF1FE80FE1
:1033A000F91FE052FE4F808161E08F730E94A706F3
:1033B000FF91EF91DF91CF91BF91AF919F918F914D
:1033C0007F916F915F914F913F912F910F900FBE21
:1033D0000F901F90189580E49CE99093890080934A
:1033E00088008FEF8093DE01E3CFFC019091DF0135
:1033F0009C3098F481E0890F8093DF019083892FBE
:1034000090E0FC01EE0FFF1FE80FF91FE052FE4FA6
:1034100088EB9BE09283818308958FEF80830895EA
:10342000CF931092F0021092EF0288EE93E0A0E0AA
:10343000B0E08093F1029093F202A093F302B09374
:10344000F4022AE631E03093EE022093ED0210926E
:10345000FC021092FB028093FD029093FE02A09367
:10346000FF02B09300038CE791E09093FA028093FF
:10347000F90285EC90E0909306038093050384ECB9
:1034800090E0909308038093070380EC90E0909382
:103490000A038093090381EC90E090930C038093DE
:1034A0000B0382EC90E090930E0380930D0386EC67
:1034B00090E09093100380930F03109212031092E8
:1034C0001303109214031092150385E398E00E94F1
:1034D000F51982E398E00E94F5198FE298E00E94C6
:1034E000F5198CE298E00E94F51910929907109254
:1034F000980789EF94E0909327088093260810920C
:1035000029081092280810922B0810922A0810926D
:10351000B2078EE891E090939707809396071092F8
:103520009B0710929A071092AF071092A60710926D
:10353000A7071092A8071092A9078FEF8093B007F2
:103540008093B407E8EBF7E08EEC97E0CFEFC19300
:103550008E179F07E1F785E299E090939F0780938C
:103560009E078AE19AE09093A1078093A0078BEDD4
:1035700090E19093A3078093A2078CE192E190934E
:10358000A5078093A40730E020E040E069E08AE9E5
:1035900097E00E9425091092F5071092F40783E046
:1035A00095E09093CF078093CE0786E993E09093C0
:1035B000D3078093D20788E08093D4071092D50771
:1035C000109203081092230810921F0881E0809344
:1035D00024088093250886E991E09093D107809391
:1035E000D0078AE997E00E94B50A1092ED07109281
:1035F000EC071092F1071092F0078FEF9FEF909376
:10360000EF078093EE079093F3078093F207E09122
:10361000D007F091D1070280F381E02D8AE997E08D
:10362000099582E795E09093F7078093F60710924B
:103630000608C093C307C093C407C093C507CF91C2
:103640000895789484B5826084BD84B5816084BD1A
:1036500085B5826085BD85B5816085BD80916E0030
:10366000816080936E001092810080918100826061
:10367000809381008091810081608093810080919E
:1036800080008160809380008091B100846080938D
:10369000B1008091B00081608093B00080917A0089
:1036A000846080937A0080917A00826080937A00AF
:1036B00080917A00816080937A0080917A0080689E
:1036C00080937A001092C100E0910903F0910A03FF
:1036D00082E08083E0910503F09106031082E0917F
:1036E0000703F09108038FEC808310921103E0919F
:1036F0000D03F0910E0386E08083E0910B03F091BF
:103700000C03808180618083E0910B03F0910C03B6
:10371000808188608083E0910B03F0910C038081AD
:1037200080688083E0910B03F0910C0380818F7D92
:10373000808361E087E00E94140760E087E00E94D8
:10374000A70665E070E08FE298E00E944A1363E00C
:1037500070E08CE298E00E944A1362E070E085E33A
:1037600098E00E944A1368E070E082E398E00E94CB
:103770004A1360E374E08CE494E00E94401470E02B
:1037800060E08FE298E00E94CE1270E060E08CE290
:1037900098E00E94CE1270E060E085E398E00E941D
:1037A000CE126FE074E087E294E00E94401480E063
:1037B0000E944A1480E89AE1A6E0B0E08093A60750
:1037C0009093A707A093A807B093A907E0919E073D
:1037D000F0919F0730E020E040E06AE08AE997E05E
:1037E000099580912508882321F08AE997E00E94B5
:1037F0002B1580E00E94750506E917E08AE997E03D
:103800000E947F10C091D5078091D407C80FE09126
:103810009A07F0919B078189C81708F4A2C08AE92A
:1038200097E00E94A50880E00E947505E0919E0740
:10383000F0919F0730E020E040E06BE08AE997E0FC
:103840000995E0919E07F0919F0730E020E04FEF4F
:103850006EE08AE997E009951F9280EF8F931F929F
:1038600085ED8F938FE991E09F938F931F930F9333
:103870000E94B01465E873E08FEB93E00E9440145F
:103880000E9440156EEC73E088E094E00E944014C2
:103890002DB73EB7285F3F4F0FB6F8943EBF0FBE1F
:1038A0002DBFC0E0D0E003E082E0F82E89EF92E087
:1038B0000E94D407181619060CF06EC089EF92E02A
:1038C0000E94B207182F8CE594E00E946308103123
:1038D00028F460E389EF92E00E941608612F70E0FF
:1038E00090E080E040E10E946C1480EE810F8F3503
:1038F00008F043C088E594E00E946308612F89EFD7
:1039000092E00E94160885E594E00E9432148091AE
:103910001A0290911B020F9750F069E674E086E955
:1039200094E00E94401410921B0210921A0280919F
:103930001A0290911B029C012F5F3F4F30931B0294
:1039400020931A02865F9D4FFC0110830E946A0734
:103950006093060270930702809308029093090215
:10396000A5CF80912508882321F08AE997E00E945D
:103970002B158C2F0E94750541CF8CE991E00E9498
:1039800025141D3029F488EA91E00E9452158ECF4B
:103990001A3009F0BCCFF7CF80911A0290911B0228
:1039A000892BB9F00E946A07809006029090070266
:1039B000A0900802B0900902681979098A099B0948
:1039C000633271058105910520F082EB91E00E9440
:1039D00052150E946A0720912502223009F471C015
:1039E000233009F495C0213059F580902102909040
:1039F0002202A0902302B09024029B01AC0128195E
:103A000039094A095B0949015A0130E283169104D8
:103A1000A104B104A8F06093210270932202809364
:103A2000230290932402209120022D35C8F561E0F5
:103A3000620F6093200270E08FE298E00E94CE1245
:103A400080912A02813009F50E946A07809026023F
:103A500090902702A0902802B09029026819790955
:103A60008A099B09643F71408105910570F070E0FF
:103A700060E08CE298E00E94CE1210922A0264E18B
:103A800075E080E395E00E944014209709F40ECF82
:103A90000E94E007882309F409CF0E94000006CFA6
:103AA000F092250260931C0270931D0280931E0207
:103AB00090931F0266EE74E08DE095E00E94401442
:103AC000BFCF80901C0290901D02A0901E02B0906B
:103AD0001F029B01AC01281939094A095B094901F8
:103AE0005A0138EE831633E09306A104B10408F4BA
:103AF000A7CF009325026093210270932202809346
:103B000023029093240261EC74E08FED94E0D6CF11
:103B10008090210290902202A0902302B090240273
:103B20009B01AC01281939094A095B0949015A016D
:103B300030E283169104A104B10408F481CF6093AC
:103B400021027093220280932302909324026091B9
:103B50002002662311F061506CCF109225026EE9AD
:103B600074E08AEB94E0AACF052E97FB1EF4009434
:103B70000E94CB1D57FD07D00E94E61D07FC03D015
:103B80004EF40C94CB1D50954095309521953F4FA8
:103B90004F4F5F4F089590958095709561957F4F39
:103BA0008F4F9F4F08950E94081EA59F900DB49FB0
:103BB000900DA49F800D911D11240895B7FF0C94C2
:103BC000D31D0E94D31D821B930B0895A1E21A2ED0
:103BD000AA1BBB1BFD010DC0AA1FBB1FEE1FFF1FB1
:103BE000A217B307E407F50720F0A21BB30BE40B01
:103BF000F50B661F771F881F991F1A9469F7609548
:103C00007095809590959B01AC01BD01CF01089501
:103C1000A29FB001B39FC001A39F700D811D11240D
:103C2000911DB29F700D811D1124911D0895991B46
:103C300079E004C0991F961708F0961B881F7A95A3
:103C4000C9F780950895EE0FFF1F0590F491E02DC0
:103C50000994DC0101C06D9341505040E0F7089594
:103C6000FB01DC018D91019080190110D9F3990BB2
:103C70000895AEE0B0E0EFE3FEE10C94F5200D898D
:103C80001E898F89988D26E02C831A83098397FFDC
:103C900002C080E090E801979E838D83AE01455E6F
:103CA0005F4F698D7A8DCE0101960E94691E4D810C
:103CB0005E8157FD0AC02F813885421753070CF4E7
:103CC0009A01020F131FF80110822E96E4E00C9463
:103CD0001121ABE0B0E0EFE6FEE10C94E7207C01BF
:103CE0003B018A01FC0117821682838181FFC8C1D2
:103CF000CE0101965C01F7019381F30193FD85915B
:103D000093FF81913F01882309F453C1853239F42F
:103D100093FD859193FF81913F01853229F4B7018D
:103D200090E00E945920E7CF912C212C312CFFE10B
:103D3000F31538F08B3211F190F4803209F18332AF
:103D400029F137FC3CC020ED280F2A3050F536FE13
:103D500020C08AE0989E200D1124922E06C08D323C
:103D600091F0803371F7689430F8F30193FD8591F9
:103D700093FF81913F018111DACF21C0689431F81E
:103D8000689432F8F2CF689433F8EFCF689434F83F
:103D9000ECCFEAE02E9E200D1124222E689435F8F7
:103DA000E4CF8E3229F436FC04C1689436F8DDCFB6
:103DB0008C3619F4689437F8D8CF8836B1F2982F3A
:103DC0009F7D95549330E0F08336A1F18337C1F1A4
:103DD000833509F063C02801F2E04F0E511CF80151
:103DE000C080D180692D70E036FC02C06FEF7FEF9C
:103DF000C6010E9443204C01689437F882010AC032
:103E00000C5F1F4FFFE3F98388248394912C650195
:103E1000E89437F833FE2DC0522C8114910471F5CB
:103E2000552009F468CFB70180E290E00E94592044
:103E30005A94F6CFF801808189830E5F1F4FE4CF3B
:103E40002801F2E04F0E511CF801C080D180692D8D
:103E500070E036FC02C06FEF7FEFC6010E944E207B
:103E60004C018201D5CFB70180E290E00E94592039
:103E70002A942814190409F0B0F7CECFF60137FCC4
:103E8000859137FE81916F01B70190E00E94592022
:103E900051105A94F1E08F1A9108BFCF843619F06F
:103EA000893609F077C0F80137FE6BC060817181F7
:103EB000828193810C5F1F4FF32DFF763F2E97FF7A
:103EC00009C090958095709561957F4F8F4F9F4F5A
:103ED000689437F82AE030E0A5010E948920C82EB6
:103EE000CA188C2C432C36FE0CC0E89440F8C91438
:103EF00040F434FE05C032FC03C0F32DFE7E4F2E8D
:103F0000892C44FE95C0FE01EC0DF11D80818033AB
:103F100009F087C0242D297E422E842D8870582ECA
:103F200043FC95C040FE8FC09C2C821418F42C0CCE
:103F3000922C981844FE91C0B70180E390E00E9453
:103F4000592042FE09C088E790E041FE02C088E5A2
:103F500090E0B7010E945920C91408F48AC0CA949D
:103F6000D12C9FEFC91AD90ACA0CDB1CF601829129
:103F70006F01B70190E00E945920AC14BD04B1F765
:103F80004FCF60817181072E000C880B990B0E5F5B
:103F90001F4F92CFD32CE894D4F82AE030E0853735
:103FA00039F1232D297FD22E8F3601F148F488353F
:103FB000A9F0F701868197812B96E2E10C94032109
:103FC000803749F08837A9F7D4FE02C06894D2F848
:103FD00020E130E00DC06894D4F8F6CF34FE03C081
:103FE000822F8660D82E20E132E002C028E030E047
:103FF000F801D7FE0FC060817181828193810C5FCF
:104000001F4FA5010E948920C82ECA183D2CE89494
:1040100037F867CF6081718190E080E00E5F1F4FBD
:10402000F0CF42FC02C0839478CF8394839475CF01
:10403000842D867809F471CFF6CFB70180E290E045
:104040000E94592083948214C0F3512C73CF522CB8
:104050005818821408F46ECFF8CF842D867809F4AE
:104060007BCF8BE241FE80E247FC8DE2B70190E01E
:1040700071CFB70180E390E00E9459209A946CCFF1
:104080008FEF9FEF99CFFC010590615070400110B8
:10409000D8F7809590958E0F9F1F0895FC01615071
:1040A000704001900110D8F7809590958E0F9F1F5A
:1040B00008950F931F93CF93DF93182F092FEB01D0
:1040C0008B8181FD09C01FEF0FEF812F902FDF91B2
:1040D000CF911F910F91089582FF14C02E813F81CF
:1040E0008C819D81281739073CF4E881F981CF0143
:1040F00001969983888310838E819F8101969F8387
:104100008E83E3CFE885F985812F0995892BA1F36B
:10411000DACFFA01AA27283051F1203181F1E89451
:104120006F936E7F6E5F7F4F8F4F9F4FAF4FB1E0AA
:104130003ED0B4E03CD0670F781F891F9A1FA11DA5
:10414000680F791F8A1F911DA11D6A0F711D811DA6
:10415000911DA11D20D009F468943F912AE0269F6B
:1041600011243019305D3193DEF6CF010895462FCA
:104170004770405D4193B3E00FD0C9F7F6CF462FAB
:104180004F70405D4A3318F0495D31FD4052419314
:1041900002D0A9F7EACFB4E0A695979587957795D1
:1041A0006795BA95C9F700976105710508959B0158
:1041B000AC010A2E06945795479537952795BA95E1
:1041C000C9F7620F731F841F951FA01D08952F92BA
:1041D0003F924F925F926F927F928F929F92AF9297
:1041E000BF92CF92DF92EF92FF920F931F93CF93E4
:1041F000DF93CDB7DEB7CA1BDB0B0FB6F894DEBF7B
:104200000FBECDBF09942A88398848885F846E84A0
:104210007D848C849B84AA84B984C884DF80EE80EA
:10422000FD800C811B81AA81B981CE0FD11D0FB6F3
:10423000F894DEBF0FBECDBFED010895F894FFCF17
:10424000FF1815A015C019FF1815A115C819FF18DA
:1042500015AE19FF1815AF19FF1815AE15D5168034
:1042600015A8163F15D316001540158D16141520E8
:10427000160015A115C815DA1612158116CF15D915
:1042800016F115DB1640152E15A415A619FF000111
:10429000140A6464323200093D00000428961008B4
:1042A000020280004000000000004F062206221497
:1042B000F8051B060806F905000000001608760739
:1042C000A3077E08D407B207C60700000000CE137C
:1042D000A61322142114B50A400B840A0D0A0063A8
:1042E000610034340025750064656C696D6974651E
:0A42F000720074696D656F7574004B
:00000001FF
